
VectorOS.elf:     file format elf32-littlearm

Sections:
Idx Name          Size      VMA       LMA       File off  Algn
  0 .text         00011d74  00400000  00400000  00008000  2**3
                  CONTENTS, ALLOC, LOAD, READONLY, CODE
  1 .relocate     00001320  20000000  00411d74  00020000  2**3
                  CONTENTS, ALLOC, LOAD, CODE
  2 .bss          00005d80  20001320  00413094  00021320  2**2
                  ALLOC
  3 .stack        00003000  200070a0  00418e14  00021320  2**0
                  ALLOC
  4 .ARM.attributes 00000031  00000000  00000000  00021320  2**0
                  CONTENTS, READONLY
  5 .comment      00000011  00000000  00000000  00021351  2**0
                  CONTENTS, READONLY
  6 .debug_info   00039cc2  00000000  00000000  00021362  2**0
                  CONTENTS, READONLY, DEBUGGING
  7 .debug_abbrev 000097ff  00000000  00000000  0005b024  2**0
                  CONTENTS, READONLY, DEBUGGING
  8 .debug_loc    00015060  00000000  00000000  00064823  2**0
                  CONTENTS, READONLY, DEBUGGING
  9 .debug_aranges 00001bd8  00000000  00000000  00079888  2**3
                  CONTENTS, READONLY, DEBUGGING
 10 .debug_ranges 000016e0  00000000  00000000  0007b460  2**0
                  CONTENTS, READONLY, DEBUGGING
 11 .debug_macro  0001656d  00000000  00000000  0007cb40  2**0
                  CONTENTS, READONLY, DEBUGGING
 12 .debug_line   0001e34d  00000000  00000000  000930ad  2**0
                  CONTENTS, READONLY, DEBUGGING
 13 .debug_str    0005247b  00000000  00000000  000b13fa  2**0
                  CONTENTS, READONLY, DEBUGGING
 14 .debug_frame  00003d0c  00000000  00000000  00103878  2**2
                  CONTENTS, READONLY, DEBUGGING

Disassembly of section .text:

00400000 <_sfixed>:
  400000:	2000a0a0 	.word	0x2000a0a0
  400004:	00401519 	.word	0x00401519
  400008:	00401515 	.word	0x00401515
  40000c:	00401515 	.word	0x00401515
  400010:	00401515 	.word	0x00401515
  400014:	00401515 	.word	0x00401515
  400018:	00401515 	.word	0x00401515
	...
  40002c:	00401515 	.word	0x00401515
  400030:	00401515 	.word	0x00401515
  400034:	00000000 	.word	0x00000000
  400038:	00401515 	.word	0x00401515
  40003c:	00401515 	.word	0x00401515
  400040:	00401515 	.word	0x00401515
  400044:	00401515 	.word	0x00401515
  400048:	00401d71 	.word	0x00401d71
  40004c:	00402201 	.word	0x00402201
  400050:	00401515 	.word	0x00401515
  400054:	00401515 	.word	0x00401515
  400058:	00401515 	.word	0x00401515
  40005c:	00000000 	.word	0x00000000
  400060:	00401515 	.word	0x00401515
  400064:	00401515 	.word	0x00401515
  400068:	00000000 	.word	0x00000000
  40006c:	0040060d 	.word	0x0040060d
  400070:	00400629 	.word	0x00400629
  400074:	00000000 	.word	0x00000000
  400078:	00401515 	.word	0x00401515
  40007c:	00401515 	.word	0x00401515
	...
  400088:	00401515 	.word	0x00401515
  40008c:	00401515 	.word	0x00401515
  400090:	00401515 	.word	0x00401515
  400094:	00401515 	.word	0x00401515
  400098:	00401515 	.word	0x00401515
  40009c:	00401515 	.word	0x00401515
  4000a0:	00401515 	.word	0x00401515
  4000a4:	00401515 	.word	0x00401515
	...
  4000b4:	004023c9 	.word	0x004023c9
  4000b8:	00401515 	.word	0x00401515
  4000bc:	00401515 	.word	0x00401515
  4000c0:	00401515 	.word	0x00401515
  4000c4:	00401515 	.word	0x00401515
  4000c8:	00401515 	.word	0x00401515

004000cc <deregister_tm_clones>:
  4000cc:	b508      	push	{r3, lr}
  4000ce:	4b07      	ldr	r3, [pc, #28]	; (4000ec <deregister_tm_clones+0x20>)
  4000d0:	4807      	ldr	r0, [pc, #28]	; (4000f0 <deregister_tm_clones+0x24>)
  4000d2:	3303      	adds	r3, #3
  4000d4:	1a1b      	subs	r3, r3, r0
  4000d6:	2b06      	cmp	r3, #6
  4000d8:	d904      	bls.n	4000e4 <deregister_tm_clones+0x18>
  4000da:	4b06      	ldr	r3, [pc, #24]	; (4000f4 <deregister_tm_clones+0x28>)
  4000dc:	2b00      	cmp	r3, #0
  4000de:	d001      	beq.n	4000e4 <deregister_tm_clones+0x18>
  4000e0:	f000 f85c 	bl	40019c <frame_dummy+0x40>
  4000e4:	bc08      	pop	{r3}
  4000e6:	bc01      	pop	{r0}
  4000e8:	4700      	bx	r0
  4000ea:	46c0      	nop			; (mov r8, r8)
  4000ec:	00411d74 	.word	0x00411d74
  4000f0:	00411d74 	.word	0x00411d74
  4000f4:	00000000 	.word	0x00000000

004000f8 <register_tm_clones>:
  4000f8:	4808      	ldr	r0, [pc, #32]	; (40011c <register_tm_clones+0x24>)
  4000fa:	4909      	ldr	r1, [pc, #36]	; (400120 <register_tm_clones+0x28>)
  4000fc:	1a09      	subs	r1, r1, r0
  4000fe:	1089      	asrs	r1, r1, #2
  400100:	b508      	push	{r3, lr}
  400102:	0fcb      	lsrs	r3, r1, #31
  400104:	1859      	adds	r1, r3, r1
  400106:	1049      	asrs	r1, r1, #1
  400108:	d004      	beq.n	400114 <register_tm_clones+0x1c>
  40010a:	4b06      	ldr	r3, [pc, #24]	; (400124 <register_tm_clones+0x2c>)
  40010c:	2b00      	cmp	r3, #0
  40010e:	d001      	beq.n	400114 <register_tm_clones+0x1c>
  400110:	f000 f844 	bl	40019c <frame_dummy+0x40>
  400114:	bc08      	pop	{r3}
  400116:	bc01      	pop	{r0}
  400118:	4700      	bx	r0
  40011a:	46c0      	nop			; (mov r8, r8)
  40011c:	00411d74 	.word	0x00411d74
  400120:	00411d74 	.word	0x00411d74
  400124:	00000000 	.word	0x00000000

00400128 <__do_global_dtors_aux>:
  400128:	4b09      	ldr	r3, [pc, #36]	; (400150 <__do_global_dtors_aux+0x28>)
  40012a:	781a      	ldrb	r2, [r3, #0]
  40012c:	b510      	push	{r4, lr}
  40012e:	1c1c      	adds	r4, r3, #0
  400130:	2a00      	cmp	r2, #0
  400132:	d109      	bne.n	400148 <__do_global_dtors_aux+0x20>
  400134:	f7ff ffca 	bl	4000cc <deregister_tm_clones>
  400138:	4b06      	ldr	r3, [pc, #24]	; (400154 <__do_global_dtors_aux+0x2c>)
  40013a:	2b00      	cmp	r3, #0
  40013c:	d002      	beq.n	400144 <__do_global_dtors_aux+0x1c>
  40013e:	4806      	ldr	r0, [pc, #24]	; (400158 <__do_global_dtors_aux+0x30>)
  400140:	f3af 8000 	nop.w
  400144:	2301      	movs	r3, #1
  400146:	7023      	strb	r3, [r4, #0]
  400148:	bc10      	pop	{r4}
  40014a:	bc01      	pop	{r0}
  40014c:	4700      	bx	r0
  40014e:	46c0      	nop			; (mov r8, r8)
  400150:	20001320 	.word	0x20001320
  400154:	00000000 	.word	0x00000000
  400158:	00411d74 	.word	0x00411d74

0040015c <frame_dummy>:
  40015c:	b508      	push	{r3, lr}
  40015e:	4b0a      	ldr	r3, [pc, #40]	; (400188 <frame_dummy+0x2c>)
  400160:	2b00      	cmp	r3, #0
  400162:	d003      	beq.n	40016c <frame_dummy+0x10>
  400164:	4809      	ldr	r0, [pc, #36]	; (40018c <frame_dummy+0x30>)
  400166:	490a      	ldr	r1, [pc, #40]	; (400190 <frame_dummy+0x34>)
  400168:	f3af 8000 	nop.w
  40016c:	4809      	ldr	r0, [pc, #36]	; (400194 <frame_dummy+0x38>)
  40016e:	6803      	ldr	r3, [r0, #0]
  400170:	2b00      	cmp	r3, #0
  400172:	d004      	beq.n	40017e <frame_dummy+0x22>
  400174:	4b08      	ldr	r3, [pc, #32]	; (400198 <frame_dummy+0x3c>)
  400176:	2b00      	cmp	r3, #0
  400178:	d001      	beq.n	40017e <frame_dummy+0x22>
  40017a:	f000 f80f 	bl	40019c <frame_dummy+0x40>
  40017e:	f7ff ffbb 	bl	4000f8 <register_tm_clones>
  400182:	bc08      	pop	{r3}
  400184:	bc01      	pop	{r0}
  400186:	4700      	bx	r0
  400188:	00000000 	.word	0x00000000
  40018c:	00411d74 	.word	0x00411d74
  400190:	20001324 	.word	0x20001324
  400194:	00411d74 	.word	0x00411d74
  400198:	00000000 	.word	0x00000000
  40019c:	4718      	bx	r3
  40019e:	46c0      	nop			; (mov r8, r8)

004001a0 <sysclk_init>:
}
#endif // CONFIG_USBCLK_SOURCE

//#define TUTU 1
void sysclk_init(void)
{
  4001a0:	b510      	push	{r4, lr}
	case OSC_MAINCK_4M_RC:
		pmc_switch_mainck_to_fastrc(CKGR_MOR_MOSCRCF_4_MHz);
		break;

	case OSC_MAINCK_8M_RC:
		pmc_switch_mainck_to_fastrc(CKGR_MOR_MOSCRCF_8_MHz);
  4001a2:	f04f 0010 	mov.w	r0, #16
  4001a6:	f240 73c5 	movw	r3, #1989	; 0x7c5
  4001aa:	f2c0 0340 	movt	r3, #64	; 0x40
  4001ae:	4798      	blx	r3
	case OSC_MAINCK_4M_RC:
	case OSC_MAINCK_8M_RC:
	case OSC_MAINCK_12M_RC:
	case OSC_MAINCK_XTAL:
	case OSC_MAINCK_BYPASS:
		return pmc_osc_is_ready_mainck();
  4001b0:	f640 0461 	movw	r4, #2145	; 0x861
  4001b4:	f2c0 0440 	movt	r4, #64	; 0x40
  4001b8:	47a0      	blx	r4
 *
 * \param id A number identifying the oscillator to wait for.
 */
static inline void osc_wait_ready(uint8_t id)
{
	while (!osc_is_ready(id)) {
  4001ba:	2800      	cmp	r0, #0
  4001bc:	d0fc      	beq.n	4001b8 <sysclk_init+0x18>
	}

	else if (CONFIG_SYSCLK_SOURCE == SYSCLK_SRC_MAINCK_8M_RC) {
		osc_enable(OSC_MAINCK_8M_RC);
		osc_wait_ready(OSC_MAINCK_8M_RC);
		pmc_switch_mck_to_mainck(CONFIG_SYSCLK_PRES);
  4001be:	f04f 0000 	mov.w	r0, #0
  4001c2:	f240 63ed 	movw	r3, #1773	; 0x6ed
  4001c6:	f2c0 0340 	movt	r3, #64	; 0x40
  4001ca:	4798      	blx	r3
		pmc_switch_mck_to_pllbck(CONFIG_SYSCLK_PRES);
	}
#endif

	/* Update the SystemFrequency variable */
	SystemCoreClockUpdate();
  4001cc:	f241 53f9 	movw	r3, #5625	; 0x15f9
  4001d0:	f2c0 0340 	movt	r3, #64	; 0x40
  4001d4:	4798      	blx	r3
  4001d6:	bd10      	pop	{r4, pc}

004001d8 <pio_pull_up>:
 */
void pio_pull_up(Pio *p_pio, const uint32_t ul_mask,
		const uint32_t ul_pull_up_enable)
{
	/* Enable the pull-up(s) if necessary */
	if (ul_pull_up_enable) {
  4001d8:	b10a      	cbz	r2, 4001de <pio_pull_up+0x6>
		p_pio->PIO_PUER = ul_mask;
  4001da:	6641      	str	r1, [r0, #100]	; 0x64
  4001dc:	4770      	bx	lr
	} else {
		p_pio->PIO_PUDR = ul_mask;
  4001de:	6601      	str	r1, [r0, #96]	; 0x60
  4001e0:	4770      	bx	lr
  4001e2:	bf00      	nop

004001e4 <pio_set_debounce_filter>:
void pio_set_debounce_filter(Pio *p_pio, const uint32_t ul_mask,
		const uint32_t ul_cut_off)
{
#if (SAM3S || SAM3N || SAM4S || SAM4E || SAM4N || SAM4C || SAMG || SAM4CP)
	/* Set Debouncing, 0 bit field no effect */
	p_pio->PIO_IFSCER = ul_mask;
  4001e4:	f8c0 1084 	str.w	r1, [r0, #132]	; 0x84
	/*
	 * The debouncing filter can filter a pulse of less than 1/2 Period of a
	 * programmable Divided Slow Clock:
	 * Tdiv_slclk = ((DIV+1)*2).Tslow_clock
	 */
	p_pio->PIO_SCDR = PIO_SCDR_DIV((FREQ_SLOW_CLOCK_EXT /
  4001e8:	ea4f 0242 	mov.w	r2, r2, lsl #1
  4001ec:	f44f 4300 	mov.w	r3, #32768	; 0x8000
  4001f0:	fbb3 f3f2 	udiv	r3, r3, r2
  4001f4:	f103 33ff 	add.w	r3, r3, #4294967295	; 0xffffffff
  4001f8:	ea4f 4383 	mov.w	r3, r3, lsl #18
  4001fc:	ea4f 4393 	mov.w	r3, r3, lsr #18
  400200:	f8c0 308c 	str.w	r3, [r0, #140]	; 0x8c
  400204:	4770      	bx	lr
  400206:	bf00      	nop

00400208 <pio_set_peripheral>:
 * \param ul_type PIO type.
 * \param ul_mask Bitmask of one or more pin(s) to configure.
 */
void pio_set_peripheral(Pio *p_pio, const pio_type_t ul_type,
		const uint32_t ul_mask)
{
  400208:	b410      	push	{r4}
	uint32_t ul_sr;

	/* Disable interrupts on the pin(s) */
	p_pio->PIO_IDR = ul_mask;
  40020a:	6442      	str	r2, [r0, #68]	; 0x44

#if (SAM3S || SAM3N || SAM4S || SAM4E || SAM4N || SAM4C || SAMG || SAM4CP)
	switch (ul_type) {
  40020c:	f1b1 5fc0 	cmp.w	r1, #402653184	; 0x18000000
  400210:	d02f      	beq.n	400272 <pio_set_peripheral+0x6a>
  400212:	d808      	bhi.n	400226 <pio_set_peripheral+0x1e>
  400214:	f1b1 6f00 	cmp.w	r1, #134217728	; 0x8000000
  400218:	d014      	beq.n	400244 <pio_set_peripheral+0x3c>
  40021a:	f1b1 5f80 	cmp.w	r1, #268435456	; 0x10000000
  40021e:	d01e      	beq.n	40025e <pio_set_peripheral+0x56>
  400220:	2900      	cmp	r1, #0
  400222:	d037      	beq.n	400294 <pio_set_peripheral+0x8c>
  400224:	e035      	b.n	400292 <pio_set_peripheral+0x8a>
  400226:	f1b1 5f20 	cmp.w	r1, #671088640	; 0x28000000
  40022a:	d033      	beq.n	400294 <pio_set_peripheral+0x8c>
  40022c:	d803      	bhi.n	400236 <pio_set_peripheral+0x2e>
  40022e:	f1b1 5f00 	cmp.w	r1, #536870912	; 0x20000000
  400232:	d12e      	bne.n	400292 <pio_set_peripheral+0x8a>
  400234:	e027      	b.n	400286 <pio_set_peripheral+0x7e>
  400236:	f1b1 5f40 	cmp.w	r1, #805306368	; 0x30000000
  40023a:	d02b      	beq.n	400294 <pio_set_peripheral+0x8c>
  40023c:	f1b1 5f60 	cmp.w	r1, #939524096	; 0x38000000
  400240:	d127      	bne.n	400292 <pio_set_peripheral+0x8a>
  400242:	e027      	b.n	400294 <pio_set_peripheral+0x8c>
	case PIO_PERIPH_A:
		ul_sr = p_pio->PIO_ABCDSR[0];
  400244:	6f01      	ldr	r1, [r0, #112]	; 0x70
		p_pio->PIO_ABCDSR[0] &= (~ul_mask & ul_sr);
  400246:	6f04      	ldr	r4, [r0, #112]	; 0x70
  400248:	ea6f 0302 	mvn.w	r3, r2
  40024c:	4021      	ands	r1, r4
  40024e:	4019      	ands	r1, r3
  400250:	6701      	str	r1, [r0, #112]	; 0x70

		ul_sr = p_pio->PIO_ABCDSR[1];
  400252:	6f41      	ldr	r1, [r0, #116]	; 0x74
		p_pio->PIO_ABCDSR[1] &= (~ul_mask & ul_sr);
  400254:	6f44      	ldr	r4, [r0, #116]	; 0x74
  400256:	4021      	ands	r1, r4
  400258:	400b      	ands	r3, r1
  40025a:	6743      	str	r3, [r0, #116]	; 0x74
		break;
  40025c:	e019      	b.n	400292 <pio_set_peripheral+0x8a>

	case PIO_PERIPH_B:
		ul_sr = p_pio->PIO_ABCDSR[0];
  40025e:	6f03      	ldr	r3, [r0, #112]	; 0x70
		p_pio->PIO_ABCDSR[0] = (ul_mask | ul_sr);
  400260:	4313      	orrs	r3, r2
  400262:	6703      	str	r3, [r0, #112]	; 0x70

		ul_sr = p_pio->PIO_ABCDSR[1];
  400264:	6f43      	ldr	r3, [r0, #116]	; 0x74
		p_pio->PIO_ABCDSR[1] &= (~ul_mask & ul_sr);
  400266:	6f41      	ldr	r1, [r0, #116]	; 0x74
  400268:	400b      	ands	r3, r1
  40026a:	ea23 0302 	bic.w	r3, r3, r2
  40026e:	6743      	str	r3, [r0, #116]	; 0x74
		break;
  400270:	e00f      	b.n	400292 <pio_set_peripheral+0x8a>
#if (!SAMG)
	case PIO_PERIPH_C:
		ul_sr = p_pio->PIO_ABCDSR[0];
  400272:	6f03      	ldr	r3, [r0, #112]	; 0x70
		p_pio->PIO_ABCDSR[0] &= (~ul_mask & ul_sr);
  400274:	6f01      	ldr	r1, [r0, #112]	; 0x70
  400276:	400b      	ands	r3, r1
  400278:	ea23 0302 	bic.w	r3, r3, r2
  40027c:	6703      	str	r3, [r0, #112]	; 0x70

		ul_sr = p_pio->PIO_ABCDSR[1];
  40027e:	6f43      	ldr	r3, [r0, #116]	; 0x74
		p_pio->PIO_ABCDSR[1] = (ul_mask | ul_sr);
  400280:	4313      	orrs	r3, r2
  400282:	6743      	str	r3, [r0, #116]	; 0x74
		break;
  400284:	e005      	b.n	400292 <pio_set_peripheral+0x8a>

	case PIO_PERIPH_D:
		ul_sr = p_pio->PIO_ABCDSR[0];
  400286:	6f03      	ldr	r3, [r0, #112]	; 0x70
		p_pio->PIO_ABCDSR[0] = (ul_mask | ul_sr);
  400288:	4313      	orrs	r3, r2
  40028a:	6703      	str	r3, [r0, #112]	; 0x70

		ul_sr = p_pio->PIO_ABCDSR[1];
  40028c:	6f43      	ldr	r3, [r0, #116]	; 0x74
		p_pio->PIO_ABCDSR[1] = (ul_mask | ul_sr);
  40028e:	4313      	orrs	r3, r2
  400290:	6743      	str	r3, [r0, #116]	; 0x74
#else
#error "Unsupported device"
#endif

	/* Remove the pins from under the control of PIO */
	p_pio->PIO_PDR = ul_mask;
  400292:	6042      	str	r2, [r0, #4]
}
  400294:	bc10      	pop	{r4}
  400296:	4770      	bx	lr

00400298 <pio_configure_interrupt>:
 */
void pio_configure_interrupt(Pio *p_pio, const uint32_t ul_mask,
		const uint32_t ul_attr)
{
	/* Configure additional interrupt mode registers. */
	if (ul_attr & PIO_IT_AIME) {
  400298:	f012 0f10 	tst.w	r2, #16
  40029c:	d010      	beq.n	4002c0 <pio_configure_interrupt+0x28>
		/* Enable additional interrupt mode. */
		p_pio->PIO_AIMER = ul_mask;
  40029e:	f8c0 10b0 	str.w	r1, [r0, #176]	; 0xb0

		/* If bit field of the selected pin is 1, set as
		   Rising Edge/High level detection event. */
		if (ul_attr & PIO_IT_RE_OR_HL) {
  4002a2:	f012 0f20 	tst.w	r2, #32
			/* Rising Edge or High Level */
			p_pio->PIO_REHLSR = ul_mask;
  4002a6:	bf14      	ite	ne
  4002a8:	f8c0 10d4 	strne.w	r1, [r0, #212]	; 0xd4
		} else {
			/* Falling Edge or Low Level */
			p_pio->PIO_FELLSR = ul_mask;
  4002ac:	f8c0 10d0 	streq.w	r1, [r0, #208]	; 0xd0
		}

		/* If bit field of the selected pin is 1, set as
		   edge detection source. */
		if (ul_attr & PIO_IT_EDGE) {
  4002b0:	f012 0f40 	tst.w	r2, #64	; 0x40
			/* Edge select */
			p_pio->PIO_ESR = ul_mask;
  4002b4:	bf14      	ite	ne
  4002b6:	f8c0 10c0 	strne.w	r1, [r0, #192]	; 0xc0
		} else {
			/* Level select */
			p_pio->PIO_LSR = ul_mask;
  4002ba:	f8c0 10c4 	streq.w	r1, [r0, #196]	; 0xc4
  4002be:	4770      	bx	lr
		}
	} else {
		/* Disable additional interrupt mode. */
		p_pio->PIO_AIMDR = ul_mask;
  4002c0:	f8c0 10b4 	str.w	r1, [r0, #180]	; 0xb4
  4002c4:	4770      	bx	lr
  4002c6:	bf00      	nop

004002c8 <pio_enable_interrupt>:
 * \param p_pio Pointer to a PIO instance.
 * \param ul_mask Interrupt sources bit map.
 */
void pio_enable_interrupt(Pio *p_pio, const uint32_t ul_mask)
{
	p_pio->PIO_ISR;
  4002c8:	6cc3      	ldr	r3, [r0, #76]	; 0x4c
	p_pio->PIO_IER = ul_mask;
  4002ca:	6401      	str	r1, [r0, #64]	; 0x40
  4002cc:	4770      	bx	lr
  4002ce:	bf00      	nop

004002d0 <pio_disable_interrupt>:
 * \param p_pio Pointer to a PIO instance.
 * \param ul_mask Interrupt sources bit map.
 */
void pio_disable_interrupt(Pio *p_pio, const uint32_t ul_mask)
{
	p_pio->PIO_IDR = ul_mask;
  4002d0:	6441      	str	r1, [r0, #68]	; 0x44
  4002d2:	4770      	bx	lr

004002d4 <pio_set_output>:
 */
void pio_set_output(Pio *p_pio, const uint32_t ul_mask,
		const uint32_t ul_default_level,
		const uint32_t ul_multidrive_enable,
		const uint32_t ul_pull_up_enable)
{
  4002d4:	e92d 41f0 	stmdb	sp!, {r4, r5, r6, r7, r8, lr}
  4002d8:	4604      	mov	r4, r0
  4002da:	460d      	mov	r5, r1
  4002dc:	4617      	mov	r7, r2
  4002de:	4698      	mov	r8, r3
	pio_disable_interrupt(p_pio, ul_mask);
  4002e0:	f240 26d1 	movw	r6, #721	; 0x2d1
  4002e4:	f2c0 0640 	movt	r6, #64	; 0x40
  4002e8:	47b0      	blx	r6
	pio_pull_up(p_pio, ul_mask, ul_pull_up_enable);
  4002ea:	4620      	mov	r0, r4
  4002ec:	4629      	mov	r1, r5
  4002ee:	9a06      	ldr	r2, [sp, #24]
  4002f0:	f240 16d9 	movw	r6, #473	; 0x1d9
  4002f4:	f2c0 0640 	movt	r6, #64	; 0x40
  4002f8:	47b0      	blx	r6

	/* Enable multi-drive if necessary */
	if (ul_multidrive_enable) {
  4002fa:	f1b8 0f00 	cmp.w	r8, #0
  4002fe:	d001      	beq.n	400304 <pio_set_output+0x30>
		p_pio->PIO_MDER = ul_mask;
  400300:	6525      	str	r5, [r4, #80]	; 0x50
  400302:	e000      	b.n	400306 <pio_set_output+0x32>
	} else {
		p_pio->PIO_MDDR = ul_mask;
  400304:	6565      	str	r5, [r4, #84]	; 0x54
	}

	/* Set default value */
	if (ul_default_level) {
  400306:	b10f      	cbz	r7, 40030c <pio_set_output+0x38>
		p_pio->PIO_SODR = ul_mask;
  400308:	6325      	str	r5, [r4, #48]	; 0x30
  40030a:	e000      	b.n	40030e <pio_set_output+0x3a>
	} else {
		p_pio->PIO_CODR = ul_mask;
  40030c:	6365      	str	r5, [r4, #52]	; 0x34
	}

	/* Configure pin(s) as output(s) */
	p_pio->PIO_OER = ul_mask;
  40030e:	6125      	str	r5, [r4, #16]
	p_pio->PIO_PER = ul_mask;
  400310:	6025      	str	r5, [r4, #0]
  400312:	e8bd 81f0 	ldmia.w	sp!, {r4, r5, r6, r7, r8, pc}
  400316:	bf00      	nop

00400318 <pio_set_input>:
 * \param ul_mask Bitmask indicating which pin(s) to configure as input(s).
 * \param ul_attribute PIO attribute(s).
 */
void pio_set_input(Pio *p_pio, const uint32_t ul_mask,
		const uint32_t ul_attribute)
{
  400318:	b570      	push	{r4, r5, r6, lr}
  40031a:	4604      	mov	r4, r0
  40031c:	460d      	mov	r5, r1
  40031e:	4616      	mov	r6, r2
	pio_disable_interrupt(p_pio, ul_mask);
  400320:	f240 23d1 	movw	r3, #721	; 0x2d1
  400324:	f2c0 0340 	movt	r3, #64	; 0x40
  400328:	4798      	blx	r3
	pio_pull_up(p_pio, ul_mask, ul_attribute & PIO_PULLUP);
  40032a:	4620      	mov	r0, r4
  40032c:	4629      	mov	r1, r5
  40032e:	f006 0201 	and.w	r2, r6, #1
  400332:	f240 13d9 	movw	r3, #473	; 0x1d9
  400336:	f2c0 0340 	movt	r3, #64	; 0x40
  40033a:	4798      	blx	r3

	/* Enable Input Filter if necessary */
	if (ul_attribute & (PIO_DEGLITCH | PIO_DEBOUNCE)) {
  40033c:	f016 0f0a 	tst.w	r6, #10
		p_pio->PIO_IFER = ul_mask;
  400340:	bf14      	ite	ne
  400342:	6225      	strne	r5, [r4, #32]
	} else {
		p_pio->PIO_IFDR = ul_mask;
  400344:	6265      	streq	r5, [r4, #36]	; 0x24
	}

#if (SAM3S || SAM3N || SAM4S || SAM4E || SAM4N || SAM4C || SAMG || SAM4CP)
	/* Enable de-glitch or de-bounce if necessary */
	if (ul_attribute & PIO_DEGLITCH) {
  400346:	f016 0f02 	tst.w	r6, #2
		p_pio->PIO_IFSCDR = ul_mask;
  40034a:	bf18      	it	ne
  40034c:	f8c4 5080 	strne.w	r5, [r4, #128]	; 0x80
		p_pio->PIO_IFDR = ul_mask;
	}

#if (SAM3S || SAM3N || SAM4S || SAM4E || SAM4N || SAM4C || SAMG || SAM4CP)
	/* Enable de-glitch or de-bounce if necessary */
	if (ul_attribute & PIO_DEGLITCH) {
  400350:	d104      	bne.n	40035c <pio_set_input+0x44>
		p_pio->PIO_IFSCDR = ul_mask;
	} else {
		if (ul_attribute & PIO_DEBOUNCE) {
  400352:	f016 0f08 	tst.w	r6, #8
			p_pio->PIO_IFSCER = ul_mask;
  400356:	bf18      	it	ne
  400358:	f8c4 5084 	strne.w	r5, [r4, #132]	; 0x84
#else
#error "Unsupported device"
#endif

	/* Configure pin as input */
	p_pio->PIO_ODR = ul_mask;
  40035c:	6165      	str	r5, [r4, #20]
	p_pio->PIO_PER = ul_mask;
  40035e:	6025      	str	r5, [r4, #0]
  400360:	bd70      	pop	{r4, r5, r6, pc}
  400362:	bf00      	nop

00400364 <pio_get_interrupt_status>:
 *
 * \return The interrupt status mask value.
 */
uint32_t pio_get_interrupt_status(const Pio *p_pio)
{
	return p_pio->PIO_ISR;
  400364:	6cc0      	ldr	r0, [r0, #76]	; 0x4c
}
  400366:	4770      	bx	lr

00400368 <pio_get_interrupt_mask>:
 *
 * \return The interrupt mask value.
 */
uint32_t pio_get_interrupt_mask(const Pio *p_pio)
{
	return p_pio->PIO_IMR;
  400368:	6c80      	ldr	r0, [r0, #72]	; 0x48
}
  40036a:	4770      	bx	lr

0040036c <pio_get_pin_value>:
		p_pio = PIOC;
	} else {
		p_pio = (Pio *)((uint32_t)PIOA + (PIO_DELTA * (ul_pin >> 5)));
	}
#else
	p_pio = (Pio *)((uint32_t)PIOA + (PIO_DELTA * (ul_pin >> 5)));
  40036c:	ea4f 1350 	mov.w	r3, r0, lsr #5
  400370:	f503 1300 	add.w	r3, r3, #2097152	; 0x200000
  400374:	f203 7307 	addw	r3, r3, #1799	; 0x707
  400378:	ea4f 2343 	mov.w	r3, r3, lsl #9
#endif
	return (p_pio->PIO_PDSR >> (ul_pin & 0x1F)) & 1;
  40037c:	6bdb      	ldr	r3, [r3, #60]	; 0x3c
  40037e:	f000 001f 	and.w	r0, r0, #31
  400382:	fa23 f000 	lsr.w	r0, r3, r0
}
  400386:	f000 0001 	and.w	r0, r0, #1
  40038a:	4770      	bx	lr

0040038c <pio_set_pin_high>:
		p_pio = PIOC;
	} else {
		p_pio = (Pio *)((uint32_t)PIOA + (PIO_DELTA * (ul_pin >> 5)));
	}
#else
	p_pio = (Pio *)((uint32_t)PIOA + (PIO_DELTA * (ul_pin >> 5)));
  40038c:	ea4f 1350 	mov.w	r3, r0, lsr #5
  400390:	f503 1300 	add.w	r3, r3, #2097152	; 0x200000
  400394:	f203 7307 	addw	r3, r3, #1799	; 0x707
  400398:	ea4f 2343 	mov.w	r3, r3, lsl #9
#endif
	/* Value to be driven on the I/O line: 1. */
	p_pio->PIO_SODR = 1 << (ul_pin & 0x1F);
  40039c:	f000 001f 	and.w	r0, r0, #31
  4003a0:	f04f 0201 	mov.w	r2, #1
  4003a4:	fa02 f000 	lsl.w	r0, r2, r0
  4003a8:	6318      	str	r0, [r3, #48]	; 0x30
  4003aa:	4770      	bx	lr

004003ac <pio_set_pin_low>:
		p_pio = PIOC;
	} else {
		p_pio = (Pio *)((uint32_t)PIOA + (PIO_DELTA * (ul_pin >> 5)));
	}
#else
	p_pio = (Pio *)((uint32_t)PIOA + (PIO_DELTA * (ul_pin >> 5)));
  4003ac:	ea4f 1350 	mov.w	r3, r0, lsr #5
  4003b0:	f503 1300 	add.w	r3, r3, #2097152	; 0x200000
  4003b4:	f203 7307 	addw	r3, r3, #1799	; 0x707
  4003b8:	ea4f 2343 	mov.w	r3, r3, lsl #9
#endif
	/* Value to be driven on the I/O line: 0. */
	p_pio->PIO_CODR = 1 << (ul_pin & 0x1F);
  4003bc:	f000 001f 	and.w	r0, r0, #31
  4003c0:	f04f 0201 	mov.w	r2, #1
  4003c4:	fa02 f000 	lsl.w	r0, r2, r0
  4003c8:	6358      	str	r0, [r3, #52]	; 0x34
  4003ca:	4770      	bx	lr

004003cc <pio_configure_pin>:
 * \param ul_flags Pins attributes.
 *
 * \return Whether the pin(s) have been configured properly.
 */
uint32_t pio_configure_pin(uint32_t ul_pin, const uint32_t ul_flags)
{
  4003cc:	e92d 41f0 	stmdb	sp!, {r4, r5, r6, r7, r8, lr}
  4003d0:	b082      	sub	sp, #8
  4003d2:	460d      	mov	r5, r1
		p_pio = PIOC;
	} else {
		p_pio = (Pio *)((uint32_t)PIOA + (PIO_DELTA * (ul_pin >> 5)));
	}
#else
	p_pio = (Pio *)((uint32_t)PIOA + (PIO_DELTA * (ul_pin >> 5)));
  4003d4:	ea4f 1650 	mov.w	r6, r0, lsr #5
  4003d8:	f506 1600 	add.w	r6, r6, #2097152	; 0x200000
  4003dc:	f206 7607 	addw	r6, r6, #1799	; 0x707
  4003e0:	ea4f 2646 	mov.w	r6, r6, lsl #9
#endif

	/* Configure pins */
	switch (ul_flags & PIO_TYPE_Msk) {
  4003e4:	f001 44f0 	and.w	r4, r1, #2013265920	; 0x78000000
  4003e8:	f1b4 5f00 	cmp.w	r4, #536870912	; 0x20000000
  4003ec:	d064      	beq.n	4004b8 <pio_configure_pin+0xec>
  4003ee:	d80a      	bhi.n	400406 <pio_configure_pin+0x3a>
  4003f0:	f1b4 5f80 	cmp.w	r4, #268435456	; 0x10000000
  4003f4:	d02c      	beq.n	400450 <pio_configure_pin+0x84>
  4003f6:	f1b4 5fc0 	cmp.w	r4, #402653184	; 0x18000000
  4003fa:	d043      	beq.n	400484 <pio_configure_pin+0xb8>
  4003fc:	f1b4 6f00 	cmp.w	r4, #134217728	; 0x8000000
  400400:	f040 809d 	bne.w	40053e <pio_configure_pin+0x172>
  400404:	e00a      	b.n	40041c <pio_configure_pin+0x50>
  400406:	f1b4 5f40 	cmp.w	r4, #805306368	; 0x30000000
  40040a:	d07e      	beq.n	40050a <pio_configure_pin+0x13e>
  40040c:	f1b4 5f60 	cmp.w	r4, #939524096	; 0x38000000
  400410:	d07b      	beq.n	40050a <pio_configure_pin+0x13e>
  400412:	f1b4 5f20 	cmp.w	r4, #671088640	; 0x28000000
  400416:	f040 8092 	bne.w	40053e <pio_configure_pin+0x172>
  40041a:	e067      	b.n	4004ec <pio_configure_pin+0x120>
	case PIO_TYPE_PIO_PERIPH_A:
		pio_set_peripheral(p_pio, PIO_PERIPH_A, (1 << (ul_pin & 0x1F)));
  40041c:	f000 031f 	and.w	r3, r0, #31
  400420:	f04f 0701 	mov.w	r7, #1
  400424:	fa07 f803 	lsl.w	r8, r7, r3
  400428:	4630      	mov	r0, r6
  40042a:	f04f 6100 	mov.w	r1, #134217728	; 0x8000000
  40042e:	4642      	mov	r2, r8
  400430:	f240 2409 	movw	r4, #521	; 0x209
  400434:	f2c0 0440 	movt	r4, #64	; 0x40
  400438:	47a0      	blx	r4
		pio_pull_up(p_pio, (1 << (ul_pin & 0x1F)),
  40043a:	4630      	mov	r0, r6
  40043c:	4641      	mov	r1, r8
  40043e:	ea05 0207 	and.w	r2, r5, r7
  400442:	f240 13d9 	movw	r3, #473	; 0x1d9
  400446:	f2c0 0340 	movt	r3, #64	; 0x40
  40044a:	4798      	blx	r3

	default:
		return 0;
	}

	return 1;
  40044c:	4638      	mov	r0, r7
	switch (ul_flags & PIO_TYPE_Msk) {
	case PIO_TYPE_PIO_PERIPH_A:
		pio_set_peripheral(p_pio, PIO_PERIPH_A, (1 << (ul_pin & 0x1F)));
		pio_pull_up(p_pio, (1 << (ul_pin & 0x1F)),
				(ul_flags & PIO_PULLUP));
		break;
  40044e:	e078      	b.n	400542 <pio_configure_pin+0x176>
	case PIO_TYPE_PIO_PERIPH_B:
		pio_set_peripheral(p_pio, PIO_PERIPH_B, (1 << (ul_pin & 0x1F)));
  400450:	f000 031f 	and.w	r3, r0, #31
  400454:	f04f 0701 	mov.w	r7, #1
  400458:	fa07 f803 	lsl.w	r8, r7, r3
  40045c:	4630      	mov	r0, r6
  40045e:	f04f 5180 	mov.w	r1, #268435456	; 0x10000000
  400462:	4642      	mov	r2, r8
  400464:	f240 2409 	movw	r4, #521	; 0x209
  400468:	f2c0 0440 	movt	r4, #64	; 0x40
  40046c:	47a0      	blx	r4
		pio_pull_up(p_pio, (1 << (ul_pin & 0x1F)),
  40046e:	4630      	mov	r0, r6
  400470:	4641      	mov	r1, r8
  400472:	ea05 0207 	and.w	r2, r5, r7
  400476:	f240 13d9 	movw	r3, #473	; 0x1d9
  40047a:	f2c0 0340 	movt	r3, #64	; 0x40
  40047e:	4798      	blx	r3

	default:
		return 0;
	}

	return 1;
  400480:	4638      	mov	r0, r7
		break;
	case PIO_TYPE_PIO_PERIPH_B:
		pio_set_peripheral(p_pio, PIO_PERIPH_B, (1 << (ul_pin & 0x1F)));
		pio_pull_up(p_pio, (1 << (ul_pin & 0x1F)),
				(ul_flags & PIO_PULLUP));
		break;
  400482:	e05e      	b.n	400542 <pio_configure_pin+0x176>
#if (SAM3S || SAM3N || SAM4S || SAM4E || SAM4N || SAM4C || SAM4CP)
	case PIO_TYPE_PIO_PERIPH_C:
		pio_set_peripheral(p_pio, PIO_PERIPH_C, (1 << (ul_pin & 0x1F)));
  400484:	f000 031f 	and.w	r3, r0, #31
  400488:	f04f 0701 	mov.w	r7, #1
  40048c:	fa07 f803 	lsl.w	r8, r7, r3
  400490:	4630      	mov	r0, r6
  400492:	f04f 51c0 	mov.w	r1, #402653184	; 0x18000000
  400496:	4642      	mov	r2, r8
  400498:	f240 2409 	movw	r4, #521	; 0x209
  40049c:	f2c0 0440 	movt	r4, #64	; 0x40
  4004a0:	47a0      	blx	r4
		pio_pull_up(p_pio, (1 << (ul_pin & 0x1F)),
  4004a2:	4630      	mov	r0, r6
  4004a4:	4641      	mov	r1, r8
  4004a6:	ea05 0207 	and.w	r2, r5, r7
  4004aa:	f240 13d9 	movw	r3, #473	; 0x1d9
  4004ae:	f2c0 0340 	movt	r3, #64	; 0x40
  4004b2:	4798      	blx	r3

	default:
		return 0;
	}

	return 1;
  4004b4:	4638      	mov	r0, r7
#if (SAM3S || SAM3N || SAM4S || SAM4E || SAM4N || SAM4C || SAM4CP)
	case PIO_TYPE_PIO_PERIPH_C:
		pio_set_peripheral(p_pio, PIO_PERIPH_C, (1 << (ul_pin & 0x1F)));
		pio_pull_up(p_pio, (1 << (ul_pin & 0x1F)),
				(ul_flags & PIO_PULLUP));
		break;
  4004b6:	e044      	b.n	400542 <pio_configure_pin+0x176>
	case PIO_TYPE_PIO_PERIPH_D:
		pio_set_peripheral(p_pio, PIO_PERIPH_D, (1 << (ul_pin & 0x1F)));
  4004b8:	f000 031f 	and.w	r3, r0, #31
  4004bc:	f04f 0701 	mov.w	r7, #1
  4004c0:	fa07 f803 	lsl.w	r8, r7, r3
  4004c4:	4630      	mov	r0, r6
  4004c6:	f04f 5100 	mov.w	r1, #536870912	; 0x20000000
  4004ca:	4642      	mov	r2, r8
  4004cc:	f240 2409 	movw	r4, #521	; 0x209
  4004d0:	f2c0 0440 	movt	r4, #64	; 0x40
  4004d4:	47a0      	blx	r4
		pio_pull_up(p_pio, (1 << (ul_pin & 0x1F)),
  4004d6:	4630      	mov	r0, r6
  4004d8:	4641      	mov	r1, r8
  4004da:	ea05 0207 	and.w	r2, r5, r7
  4004de:	f240 13d9 	movw	r3, #473	; 0x1d9
  4004e2:	f2c0 0340 	movt	r3, #64	; 0x40
  4004e6:	4798      	blx	r3

	default:
		return 0;
	}

	return 1;
  4004e8:	4638      	mov	r0, r7
		break;
	case PIO_TYPE_PIO_PERIPH_D:
		pio_set_peripheral(p_pio, PIO_PERIPH_D, (1 << (ul_pin & 0x1F)));
		pio_pull_up(p_pio, (1 << (ul_pin & 0x1F)),
				(ul_flags & PIO_PULLUP));
		break;
  4004ea:	e02a      	b.n	400542 <pio_configure_pin+0x176>
#endif

	case PIO_TYPE_PIO_INPUT:
		pio_set_input(p_pio, (1 << (ul_pin & 0x1F)), ul_flags);
  4004ec:	f000 011f 	and.w	r1, r0, #31
  4004f0:	f04f 0401 	mov.w	r4, #1
  4004f4:	4630      	mov	r0, r6
  4004f6:	fa04 f101 	lsl.w	r1, r4, r1
  4004fa:	462a      	mov	r2, r5
  4004fc:	f240 3319 	movw	r3, #793	; 0x319
  400500:	f2c0 0340 	movt	r3, #64	; 0x40
  400504:	4798      	blx	r3

	default:
		return 0;
	}

	return 1;
  400506:	4620      	mov	r0, r4
		break;
#endif

	case PIO_TYPE_PIO_INPUT:
		pio_set_input(p_pio, (1 << (ul_pin & 0x1F)), ul_flags);
		break;
  400508:	e01b      	b.n	400542 <pio_configure_pin+0x176>

	case PIO_TYPE_PIO_OUTPUT_0:
	case PIO_TYPE_PIO_OUTPUT_1:
		pio_set_output(p_pio, (1 << (ul_pin & 0x1F)),
  40050a:	f000 031f 	and.w	r3, r0, #31
  40050e:	f04f 0701 	mov.w	r7, #1
				((ul_flags & PIO_TYPE_PIO_OUTPUT_1)
  400512:	f005 5260 	and.w	r2, r5, #939524096	; 0x38000000
		pio_set_input(p_pio, (1 << (ul_pin & 0x1F)), ul_flags);
		break;

	case PIO_TYPE_PIO_OUTPUT_0:
	case PIO_TYPE_PIO_OUTPUT_1:
		pio_set_output(p_pio, (1 << (ul_pin & 0x1F)),
  400516:	ea05 0107 	and.w	r1, r5, r7
  40051a:	9100      	str	r1, [sp, #0]
  40051c:	4630      	mov	r0, r6
  40051e:	fa07 f103 	lsl.w	r1, r7, r3
  400522:	f1b2 5f60 	cmp.w	r2, #939524096	; 0x38000000
  400526:	bf14      	ite	ne
  400528:	2200      	movne	r2, #0
  40052a:	2201      	moveq	r2, #1
  40052c:	f3c5 0380 	ubfx	r3, r5, #2, #1
  400530:	f240 24d5 	movw	r4, #725	; 0x2d5
  400534:	f2c0 0440 	movt	r4, #64	; 0x40
  400538:	47a0      	blx	r4

	default:
		return 0;
	}

	return 1;
  40053a:	4638      	mov	r0, r7
		pio_set_output(p_pio, (1 << (ul_pin & 0x1F)),
				((ul_flags & PIO_TYPE_PIO_OUTPUT_1)
				== PIO_TYPE_PIO_OUTPUT_1) ? 1 : 0,
				(ul_flags & PIO_OPENDRAIN) ? 1 : 0,
				(ul_flags & PIO_PULLUP) ? 1 : 0);
		break;
  40053c:	e001      	b.n	400542 <pio_configure_pin+0x176>

	default:
		return 0;
  40053e:	f04f 0000 	mov.w	r0, #0
	}

	return 1;
}
  400542:	b002      	add	sp, #8
  400544:	e8bd 81f0 	ldmia.w	sp!, {r4, r5, r6, r7, r8, pc}

00400548 <pio_handler_process>:
 *
 * \param p_pio PIO controller base address.
 * \param ul_id PIO controller ID.
 */
void pio_handler_process(Pio *p_pio, uint32_t ul_id)
{
  400548:	e92d 41f0 	stmdb	sp!, {r4, r5, r6, r7, r8, lr}
  40054c:	4680      	mov	r8, r0
  40054e:	460e      	mov	r6, r1
	uint32_t status;
	uint32_t i;

	/* Read PIO controller status */
	status = pio_get_interrupt_status(p_pio);
  400550:	f240 3365 	movw	r3, #869	; 0x365
  400554:	f2c0 0340 	movt	r3, #64	; 0x40
  400558:	4798      	blx	r3
  40055a:	4605      	mov	r5, r0
	status &= pio_get_interrupt_mask(p_pio);
  40055c:	4640      	mov	r0, r8
  40055e:	f240 3369 	movw	r3, #873	; 0x369
  400562:	f2c0 0340 	movt	r3, #64	; 0x40
  400566:	4798      	blx	r3

	/* Check pending events */
	if (status != 0) {
  400568:	4005      	ands	r5, r0
  40056a:	d014      	beq.n	400596 <pio_handler_process+0x4e>
  40056c:	4c12      	ldr	r4, [pc, #72]	; (4005b8 <pio_handler_process+0x70>)
 * \brief Process an interrupt request on the given PIO controller.
 *
 * \param p_pio PIO controller base address.
 * \param ul_id PIO controller ID.
 */
void pio_handler_process(Pio *p_pio, uint32_t ul_id)
  40056e:	4627      	mov	r7, r4
	if (status != 0) {
		/* Find triggering source */
		i = 0;
		while (status != 0) {
			/* Source is configured on the same controller */
			if (gs_interrupt_sources[i].id == ul_id) {
  400570:	f854 3c0c 	ldr.w	r3, [r4, #-12]
  400574:	42b3      	cmp	r3, r6
  400576:	d10a      	bne.n	40058e <pio_handler_process+0x46>
				/* Source has PIOs whose statuses have changed */
				if ((status & gs_interrupt_sources[i].mask) != 0) {
  400578:	f854 1c08 	ldr.w	r1, [r4, #-8]
  40057c:	4229      	tst	r1, r5
  40057e:	d006      	beq.n	40058e <pio_handler_process+0x46>
					gs_interrupt_sources[i].handler(gs_interrupt_sources[i].id,
  400580:	6823      	ldr	r3, [r4, #0]
  400582:	4630      	mov	r0, r6
  400584:	4798      	blx	r3
							gs_interrupt_sources[i].mask);
					status &= ~(gs_interrupt_sources[i].mask);
  400586:	f854 3c08 	ldr.w	r3, [r4, #-8]
  40058a:	ea25 0503 	bic.w	r5, r5, r3
  40058e:	f104 0410 	add.w	r4, r4, #16

	/* Check pending events */
	if (status != 0) {
		/* Find triggering source */
		i = 0;
		while (status != 0) {
  400592:	2d00      	cmp	r5, #0
  400594:	d1eb      	bne.n	40056e <pio_handler_process+0x26>
		}
	}

	/* Check capture events */
#if (SAM3S || SAM4S || SAM4E)
	if (pio_capture_enable_flag) {
  400596:	f244 7398 	movw	r3, #18328	; 0x4798
  40059a:	f2c2 0300 	movt	r3, #8192	; 0x2000
  40059e:	681b      	ldr	r3, [r3, #0]
  4005a0:	b13b      	cbz	r3, 4005b2 <pio_handler_process+0x6a>
		if (pio_capture_handler) {
  4005a2:	f241 3340 	movw	r3, #4928	; 0x1340
  4005a6:	f2c2 0300 	movt	r3, #8192	; 0x2000
  4005aa:	681b      	ldr	r3, [r3, #0]
  4005ac:	b10b      	cbz	r3, 4005b2 <pio_handler_process+0x6a>
			pio_capture_handler(p_pio);
  4005ae:	4640      	mov	r0, r8
  4005b0:	4798      	blx	r3
  4005b2:	e8bd 81f0 	ldmia.w	sp!, {r4, r5, r6, r7, r8, pc}
  4005b6:	bf00      	nop
  4005b8:	20001350 	.word	0x20001350

004005bc <pio_handler_set>:
 *
 * \return 0 if successful, 1 if the maximum number of sources has been defined.
 */
uint32_t pio_handler_set(Pio *p_pio, uint32_t ul_id, uint32_t ul_mask,
		uint32_t ul_attr, void (*p_handler) (uint32_t, uint32_t))
{
  4005bc:	b5f8      	push	{r3, r4, r5, r6, r7, lr}
	struct s_interrupt_source *pSource;

	if (gs_ul_nb_sources >= MAX_INTERRUPT_SOURCES)
  4005be:	f241 343c 	movw	r4, #4924	; 0x133c
  4005c2:	f2c2 0400 	movt	r4, #8192	; 0x2000
  4005c6:	6824      	ldr	r4, [r4, #0]
  4005c8:	2c06      	cmp	r4, #6
  4005ca:	d81c      	bhi.n	400606 <pio_handler_set+0x4a>
		return 1;

	/* Define new source */
	pSource = &(gs_interrupt_sources[gs_ul_nb_sources]);
  4005cc:	f241 3544 	movw	r5, #4932	; 0x1344
  4005d0:	f2c2 0500 	movt	r5, #8192	; 0x2000
  4005d4:	ea4f 1704 	mov.w	r7, r4, lsl #4
  4005d8:	19ee      	adds	r6, r5, r7
	pSource->id = ul_id;
  4005da:	51e9      	str	r1, [r5, r7]
	pSource->mask = ul_mask;
  4005dc:	6072      	str	r2, [r6, #4]
	pSource->attr = ul_attr;
  4005de:	60b3      	str	r3, [r6, #8]
	pSource->handler = p_handler;
  4005e0:	9906      	ldr	r1, [sp, #24]
  4005e2:	60f1      	str	r1, [r6, #12]
	gs_ul_nb_sources++;
  4005e4:	f241 313c 	movw	r1, #4924	; 0x133c
  4005e8:	f2c2 0100 	movt	r1, #8192	; 0x2000
  4005ec:	f104 0401 	add.w	r4, r4, #1
  4005f0:	600c      	str	r4, [r1, #0]

	/* Configure interrupt mode */
	pio_configure_interrupt(p_pio, ul_mask, ul_attr);
  4005f2:	4611      	mov	r1, r2
  4005f4:	461a      	mov	r2, r3
  4005f6:	f240 2399 	movw	r3, #665	; 0x299
  4005fa:	f2c0 0340 	movt	r3, #64	; 0x40
  4005fe:	4798      	blx	r3

	return 0;
  400600:	f04f 0000 	mov.w	r0, #0
  400604:	bdf8      	pop	{r3, r4, r5, r6, r7, pc}
		uint32_t ul_attr, void (*p_handler) (uint32_t, uint32_t))
{
	struct s_interrupt_source *pSource;

	if (gs_ul_nb_sources >= MAX_INTERRUPT_SOURCES)
		return 1;
  400606:	f04f 0001 	mov.w	r0, #1

	/* Configure interrupt mode */
	pio_configure_interrupt(p_pio, ul_mask, ul_attr);

	return 0;
}
  40060a:	bdf8      	pop	{r3, r4, r5, r6, r7, pc}

0040060c <PIOA_Handler>:
/**
 * \brief Parallel IO Controller A interrupt handler.
 * Redefined PIOA interrupt handler for NVIC interrupt table.
 */
void PIOA_Handler(void)
{
  40060c:	b508      	push	{r3, lr}
	pio_handler_process(PIOA, ID_PIOA);
  40060e:	f44f 6060 	mov.w	r0, #3584	; 0xe00
  400612:	f2c4 000e 	movt	r0, #16398	; 0x400e
  400616:	f04f 010b 	mov.w	r1, #11
  40061a:	f240 5349 	movw	r3, #1353	; 0x549
  40061e:	f2c0 0340 	movt	r3, #64	; 0x40
  400622:	4798      	blx	r3
  400624:	bd08      	pop	{r3, pc}
  400626:	bf00      	nop

00400628 <PIOB_Handler>:
/**
 * \brief Parallel IO Controller B interrupt handler
 * Redefined PIOB interrupt handler for NVIC interrupt table.
 */
void PIOB_Handler(void)
{
  400628:	b508      	push	{r3, lr}
    pio_handler_process(PIOB, ID_PIOB);
  40062a:	f44f 5080 	mov.w	r0, #4096	; 0x1000
  40062e:	f2c4 000e 	movt	r0, #16398	; 0x400e
  400632:	f04f 010c 	mov.w	r1, #12
  400636:	f240 5349 	movw	r3, #1353	; 0x549
  40063a:	f2c0 0340 	movt	r3, #64	; 0x40
  40063e:	4798      	blx	r3
  400640:	bd08      	pop	{r3, pc}
  400642:	bf00      	nop

00400644 <pio_handler_set_priority>:
 * \param p_pio PIO controller base address.
 * \param ul_irqn NVIC line number.
 * \param ul_priority PIO controller interrupts priority.
 */
void pio_handler_set_priority(Pio *p_pio, IRQn_Type ul_irqn, uint32_t ul_priority)
{
  400644:	e92d 41f0 	stmdb	sp!, {r4, r5, r6, r7, r8, lr}
  400648:	4605      	mov	r5, r0
  40064a:	460c      	mov	r4, r1
  40064c:	4617      	mov	r7, r2
	uint32_t bitmask = 0;

	bitmask = pio_get_interrupt_mask(p_pio);
  40064e:	f240 3369 	movw	r3, #873	; 0x369
  400652:	f2c0 0340 	movt	r3, #64	; 0x40
  400656:	4798      	blx	r3
  400658:	4680      	mov	r8, r0
	pio_disable_interrupt(p_pio, 0xFFFFFFFF);
  40065a:	4628      	mov	r0, r5
  40065c:	f04f 31ff 	mov.w	r1, #4294967295	; 0xffffffff
  400660:	f240 23d1 	movw	r3, #721	; 0x2d1
  400664:	f2c0 0340 	movt	r3, #64	; 0x40
  400668:	4798      	blx	r3
	pio_get_interrupt_status(p_pio);
  40066a:	4628      	mov	r0, r5
  40066c:	f240 3365 	movw	r3, #869	; 0x365
  400670:	f2c0 0340 	movt	r3, #64	; 0x40
  400674:	4798      	blx	r3

    \param [in]      IRQn  Number of the external interrupt to disable
 */
static __INLINE void NVIC_DisableIRQ(IRQn_Type IRQn)
{
  NVIC->ICER[((uint32_t)(IRQn) >> 5)] = (1 << ((uint32_t)(IRQn) & 0x1F)); /* disable interrupt */
  400676:	ea4f 1354 	mov.w	r3, r4, lsr #5
  40067a:	f004 021f 	and.w	r2, r4, #31
  40067e:	f04f 0601 	mov.w	r6, #1
  400682:	fa06 f602 	lsl.w	r6, r6, r2
  400686:	f44f 4261 	mov.w	r2, #57600	; 0xe100
  40068a:	f2ce 0200 	movt	r2, #57344	; 0xe000
  40068e:	f103 0120 	add.w	r1, r3, #32
  400692:	f842 6021 	str.w	r6, [r2, r1, lsl #2]

    \param [in]      IRQn  Number of the interrupt for clear pending
 */
static __INLINE void NVIC_ClearPendingIRQ(IRQn_Type IRQn)
{
  NVIC->ICPR[((uint32_t)(IRQn) >> 5)] = (1 << ((uint32_t)(IRQn) & 0x1F)); /* Clear pending interrupt */
  400696:	f103 0160 	add.w	r1, r3, #96	; 0x60
  40069a:	f842 6021 	str.w	r6, [r2, r1, lsl #2]
    \param [in]      IRQn  Number of the interrupt for set priority
    \param [in]  priority  Priority to set
 */
static __INLINE void NVIC_SetPriority(IRQn_Type IRQn, uint32_t priority)
{
  if(IRQn < 0) {
  40069e:	2c00      	cmp	r4, #0
  4006a0:	da0b      	bge.n	4006ba <pio_handler_set_priority+0x76>
    SCB->SHP[((uint32_t)(IRQn) & 0xF)-4] = ((priority << (8 - __NVIC_PRIO_BITS)) & 0xff); } /* set Priority for Cortex-M  System Interrupts */
  4006a2:	f004 040f 	and.w	r4, r4, #15
  4006a6:	ea4f 1707 	mov.w	r7, r7, lsl #4
  4006aa:	b2ff      	uxtb	r7, r7
  4006ac:	f64e 42fc 	movw	r2, #60668	; 0xecfc
  4006b0:	f2ce 0200 	movt	r2, #57344	; 0xe000
  4006b4:	18a2      	adds	r2, r4, r2
  4006b6:	7617      	strb	r7, [r2, #24]
  4006b8:	e008      	b.n	4006cc <pio_handler_set_priority+0x88>
  else {
    NVIC->IP[(uint32_t)(IRQn)] = ((priority << (8 - __NVIC_PRIO_BITS)) & 0xff);    }        /* set Priority for device specific Interrupts  */
  4006ba:	ea4f 1707 	mov.w	r7, r7, lsl #4
  4006be:	b2ff      	uxtb	r7, r7
  4006c0:	f104 4460 	add.w	r4, r4, #3758096384	; 0xe0000000
  4006c4:	f504 4461 	add.w	r4, r4, #57600	; 0xe100
  4006c8:	f884 7300 	strb.w	r7, [r4, #768]	; 0x300
    \param [in]      IRQn  Number of the external interrupt to enable
 */
static __INLINE void NVIC_EnableIRQ(IRQn_Type IRQn)
{
/*  NVIC->ISER[((uint32_t)(IRQn) >> 5)] = (1 << ((uint32_t)(IRQn) & 0x1F));  enable interrupt */
  NVIC->ISER[(uint32_t)((int32_t)IRQn) >> 5] = (uint32_t)(1 << ((uint32_t)((int32_t)IRQn) & (uint32_t)0x1F)); /* enable interrupt */
  4006cc:	f44f 4261 	mov.w	r2, #57600	; 0xe100
  4006d0:	f2ce 0200 	movt	r2, #57344	; 0xe000
  4006d4:	f842 6023 	str.w	r6, [r2, r3, lsl #2]
	NVIC_DisableIRQ(ul_irqn);
	NVIC_ClearPendingIRQ(ul_irqn);
	NVIC_SetPriority(ul_irqn, ul_priority);
	NVIC_EnableIRQ(ul_irqn);
	pio_enable_interrupt(p_pio, bitmask);
  4006d8:	4628      	mov	r0, r5
  4006da:	4641      	mov	r1, r8
  4006dc:	f240 23c9 	movw	r3, #713	; 0x2c9
  4006e0:	f2c0 0340 	movt	r3, #64	; 0x40
  4006e4:	4798      	blx	r3
  4006e6:	e8bd 81f0 	ldmia.w	sp!, {r4, r5, r6, r7, r8, pc}
  4006ea:	bf00      	nop

004006ec <pmc_switch_mck_to_mainck>:
 */
uint32_t pmc_switch_mck_to_mainck(uint32_t ul_pres)
{
	uint32_t ul_timeout;

	PMC->PMC_MCKR = (PMC->PMC_MCKR & (~PMC_MCKR_CSS_Msk)) |
  4006ec:	f44f 6380 	mov.w	r3, #1024	; 0x400
  4006f0:	f2c4 030e 	movt	r3, #16398	; 0x400e
  4006f4:	6b1a      	ldr	r2, [r3, #48]	; 0x30
  4006f6:	f022 0203 	bic.w	r2, r2, #3
  4006fa:	f042 0201 	orr.w	r2, r2, #1
  4006fe:	631a      	str	r2, [r3, #48]	; 0x30
			PMC_MCKR_CSS_MAIN_CLK;
	for (ul_timeout = PMC_TIMEOUT; !(PMC->PMC_SR & PMC_SR_MCKRDY);
  400700:	6e9b      	ldr	r3, [r3, #104]	; 0x68
  400702:	f013 0f08 	tst.w	r3, #8
  400706:	bf02      	ittt	eq
  400708:	f44f 6300 	moveq.w	r3, #2048	; 0x800
  40070c:	f44f 6180 	moveq.w	r1, #1024	; 0x400
  400710:	f2c4 010e 	movteq	r1, #16398	; 0x400e
  400714:	d003      	beq.n	40071e <pmc_switch_mck_to_mainck+0x32>
  400716:	e006      	b.n	400726 <pmc_switch_mck_to_mainck+0x3a>
			--ul_timeout) {
		if (ul_timeout == 0) {
  400718:	3b01      	subs	r3, #1
  40071a:	d100      	bne.n	40071e <pmc_switch_mck_to_mainck+0x32>
  40071c:	e024      	b.n	400768 <pmc_switch_mck_to_mainck+0x7c>
{
	uint32_t ul_timeout;

	PMC->PMC_MCKR = (PMC->PMC_MCKR & (~PMC_MCKR_CSS_Msk)) |
			PMC_MCKR_CSS_MAIN_CLK;
	for (ul_timeout = PMC_TIMEOUT; !(PMC->PMC_SR & PMC_SR_MCKRDY);
  40071e:	6e8a      	ldr	r2, [r1, #104]	; 0x68
  400720:	f012 0f08 	tst.w	r2, #8
  400724:	d0f8      	beq.n	400718 <pmc_switch_mck_to_mainck+0x2c>
		if (ul_timeout == 0) {
			return 1;
		}
	}

	PMC->PMC_MCKR = (PMC->PMC_MCKR & (~PMC_MCKR_PRES_Msk)) | ul_pres;
  400726:	f44f 6380 	mov.w	r3, #1024	; 0x400
  40072a:	f2c4 030e 	movt	r3, #16398	; 0x400e
  40072e:	6b1a      	ldr	r2, [r3, #48]	; 0x30
  400730:	f022 0270 	bic.w	r2, r2, #112	; 0x70
  400734:	4310      	orrs	r0, r2
  400736:	6318      	str	r0, [r3, #48]	; 0x30
	for (ul_timeout = PMC_TIMEOUT; !(PMC->PMC_SR & PMC_SR_MCKRDY);
  400738:	6e9b      	ldr	r3, [r3, #104]	; 0x68
  40073a:	f013 0f08 	tst.w	r3, #8
  40073e:	bf02      	ittt	eq
  400740:	f44f 6300 	moveq.w	r3, #2048	; 0x800
  400744:	f44f 6180 	moveq.w	r1, #1024	; 0x400
  400748:	f2c4 010e 	movteq	r1, #16398	; 0x400e
  40074c:	d005      	beq.n	40075a <pmc_switch_mck_to_mainck+0x6e>
		if (ul_timeout == 0) {
			return 1;
		}
	}

	return 0;
  40074e:	f04f 0000 	mov.w	r0, #0
  400752:	4770      	bx	lr
	}

	PMC->PMC_MCKR = (PMC->PMC_MCKR & (~PMC_MCKR_PRES_Msk)) | ul_pres;
	for (ul_timeout = PMC_TIMEOUT; !(PMC->PMC_SR & PMC_SR_MCKRDY);
			--ul_timeout) {
		if (ul_timeout == 0) {
  400754:	3b01      	subs	r3, #1
  400756:	d100      	bne.n	40075a <pmc_switch_mck_to_mainck+0x6e>
  400758:	e009      	b.n	40076e <pmc_switch_mck_to_mainck+0x82>
			return 1;
		}
	}

	PMC->PMC_MCKR = (PMC->PMC_MCKR & (~PMC_MCKR_PRES_Msk)) | ul_pres;
	for (ul_timeout = PMC_TIMEOUT; !(PMC->PMC_SR & PMC_SR_MCKRDY);
  40075a:	6e8a      	ldr	r2, [r1, #104]	; 0x68
  40075c:	f012 0f08 	tst.w	r2, #8
  400760:	d0f8      	beq.n	400754 <pmc_switch_mck_to_mainck+0x68>
		if (ul_timeout == 0) {
			return 1;
		}
	}

	return 0;
  400762:	f04f 0000 	mov.w	r0, #0
  400766:	4770      	bx	lr
	PMC->PMC_MCKR = (PMC->PMC_MCKR & (~PMC_MCKR_CSS_Msk)) |
			PMC_MCKR_CSS_MAIN_CLK;
	for (ul_timeout = PMC_TIMEOUT; !(PMC->PMC_SR & PMC_SR_MCKRDY);
			--ul_timeout) {
		if (ul_timeout == 0) {
			return 1;
  400768:	f04f 0001 	mov.w	r0, #1
  40076c:	4770      	bx	lr

	PMC->PMC_MCKR = (PMC->PMC_MCKR & (~PMC_MCKR_PRES_Msk)) | ul_pres;
	for (ul_timeout = PMC_TIMEOUT; !(PMC->PMC_SR & PMC_SR_MCKRDY);
			--ul_timeout) {
		if (ul_timeout == 0) {
			return 1;
  40076e:	f04f 0001 	mov.w	r0, #1
		}
	}

	return 0;
}
  400772:	4770      	bx	lr

00400774 <pmc_switch_sclk_to_32kxtal>:
 * \param ul_bypass 0 for Xtal, 1 for bypass.
 */
void pmc_switch_sclk_to_32kxtal(uint32_t ul_bypass)
{
	/* Set Bypass mode if required */
	if (ul_bypass == 1) {
  400774:	2801      	cmp	r0, #1
  400776:	d109      	bne.n	40078c <pmc_switch_sclk_to_32kxtal+0x18>
		SUPC->SUPC_MR |= SUPC_MR_KEY_PASSWD |
  400778:	f241 4310 	movw	r3, #5136	; 0x1410
  40077c:	f2c4 030e 	movt	r3, #16398	; 0x400e
  400780:	689a      	ldr	r2, [r3, #8]
  400782:	f042 4225 	orr.w	r2, r2, #2768240640	; 0xa5000000
  400786:	f442 1280 	orr.w	r2, r2, #1048576	; 0x100000
  40078a:	609a      	str	r2, [r3, #8]
			SUPC_MR_OSCBYPASS;
	}

	SUPC->SUPC_CR = SUPC_CR_KEY_PASSWD | SUPC_CR_XTALSEL;
  40078c:	f241 4310 	movw	r3, #5136	; 0x1410
  400790:	f2c4 030e 	movt	r3, #16398	; 0x400e
  400794:	f04f 0208 	mov.w	r2, #8
  400798:	f2ca 5200 	movt	r2, #42240	; 0xa500
  40079c:	601a      	str	r2, [r3, #0]
  40079e:	4770      	bx	lr

004007a0 <pmc_osc_is_ready_32kxtal>:
 * \retval 1 External 32k Xtal is ready.
 * \retval 0 External 32k Xtal is not ready.
 */
uint32_t pmc_osc_is_ready_32kxtal(void)
{
	return ((SUPC->SUPC_SR & SUPC_SR_OSCSEL)
  4007a0:	f241 4310 	movw	r3, #5136	; 0x1410
  4007a4:	f2c4 030e 	movt	r3, #16398	; 0x400e
  4007a8:	695b      	ldr	r3, [r3, #20]
			&& (PMC->PMC_SR & PMC_SR_OSCSELS));
  4007aa:	f013 0f80 	tst.w	r3, #128	; 0x80
  4007ae:	bf1f      	itttt	ne
  4007b0:	f44f 6380 	movne.w	r3, #1024	; 0x400
  4007b4:	f2c4 030e 	movtne	r3, #16398	; 0x400e
  4007b8:	6e98      	ldrne	r0, [r3, #104]	; 0x68
  4007ba:	f3c0 10c0 	ubfxne	r0, r0, #7, #1
  4007be:	bf08      	it	eq
  4007c0:	2000      	moveq	r0, #0
}
  4007c2:	4770      	bx	lr

004007c4 <pmc_switch_mainck_to_fastrc>:
void pmc_switch_mainck_to_fastrc(uint32_t ul_moscrcf)
{
	uint32_t ul_needXTEN = 0;

	/* Enable Fast RC oscillator but DO NOT switch to RC now */
	if (PMC->CKGR_MOR & CKGR_MOR_MOSCXTEN) {
  4007c4:	f44f 6380 	mov.w	r3, #1024	; 0x400
  4007c8:	f2c4 030e 	movt	r3, #16398	; 0x400e
  4007cc:	6a1b      	ldr	r3, [r3, #32]
  4007ce:	f013 0f01 	tst.w	r3, #1
  4007d2:	d011      	beq.n	4007f8 <pmc_switch_mainck_to_fastrc+0x34>
		PMC->CKGR_MOR = (PMC->CKGR_MOR & ~CKGR_MOR_MOSCRCF_Msk) |
  4007d4:	f44f 6280 	mov.w	r2, #1024	; 0x400
  4007d8:	f2c4 020e 	movt	r2, #16398	; 0x400e
  4007dc:	6a13      	ldr	r3, [r2, #32]
				CKGR_MOR_KEY_PASSWD | CKGR_MOR_MOSCRCEN |
  4007de:	f423 135c 	bic.w	r3, r3, #3604480	; 0x370000
  4007e2:	f023 0378 	bic.w	r3, r3, #120	; 0x78
  4007e6:	f443 135c 	orr.w	r3, r3, #3604480	; 0x370000
  4007ea:	f043 0308 	orr.w	r3, r3, #8
  4007ee:	4318      	orrs	r0, r3
{
	uint32_t ul_needXTEN = 0;

	/* Enable Fast RC oscillator but DO NOT switch to RC now */
	if (PMC->CKGR_MOR & CKGR_MOR_MOSCXTEN) {
		PMC->CKGR_MOR = (PMC->CKGR_MOR & ~CKGR_MOR_MOSCRCF_Msk) |
  4007f0:	6210      	str	r0, [r2, #32]
 * \retval 1 Timeout error.
 * \retval 2 Invalid frequency.
 */
void pmc_switch_mainck_to_fastrc(uint32_t ul_moscrcf)
{
	uint32_t ul_needXTEN = 0;
  4007f2:	f04f 0100 	mov.w	r1, #0
  4007f6:	e012      	b.n	40081e <pmc_switch_mainck_to_fastrc+0x5a>
		PMC->CKGR_MOR = (PMC->CKGR_MOR & ~CKGR_MOR_MOSCRCF_Msk) |
				CKGR_MOR_KEY_PASSWD | CKGR_MOR_MOSCRCEN |
				ul_moscrcf;
	} else {
		ul_needXTEN = 1;
		PMC->CKGR_MOR = (PMC->CKGR_MOR & ~CKGR_MOR_MOSCRCF_Msk) |
  4007f8:	f44f 6180 	mov.w	r1, #1024	; 0x400
  4007fc:	f2c4 010e 	movt	r1, #16398	; 0x400e
  400800:	6a0b      	ldr	r3, [r1, #32]
				CKGR_MOR_KEY_PASSWD | CKGR_MOR_MOSCRCEN |
				CKGR_MOR_MOSCXTEN | CKGR_MOR_MOSCXTST_Msk |
  400802:	f04f 0286 	mov.w	r2, #134	; 0x86
  400806:	f6cf 72c8 	movt	r2, #65480	; 0xffc8
  40080a:	401a      	ands	r2, r3
  40080c:	f64f 7309 	movw	r3, #65289	; 0xff09
  400810:	f2c0 0337 	movt	r3, #55	; 0x37
  400814:	4313      	orrs	r3, r2
  400816:	4303      	orrs	r3, r0
		PMC->CKGR_MOR = (PMC->CKGR_MOR & ~CKGR_MOR_MOSCRCF_Msk) |
				CKGR_MOR_KEY_PASSWD | CKGR_MOR_MOSCRCEN |
				ul_moscrcf;
	} else {
		ul_needXTEN = 1;
		PMC->CKGR_MOR = (PMC->CKGR_MOR & ~CKGR_MOR_MOSCRCF_Msk) |
  400818:	620b      	str	r3, [r1, #32]
	if (PMC->CKGR_MOR & CKGR_MOR_MOSCXTEN) {
		PMC->CKGR_MOR = (PMC->CKGR_MOR & ~CKGR_MOR_MOSCRCF_Msk) |
				CKGR_MOR_KEY_PASSWD | CKGR_MOR_MOSCRCEN |
				ul_moscrcf;
	} else {
		ul_needXTEN = 1;
  40081a:	f04f 0101 	mov.w	r1, #1
				CKGR_MOR_MOSCXTEN | CKGR_MOR_MOSCXTST_Msk |
				ul_moscrcf;
	}

	/* Wait the Fast RC to stabilize */
	while (!(PMC->PMC_SR & PMC_SR_MOSCRCS));
  40081e:	f44f 6280 	mov.w	r2, #1024	; 0x400
  400822:	f2c4 020e 	movt	r2, #16398	; 0x400e
  400826:	6e93      	ldr	r3, [r2, #104]	; 0x68
  400828:	f413 3f00 	tst.w	r3, #131072	; 0x20000
  40082c:	d0fb      	beq.n	400826 <pmc_switch_mainck_to_fastrc+0x62>

	/* Switch to Fast RC */
	PMC->CKGR_MOR = (PMC->CKGR_MOR & ~CKGR_MOR_MOSCSEL) |
  40082e:	f44f 6380 	mov.w	r3, #1024	; 0x400
  400832:	f2c4 030e 	movt	r3, #16398	; 0x400e
  400836:	6a1a      	ldr	r2, [r3, #32]
  400838:	f022 729b 	bic.w	r2, r2, #20316160	; 0x1360000
  40083c:	f442 125c 	orr.w	r2, r2, #3604480	; 0x370000
  400840:	621a      	str	r2, [r3, #32]
			CKGR_MOR_KEY_PASSWD;

	/* Disable xtal oscillator */
	if (ul_needXTEN) {
  400842:	b159      	cbz	r1, 40085c <pmc_switch_mainck_to_fastrc+0x98>
		PMC->CKGR_MOR = (PMC->CKGR_MOR & ~CKGR_MOR_MOSCXTEN) |
  400844:	f44f 6380 	mov.w	r3, #1024	; 0x400
  400848:	f2c4 030e 	movt	r3, #16398	; 0x400e
  40084c:	6a1a      	ldr	r2, [r3, #32]
  40084e:	f422 125c 	bic.w	r2, r2, #3604480	; 0x370000
  400852:	f022 0201 	bic.w	r2, r2, #1
  400856:	f442 125c 	orr.w	r2, r2, #3604480	; 0x370000
  40085a:	621a      	str	r2, [r3, #32]
  40085c:	4770      	bx	lr
  40085e:	bf00      	nop

00400860 <pmc_osc_is_ready_mainck>:
 * \retval 1 Xtal is ready.
 * \retval 0 Xtal is not ready.
 */
uint32_t pmc_osc_is_ready_mainck(void)
{
	return PMC->PMC_SR & PMC_SR_MOSCSELS;
  400860:	f44f 6380 	mov.w	r3, #1024	; 0x400
  400864:	f2c4 030e 	movt	r3, #16398	; 0x400e
  400868:	6e98      	ldr	r0, [r3, #104]	; 0x68
}
  40086a:	f400 3080 	and.w	r0, r0, #65536	; 0x10000
  40086e:	4770      	bx	lr

00400870 <pmc_enable_periph_clk>:
 * \retval 0 Success.
 * \retval 1 Invalid parameter.
 */
uint32_t pmc_enable_periph_clk(uint32_t ul_id)
{
	if (ul_id > MAX_PERIPH_ID) {
  400870:	2822      	cmp	r0, #34	; 0x22
  400872:	d835      	bhi.n	4008e0 <pmc_enable_periph_clk+0x70>
		return 1;
	}

	if (ul_id < 32) {
  400874:	281f      	cmp	r0, #31
  400876:	d817      	bhi.n	4008a8 <pmc_enable_periph_clk+0x38>
		if ((PMC->PMC_PCSR0 & (1u << ul_id)) != (1u << ul_id)) {
  400878:	f44f 6380 	mov.w	r3, #1024	; 0x400
  40087c:	f2c4 030e 	movt	r3, #16398	; 0x400e
  400880:	699a      	ldr	r2, [r3, #24]
  400882:	f04f 0301 	mov.w	r3, #1
  400886:	fa03 f300 	lsl.w	r3, r3, r0
  40088a:	401a      	ands	r2, r3
  40088c:	4293      	cmp	r3, r2
  40088e:	d02a      	beq.n	4008e6 <pmc_enable_periph_clk+0x76>
			PMC->PMC_PCER0 = 1 << ul_id;
  400890:	f04f 0301 	mov.w	r3, #1
  400894:	fa03 f000 	lsl.w	r0, r3, r0
  400898:	f44f 6380 	mov.w	r3, #1024	; 0x400
  40089c:	f2c4 030e 	movt	r3, #16398	; 0x400e
  4008a0:	6118      	str	r0, [r3, #16]
			PMC->PMC_PCER1 = 1 << ul_id;
		}
#endif
	}

	return 0;
  4008a2:	f04f 0000 	mov.w	r0, #0
  4008a6:	4770      	bx	lr
			PMC->PMC_PCER0 = 1 << ul_id;
		}
#if (SAM3S || SAM3XA || SAM4S || SAM4E || SAM4C || SAM4CP)
	} else {
		ul_id -= 32;
		if ((PMC->PMC_PCSR1 & (1u << ul_id)) != (1u << ul_id)) {
  4008a8:	f44f 6380 	mov.w	r3, #1024	; 0x400
  4008ac:	f2c4 030e 	movt	r3, #16398	; 0x400e
  4008b0:	f8d3 2108 	ldr.w	r2, [r3, #264]	; 0x108
		if ((PMC->PMC_PCSR0 & (1u << ul_id)) != (1u << ul_id)) {
			PMC->PMC_PCER0 = 1 << ul_id;
		}
#if (SAM3S || SAM3XA || SAM4S || SAM4E || SAM4C || SAM4CP)
	} else {
		ul_id -= 32;
  4008b4:	f1a0 0020 	sub.w	r0, r0, #32
		if ((PMC->PMC_PCSR1 & (1u << ul_id)) != (1u << ul_id)) {
  4008b8:	f04f 0301 	mov.w	r3, #1
  4008bc:	fa03 f300 	lsl.w	r3, r3, r0
  4008c0:	401a      	ands	r2, r3
  4008c2:	4293      	cmp	r3, r2
  4008c4:	d012      	beq.n	4008ec <pmc_enable_periph_clk+0x7c>
			PMC->PMC_PCER1 = 1 << ul_id;
  4008c6:	f04f 0301 	mov.w	r3, #1
  4008ca:	fa03 f000 	lsl.w	r0, r3, r0
  4008ce:	f44f 6380 	mov.w	r3, #1024	; 0x400
  4008d2:	f2c4 030e 	movt	r3, #16398	; 0x400e
  4008d6:	f8c3 0100 	str.w	r0, [r3, #256]	; 0x100
		}
#endif
	}

	return 0;
  4008da:	f04f 0000 	mov.w	r0, #0
  4008de:	4770      	bx	lr
 * \retval 1 Invalid parameter.
 */
uint32_t pmc_enable_periph_clk(uint32_t ul_id)
{
	if (ul_id > MAX_PERIPH_ID) {
		return 1;
  4008e0:	f04f 0001 	mov.w	r0, #1
  4008e4:	4770      	bx	lr
			PMC->PMC_PCER1 = 1 << ul_id;
		}
#endif
	}

	return 0;
  4008e6:	f04f 0000 	mov.w	r0, #0
  4008ea:	4770      	bx	lr
  4008ec:	f04f 0000 	mov.w	r0, #0
}
  4008f0:	4770      	bx	lr
  4008f2:	bf00      	nop

004008f4 <pmc_enable_sleepmode>:
void pmc_enable_sleepmode(uint8_t uc_type)
{
#if !(SAM4S || SAM4E || SAM4N || SAM4C || SAM4CP)
	PMC->PMC_FSMR &= (uint32_t) ~ PMC_FSMR_LPM; // Enter Sleep mode
#endif
	SCB->SCR &= (uint32_t) ~ SCB_SCR_SLEEPDEEP_Msk; // Deep sleep
  4008f4:	f44f 436d 	mov.w	r3, #60672	; 0xed00
  4008f8:	f2ce 0300 	movt	r3, #57344	; 0xe000
  4008fc:	691a      	ldr	r2, [r3, #16]
  4008fe:	f022 0204 	bic.w	r2, r2, #4
  400902:	611a      	str	r2, [r3, #16]
    Wait For Interrupt is a hint instruction that suspends execution
    until one of a number of events occurs.
 */
__attribute__( ( always_inline ) ) static __INLINE void __WFI(void)
{
  __ASM volatile ("wfi");
  400904:	bf30      	wfi
  400906:	4770      	bx	lr

00400908 <spi_set_peripheral_chip_select_value>:
 *                 \ref spi_enable_peripheral_select_decode,
 *                 \ref spi_disable_peripheral_select_decode.
 */
void spi_set_peripheral_chip_select_value(Spi *p_spi, uint32_t ul_value)
{
	p_spi->SPI_MR &= (~SPI_MR_PCS_Msk);
  400908:	6843      	ldr	r3, [r0, #4]
  40090a:	f423 2370 	bic.w	r3, r3, #983040	; 0xf0000
  40090e:	6043      	str	r3, [r0, #4]
	p_spi->SPI_MR |= SPI_MR_PCS(ul_value);
  400910:	6843      	ldr	r3, [r0, #4]
  400912:	ea4f 4101 	mov.w	r1, r1, lsl #16
  400916:	f401 2170 	and.w	r1, r1, #983040	; 0xf0000
  40091a:	430b      	orrs	r3, r1
  40091c:	6043      	str	r3, [r0, #4]
  40091e:	4770      	bx	lr

00400920 <spi_read>:
 *
 * \retval SPI_OK on Success.
 * \retval SPI_ERROR_TIMEOUT on Time-out.
 */
spi_status_t spi_read(Spi *p_spi, uint16_t *us_data, uint8_t *p_pcs)
{
  400920:	b410      	push	{r4}
	uint32_t timeout = SPI_TIMEOUT;
	static uint32_t reg_value;

	while (!(p_spi->SPI_SR & SPI_SR_RDRF)) {
  400922:	f643 2399 	movw	r3, #15001	; 0x3a99
  400926:	e001      	b.n	40092c <spi_read+0xc>
		if (!timeout--) {
  400928:	3b01      	subs	r3, #1
  40092a:	d014      	beq.n	400956 <spi_read+0x36>
spi_status_t spi_read(Spi *p_spi, uint16_t *us_data, uint8_t *p_pcs)
{
	uint32_t timeout = SPI_TIMEOUT;
	static uint32_t reg_value;

	while (!(p_spi->SPI_SR & SPI_SR_RDRF)) {
  40092c:	6904      	ldr	r4, [r0, #16]
  40092e:	f014 0f01 	tst.w	r4, #1
  400932:	d0f9      	beq.n	400928 <spi_read+0x8>
		if (!timeout--) {
			return SPI_ERROR_TIMEOUT;
		}
	}

	reg_value = p_spi->SPI_RDR;
  400934:	6884      	ldr	r4, [r0, #8]
  400936:	f241 33b4 	movw	r3, #5044	; 0x13b4
  40093a:	f2c2 0300 	movt	r3, #8192	; 0x2000
  40093e:	601c      	str	r4, [r3, #0]
 *
 * \return 1 for Variable mode, 0 for fixed mode.
 */
static inline uint32_t spi_get_peripheral_select_mode(Spi *p_spi)
{
	if (p_spi->SPI_MR & SPI_MR_PS) {
  400940:	6843      	ldr	r3, [r0, #4]
	if (spi_get_peripheral_select_mode(p_spi)) {
  400942:	f013 0f02 	tst.w	r3, #2
		*p_pcs = (uint8_t) ((reg_value & SPI_RDR_PCS_Msk) >> SPI_RDR_PCS_Pos);
  400946:	bf1c      	itt	ne
  400948:	f3c4 4303 	ubfxne	r3, r4, #16, #4
  40094c:	7013      	strbne	r3, [r2, #0]
	}
	*us_data = (uint16_t) (reg_value & SPI_RDR_RD_Msk);
  40094e:	800c      	strh	r4, [r1, #0]

	return SPI_OK;
  400950:	f04f 0000 	mov.w	r0, #0
  400954:	e001      	b.n	40095a <spi_read+0x3a>
	uint32_t timeout = SPI_TIMEOUT;
	static uint32_t reg_value;

	while (!(p_spi->SPI_SR & SPI_SR_RDRF)) {
		if (!timeout--) {
			return SPI_ERROR_TIMEOUT;
  400956:	f04f 0001 	mov.w	r0, #1
		*p_pcs = (uint8_t) ((reg_value & SPI_RDR_PCS_Msk) >> SPI_RDR_PCS_Pos);
	}
	*us_data = (uint16_t) (reg_value & SPI_RDR_RD_Msk);

	return SPI_OK;
}
  40095a:	bc10      	pop	{r4}
  40095c:	4770      	bx	lr
  40095e:	bf00      	nop

00400960 <spi_write>:
 * \retval SPI_OK on Success.
 * \retval SPI_ERROR_TIMEOUT on Time-out.
 */
spi_status_t spi_write(Spi *p_spi, uint16_t us_data,
		uint8_t uc_pcs, uint8_t uc_last)
{
  400960:	b430      	push	{r4, r5}
	uint32_t timeout = SPI_TIMEOUT;
	uint32_t value;

	while (!(p_spi->SPI_SR & SPI_SR_TDRE)) {
  400962:	f643 2499 	movw	r4, #15001	; 0x3a99
  400966:	e001      	b.n	40096c <spi_write+0xc>
		if (!timeout--) {
  400968:	3c01      	subs	r4, #1
  40096a:	d013      	beq.n	400994 <spi_write+0x34>
		uint8_t uc_pcs, uint8_t uc_last)
{
	uint32_t timeout = SPI_TIMEOUT;
	uint32_t value;

	while (!(p_spi->SPI_SR & SPI_SR_TDRE)) {
  40096c:	6905      	ldr	r5, [r0, #16]
  40096e:	f015 0f02 	tst.w	r5, #2
  400972:	d0f9      	beq.n	400968 <spi_write+0x8>
  400974:	6844      	ldr	r4, [r0, #4]
		if (!timeout--) {
			return SPI_ERROR_TIMEOUT;
		}
	}

	if (spi_get_peripheral_select_mode(p_spi)) {
  400976:	f014 0f02 	tst.w	r4, #2
  40097a:	d007      	beq.n	40098c <spi_write+0x2c>
		value = SPI_TDR_TD(us_data) | SPI_TDR_PCS(uc_pcs);
  40097c:	ea4f 4202 	mov.w	r2, r2, lsl #16
  400980:	f402 2270 	and.w	r2, r2, #983040	; 0xf0000
  400984:	4311      	orrs	r1, r2
		if (uc_last) {
  400986:	b10b      	cbz	r3, 40098c <spi_write+0x2c>
			value |= SPI_TDR_LASTXFER;
  400988:	f041 7180 	orr.w	r1, r1, #16777216	; 0x1000000
		}
	} else {
		value = SPI_TDR_TD(us_data);
	}

	p_spi->SPI_TDR = value;
  40098c:	60c1      	str	r1, [r0, #12]

	return SPI_OK;
  40098e:	f04f 0000 	mov.w	r0, #0
  400992:	e001      	b.n	400998 <spi_write+0x38>
	uint32_t timeout = SPI_TIMEOUT;
	uint32_t value;

	while (!(p_spi->SPI_SR & SPI_SR_TDRE)) {
		if (!timeout--) {
			return SPI_ERROR_TIMEOUT;
  400994:	f04f 0001 	mov.w	r0, #1
	}

	p_spi->SPI_TDR = value;

	return SPI_OK;
}
  400998:	bc30      	pop	{r4, r5}
  40099a:	4770      	bx	lr

0040099c <spi_set_clock_polarity>:
 * \param ul_polarity Default clock state is logical one(high)/zero(low).
 */
void spi_set_clock_polarity(Spi *p_spi, uint32_t ul_pcs_ch,
		uint32_t ul_polarity)
{
	if (ul_polarity) {
  40099c:	b142      	cbz	r2, 4009b0 <spi_set_clock_polarity+0x14>
		p_spi->SPI_CSR[ul_pcs_ch] |= SPI_CSR_CPOL;
  40099e:	f101 010c 	add.w	r1, r1, #12
  4009a2:	f850 3021 	ldr.w	r3, [r0, r1, lsl #2]
  4009a6:	f043 0301 	orr.w	r3, r3, #1
  4009aa:	f840 3021 	str.w	r3, [r0, r1, lsl #2]
  4009ae:	4770      	bx	lr
	} else {
		p_spi->SPI_CSR[ul_pcs_ch] &= (~SPI_CSR_CPOL);
  4009b0:	f101 010c 	add.w	r1, r1, #12
  4009b4:	f850 3021 	ldr.w	r3, [r0, r1, lsl #2]
  4009b8:	f023 0301 	bic.w	r3, r3, #1
  4009bc:	f840 3021 	str.w	r3, [r0, r1, lsl #2]
  4009c0:	4770      	bx	lr
  4009c2:	bf00      	nop

004009c4 <spi_set_clock_phase>:
 *  \param ul_pcs_ch Peripheral Chip Select channel (0~3).
 *  \param ul_phase Data capture on the rising/falling edge of clock.
 */
void spi_set_clock_phase(Spi *p_spi, uint32_t ul_pcs_ch, uint32_t ul_phase)
{
	if (ul_phase) {
  4009c4:	b142      	cbz	r2, 4009d8 <spi_set_clock_phase+0x14>
		p_spi->SPI_CSR[ul_pcs_ch] |= SPI_CSR_NCPHA;
  4009c6:	f101 010c 	add.w	r1, r1, #12
  4009ca:	f850 3021 	ldr.w	r3, [r0, r1, lsl #2]
  4009ce:	f043 0302 	orr.w	r3, r3, #2
  4009d2:	f840 3021 	str.w	r3, [r0, r1, lsl #2]
  4009d6:	4770      	bx	lr
	} else {
		p_spi->SPI_CSR[ul_pcs_ch] &= (~SPI_CSR_NCPHA);
  4009d8:	f101 010c 	add.w	r1, r1, #12
  4009dc:	f850 3021 	ldr.w	r3, [r0, r1, lsl #2]
  4009e0:	f023 0302 	bic.w	r3, r3, #2
  4009e4:	f840 3021 	str.w	r3, [r0, r1, lsl #2]
  4009e8:	4770      	bx	lr
  4009ea:	bf00      	nop

004009ec <spi_set_bits_per_transfer>:
 *        in the device header file.
 */
void spi_set_bits_per_transfer(Spi *p_spi, uint32_t ul_pcs_ch,
		uint32_t ul_bits)
{
	p_spi->SPI_CSR[ul_pcs_ch] &= (~SPI_CSR_BITS_Msk);
  4009ec:	f101 010c 	add.w	r1, r1, #12
  4009f0:	f850 3021 	ldr.w	r3, [r0, r1, lsl #2]
  4009f4:	f023 03f0 	bic.w	r3, r3, #240	; 0xf0
  4009f8:	f840 3021 	str.w	r3, [r0, r1, lsl #2]
	p_spi->SPI_CSR[ul_pcs_ch] |= ul_bits;
  4009fc:	f850 3021 	ldr.w	r3, [r0, r1, lsl #2]
  400a00:	431a      	orrs	r2, r3
  400a02:	f840 2021 	str.w	r2, [r0, r1, lsl #2]
  400a06:	4770      	bx	lr

00400a08 <spi_set_baudrate_div>:
 * \param uc_baudrate_divider Baudrate divider from MCK.
 */
void spi_set_baudrate_div(Spi *p_spi, uint32_t ul_pcs_ch,
		uint8_t uc_baudrate_divider)
{
	p_spi->SPI_CSR[ul_pcs_ch] &= (~SPI_CSR_SCBR_Msk);
  400a08:	f101 010c 	add.w	r1, r1, #12
  400a0c:	f850 3021 	ldr.w	r3, [r0, r1, lsl #2]
  400a10:	f423 437f 	bic.w	r3, r3, #65280	; 0xff00
  400a14:	f840 3021 	str.w	r3, [r0, r1, lsl #2]
	p_spi->SPI_CSR[ul_pcs_ch] |= SPI_CSR_SCBR(uc_baudrate_divider);
  400a18:	f850 3021 	ldr.w	r3, [r0, r1, lsl #2]
  400a1c:	ea43 2202 	orr.w	r2, r3, r2, lsl #8
  400a20:	f840 2021 	str.w	r2, [r0, r1, lsl #2]
  400a24:	4770      	bx	lr
  400a26:	bf00      	nop

00400a28 <spi_set_transfer_delay>:
 * \param uc_dlybs Delay before SPCK (in number of MCK clocks).
 * \param uc_dlybct Delay between consecutive transfers (in number of MCK clocks).
 */
void spi_set_transfer_delay(Spi *p_spi, uint32_t ul_pcs_ch,
		uint8_t uc_dlybs, uint8_t uc_dlybct)
{
  400a28:	b410      	push	{r4}
	p_spi->SPI_CSR[ul_pcs_ch] &= ~(SPI_CSR_DLYBS_Msk | SPI_CSR_DLYBCT_Msk);
  400a2a:	f101 010c 	add.w	r1, r1, #12
  400a2e:	f850 4021 	ldr.w	r4, [r0, r1, lsl #2]
  400a32:	b2a4      	uxth	r4, r4
  400a34:	f840 4021 	str.w	r4, [r0, r1, lsl #2]
	p_spi->SPI_CSR[ul_pcs_ch] |= SPI_CSR_DLYBS(uc_dlybs)
  400a38:	f850 4021 	ldr.w	r4, [r0, r1, lsl #2]
			| SPI_CSR_DLYBCT(uc_dlybct);
  400a3c:	ea4f 6303 	mov.w	r3, r3, lsl #24
  400a40:	ea43 4202 	orr.w	r2, r3, r2, lsl #16
 */
void spi_set_transfer_delay(Spi *p_spi, uint32_t ul_pcs_ch,
		uint8_t uc_dlybs, uint8_t uc_dlybct)
{
	p_spi->SPI_CSR[ul_pcs_ch] &= ~(SPI_CSR_DLYBS_Msk | SPI_CSR_DLYBCT_Msk);
	p_spi->SPI_CSR[ul_pcs_ch] |= SPI_CSR_DLYBS(uc_dlybs)
  400a44:	4314      	orrs	r4, r2
  400a46:	f840 4021 	str.w	r4, [r0, r1, lsl #2]
			| SPI_CSR_DLYBCT(uc_dlybct);
}
  400a4a:	bc10      	pop	{r4}
  400a4c:	4770      	bx	lr
  400a4e:	bf00      	nop

00400a50 <twi_mk_addr>:
 */
static uint32_t twi_mk_addr(const uint8_t *addr, int len)
{
	uint32_t val;

	if (len == 0)
  400a50:	460a      	mov	r2, r1
		return 0;
  400a52:	f04f 0300 	mov.w	r3, #0
 */
static uint32_t twi_mk_addr(const uint8_t *addr, int len)
{
	uint32_t val;

	if (len == 0)
  400a56:	b151      	cbz	r1, 400a6e <twi_mk_addr+0x1e>
		return 0;

	val = addr[0];
  400a58:	7803      	ldrb	r3, [r0, #0]
	if (len > 1) {
  400a5a:	2901      	cmp	r1, #1
		val <<= 8;
		val |= addr[1];
  400a5c:	bfc4      	itt	gt
  400a5e:	7841      	ldrbgt	r1, [r0, #1]
  400a60:	ea41 2303 	orrgt.w	r3, r1, r3, lsl #8
	}
	if (len > 2) {
  400a64:	2a02      	cmp	r2, #2
		val <<= 8;
		val |= addr[2];
  400a66:	bfc4      	itt	gt
  400a68:	7882      	ldrbgt	r2, [r0, #2]
  400a6a:	ea42 2303 	orrgt.w	r3, r2, r3, lsl #8
	}
	return val;
}
  400a6e:	4618      	mov	r0, r3
  400a70:	4770      	bx	lr
  400a72:	bf00      	nop

00400a74 <twi_enable_master_mode>:
 * \param p_twi Pointer to a TWI instance.
 */
void twi_enable_master_mode(Twi *p_twi)
{
	/* Set Master Disable bit and Slave Disable bit */
	p_twi->TWI_CR = TWI_CR_MSDIS;
  400a74:	f04f 0308 	mov.w	r3, #8
  400a78:	6003      	str	r3, [r0, #0]
	p_twi->TWI_CR = TWI_CR_SVDIS;
  400a7a:	f04f 0320 	mov.w	r3, #32
  400a7e:	6003      	str	r3, [r0, #0]

	/* Set Master Enable bit */
	p_twi->TWI_CR = TWI_CR_MSEN;
  400a80:	f04f 0304 	mov.w	r3, #4
  400a84:	6003      	str	r3, [r0, #0]
  400a86:	4770      	bx	lr

00400a88 <twi_set_speed>:
uint32_t twi_set_speed(Twi *p_twi, uint32_t ul_speed, uint32_t ul_mck)
{
	uint32_t ckdiv = 0;
	uint32_t c_lh_div;

	if (ul_speed > I2C_FAST_MODE_SPEED) {
  400a88:	f44f 53d4 	mov.w	r3, #6784	; 0x1a80
  400a8c:	f2c0 0306 	movt	r3, #6
  400a90:	4299      	cmp	r1, r3
  400a92:	d827      	bhi.n	400ae4 <twi_set_speed+0x5c>
		return FAIL;
	}

	c_lh_div = ul_mck / (ul_speed * TWI_CLK_DIVIDER) - TWI_CLK_CALC_ARGU;
  400a94:	ea4f 0141 	mov.w	r1, r1, lsl #1
  400a98:	fbb2 f2f1 	udiv	r2, r2, r1
  400a9c:	f1a2 0204 	sub.w	r2, r2, #4

	/* cldiv must fit in 8 bits, ckdiv must fit in 3 bits */
	while ((c_lh_div > TWI_CLK_DIV_MAX) && (ckdiv < TWI_CLK_DIV_MIN)) {
  400aa0:	2aff      	cmp	r2, #255	; 0xff
  400aa2:	d90f      	bls.n	400ac4 <twi_set_speed+0x3c>
 * \retval PASS New speed setting is accepted.
 * \retval FAIL New speed setting is rejected.
 */
uint32_t twi_set_speed(Twi *p_twi, uint32_t ul_speed, uint32_t ul_mck)
{
	uint32_t ckdiv = 0;
  400aa4:	f04f 0300 	mov.w	r3, #0
	c_lh_div = ul_mck / (ul_speed * TWI_CLK_DIVIDER) - TWI_CLK_CALC_ARGU;

	/* cldiv must fit in 8 bits, ckdiv must fit in 3 bits */
	while ((c_lh_div > TWI_CLK_DIV_MAX) && (ckdiv < TWI_CLK_DIV_MIN)) {
		/* Increase clock divider */
		ckdiv++;
  400aa8:	f103 0301 	add.w	r3, r3, #1
		/* Divide cldiv value */
		c_lh_div /= TWI_CLK_DIVIDER;
  400aac:	ea4f 0252 	mov.w	r2, r2, lsr #1
	}

	c_lh_div = ul_mck / (ul_speed * TWI_CLK_DIVIDER) - TWI_CLK_CALC_ARGU;

	/* cldiv must fit in 8 bits, ckdiv must fit in 3 bits */
	while ((c_lh_div > TWI_CLK_DIV_MAX) && (ckdiv < TWI_CLK_DIV_MIN)) {
  400ab0:	2b06      	cmp	r3, #6
  400ab2:	bf8c      	ite	hi
  400ab4:	2100      	movhi	r1, #0
  400ab6:	2101      	movls	r1, #1
  400ab8:	2aff      	cmp	r2, #255	; 0xff
  400aba:	bf98      	it	ls
  400abc:	2100      	movls	r1, #0
  400abe:	2900      	cmp	r1, #0
  400ac0:	d1f2      	bne.n	400aa8 <twi_set_speed+0x20>
  400ac2:	e001      	b.n	400ac8 <twi_set_speed+0x40>
 * \retval PASS New speed setting is accepted.
 * \retval FAIL New speed setting is rejected.
 */
uint32_t twi_set_speed(Twi *p_twi, uint32_t ul_speed, uint32_t ul_mck)
{
	uint32_t ckdiv = 0;
  400ac4:	f04f 0300 	mov.w	r3, #0
		c_lh_div /= TWI_CLK_DIVIDER;
	}

	/* set clock waveform generator register */
	p_twi->TWI_CWGR =
			TWI_CWGR_CLDIV(c_lh_div) | TWI_CWGR_CHDIV(c_lh_div) |
  400ac8:	ea4f 6102 	mov.w	r1, r2, lsl #24
			TWI_CWGR_CKDIV(ckdiv);
  400acc:	ea4f 4303 	mov.w	r3, r3, lsl #16
  400ad0:	f403 23e0 	and.w	r3, r3, #458752	; 0x70000
		c_lh_div /= TWI_CLK_DIVIDER;
	}

	/* set clock waveform generator register */
	p_twi->TWI_CWGR =
			TWI_CWGR_CLDIV(c_lh_div) | TWI_CWGR_CHDIV(c_lh_div) |
  400ad4:	ea43 4311 	orr.w	r3, r3, r1, lsr #16
  400ad8:	b2d2      	uxtb	r2, r2
  400ada:	431a      	orrs	r2, r3
		/* Divide cldiv value */
		c_lh_div /= TWI_CLK_DIVIDER;
	}

	/* set clock waveform generator register */
	p_twi->TWI_CWGR =
  400adc:	6102      	str	r2, [r0, #16]
			TWI_CWGR_CLDIV(c_lh_div) | TWI_CWGR_CHDIV(c_lh_div) |
			TWI_CWGR_CKDIV(ckdiv);

	return PASS;
  400ade:	f04f 0000 	mov.w	r0, #0
  400ae2:	4770      	bx	lr
{
	uint32_t ckdiv = 0;
	uint32_t c_lh_div;

	if (ul_speed > I2C_FAST_MODE_SPEED) {
		return FAIL;
  400ae4:	f04f 0001 	mov.w	r0, #1
	p_twi->TWI_CWGR =
			TWI_CWGR_CLDIV(c_lh_div) | TWI_CWGR_CHDIV(c_lh_div) |
			TWI_CWGR_CKDIV(ckdiv);

	return PASS;
}
  400ae8:	4770      	bx	lr
  400aea:	bf00      	nop

00400aec <twi_master_read>:
 * \param p_packet Packet information and data (see \ref twi_packet_t).
 *
 * \return TWI_SUCCESS if all bytes were read, error code otherwise.
 */
uint32_t twi_master_read(Twi *p_twi, twi_packet_t *p_packet)
{
  400aec:	b5f8      	push	{r3, r4, r5, r6, r7, lr}
  400aee:	4605      	mov	r5, r0
	uint32_t status;
	uint32_t cnt = p_packet->length;
  400af0:	68cc      	ldr	r4, [r1, #12]
	uint8_t *buffer = p_packet->buffer;
  400af2:	688e      	ldr	r6, [r1, #8]
	uint8_t stop_sent = 0;
	
	/* Check argument */
	if (cnt == 0) {
  400af4:	2c00      	cmp	r4, #0
  400af6:	d044      	beq.n	400b82 <twi_master_read+0x96>
		return TWI_INVALID_ARGUMENT;
	}

	/* Set read mode, slave address and 3 internal address byte lengths */
	p_twi->TWI_MMR = 0;
  400af8:	f04f 0300 	mov.w	r3, #0
  400afc:	6043      	str	r3, [r0, #4]
	p_twi->TWI_MMR = TWI_MMR_MREAD | TWI_MMR_DADR(p_packet->chip) |
			((p_packet->addr_length << TWI_MMR_IADRSZ_Pos) &
  400afe:	684a      	ldr	r2, [r1, #4]
  400b00:	ea4f 2202 	mov.w	r2, r2, lsl #8
  400b04:	f402 7240 	and.w	r2, r2, #768	; 0x300
		return TWI_INVALID_ARGUMENT;
	}

	/* Set read mode, slave address and 3 internal address byte lengths */
	p_twi->TWI_MMR = 0;
	p_twi->TWI_MMR = TWI_MMR_MREAD | TWI_MMR_DADR(p_packet->chip) |
  400b08:	f442 5280 	orr.w	r2, r2, #4096	; 0x1000
  400b0c:	7c08      	ldrb	r0, [r1, #16]
  400b0e:	ea4f 4000 	mov.w	r0, r0, lsl #16
  400b12:	f400 00fe 	and.w	r0, r0, #8323072	; 0x7f0000
  400b16:	4302      	orrs	r2, r0
  400b18:	606a      	str	r2, [r5, #4]
			((p_packet->addr_length << TWI_MMR_IADRSZ_Pos) &
			TWI_MMR_IADRSZ_Msk);

	/* Set internal address for remote chip */
	p_twi->TWI_IADR = 0;
  400b1a:	60eb      	str	r3, [r5, #12]
	p_twi->TWI_IADR = twi_mk_addr(p_packet->addr, p_packet->addr_length);
  400b1c:	4608      	mov	r0, r1
  400b1e:	6849      	ldr	r1, [r1, #4]
  400b20:	f640 2351 	movw	r3, #2641	; 0xa51
  400b24:	f2c0 0340 	movt	r3, #64	; 0x40
  400b28:	4798      	blx	r3
  400b2a:	60e8      	str	r0, [r5, #12]

	/* Send a START condition */
	if (cnt == 1) {
  400b2c:	2c01      	cmp	r4, #1
		p_twi->TWI_CR = TWI_CR_START | TWI_CR_STOP;
  400b2e:	bf03      	ittte	eq
  400b30:	2303      	moveq	r3, #3
  400b32:	602b      	streq	r3, [r5, #0]
		stop_sent = 1;
  400b34:	2101      	moveq	r1, #1
	} else {
		p_twi->TWI_CR = TWI_CR_START;
  400b36:	2301      	movne	r3, #1
  400b38:	bf1c      	itt	ne
  400b3a:	602b      	strne	r3, [r5, #0]
		stop_sent = 0;
  400b3c:	2100      	movne	r1, #0
  400b3e:	e029      	b.n	400b94 <twi_master_read+0xa8>
	}

	while (cnt > 0) {
		status = p_twi->TWI_SR;
  400b40:	6a2b      	ldr	r3, [r5, #32]
		if (status & TWI_SR_NACK) {
  400b42:	f413 7f80 	tst.w	r3, #256	; 0x100
  400b46:	d000      	beq.n	400b4a <twi_master_read+0x5e>
  400b48:	e01e      	b.n	400b88 <twi_master_read+0x9c>
			return TWI_RECEIVE_NACK;
		}

		/* Last byte ? */
		if (cnt == 1  && !stop_sent) {
  400b4a:	f081 0201 	eor.w	r2, r1, #1
  400b4e:	2c01      	cmp	r4, #1
  400b50:	bf14      	ite	ne
  400b52:	2200      	movne	r2, #0
  400b54:	f002 0201 	andeq.w	r2, r2, #1
  400b58:	b10a      	cbz	r2, 400b5e <twi_master_read+0x72>
			p_twi->TWI_CR = TWI_CR_STOP;
  400b5a:	602f      	str	r7, [r5, #0]
			stop_sent = 1;
  400b5c:	4601      	mov	r1, r0
		}

		if (!(status & TWI_SR_RXRDY)) {
  400b5e:	f013 0f02 	tst.w	r3, #2
			continue;
		}
		*buffer++ = p_twi->TWI_RHR;
  400b62:	bf1e      	ittt	ne
  400b64:	6b2b      	ldrne	r3, [r5, #48]	; 0x30
  400b66:	f806 3b01 	strbne.w	r3, [r6], #1

		cnt--;
  400b6a:	f104 34ff 	addne.w	r4, r4, #4294967295	; 0xffffffff
	} else {
		p_twi->TWI_CR = TWI_CR_START;
		stop_sent = 0;
	}

	while (cnt > 0) {
  400b6e:	2c00      	cmp	r4, #0
  400b70:	d1e6      	bne.n	400b40 <twi_master_read+0x54>
		*buffer++ = p_twi->TWI_RHR;

		cnt--;
	}

	while (!(p_twi->TWI_SR & TWI_SR_TXCOMP)) {
  400b72:	6a2b      	ldr	r3, [r5, #32]
  400b74:	f013 0f01 	tst.w	r3, #1
  400b78:	d0fb      	beq.n	400b72 <twi_master_read+0x86>
	}

	p_twi->TWI_SR;
  400b7a:	6a2b      	ldr	r3, [r5, #32]

	return TWI_SUCCESS;
  400b7c:	f04f 0000 	mov.w	r0, #0
  400b80:	bdf8      	pop	{r3, r4, r5, r6, r7, pc}
	uint8_t *buffer = p_packet->buffer;
	uint8_t stop_sent = 0;
	
	/* Check argument */
	if (cnt == 0) {
		return TWI_INVALID_ARGUMENT;
  400b82:	f04f 0001 	mov.w	r0, #1
  400b86:	bdf8      	pop	{r3, r4, r5, r6, r7, pc}
	}

	while (cnt > 0) {
		status = p_twi->TWI_SR;
		if (status & TWI_SR_NACK) {
			return TWI_RECEIVE_NACK;
  400b88:	f04f 0005 	mov.w	r0, #5
  400b8c:	bdf8      	pop	{r3, r4, r5, r6, r7, pc}
  400b8e:	f04f 0005 	mov.w	r0, #5
  400b92:	bdf8      	pop	{r3, r4, r5, r6, r7, pc}
		p_twi->TWI_CR = TWI_CR_START;
		stop_sent = 0;
	}

	while (cnt > 0) {
		status = p_twi->TWI_SR;
  400b94:	6a2b      	ldr	r3, [r5, #32]
		if (status & TWI_SR_NACK) {
  400b96:	f413 7f80 	tst.w	r3, #256	; 0x100
			return TWI_RECEIVE_NACK;
		}

		/* Last byte ? */
		if (cnt == 1  && !stop_sent) {
			p_twi->TWI_CR = TWI_CR_STOP;
  400b9a:	bf04      	itt	eq
  400b9c:	2702      	moveq	r7, #2
			stop_sent = 1;
  400b9e:	2001      	moveq	r0, #1
		stop_sent = 0;
	}

	while (cnt > 0) {
		status = p_twi->TWI_SR;
		if (status & TWI_SR_NACK) {
  400ba0:	d0d3      	beq.n	400b4a <twi_master_read+0x5e>
  400ba2:	e7f4      	b.n	400b8e <twi_master_read+0xa2>

00400ba4 <twi_master_write>:
 * \param p_packet Packet information and data (see \ref twi_packet_t).
 *
 * \return TWI_SUCCESS if all bytes were written, error code otherwise.
 */
uint32_t twi_master_write(Twi *p_twi, twi_packet_t *p_packet)
{
  400ba4:	b570      	push	{r4, r5, r6, lr}
  400ba6:	4604      	mov	r4, r0
	uint32_t status;
	uint32_t cnt = p_packet->length;
  400ba8:	68cd      	ldr	r5, [r1, #12]
	uint8_t *buffer = p_packet->buffer;
  400baa:	688e      	ldr	r6, [r1, #8]

	/* Check argument */
	if (cnt == 0) {
  400bac:	2d00      	cmp	r5, #0
  400bae:	d03d      	beq.n	400c2c <twi_master_write+0x88>
		return TWI_INVALID_ARGUMENT;
	}

	/* Set write mode, slave address and 3 internal address byte lengths */
	p_twi->TWI_MMR = 0;
  400bb0:	f04f 0300 	mov.w	r3, #0
  400bb4:	6043      	str	r3, [r0, #4]
	p_twi->TWI_MMR = TWI_MMR_DADR(p_packet->chip) |
  400bb6:	7c08      	ldrb	r0, [r1, #16]
  400bb8:	ea4f 4000 	mov.w	r0, r0, lsl #16
  400bbc:	f400 00fe 	and.w	r0, r0, #8323072	; 0x7f0000
			((p_packet->addr_length << TWI_MMR_IADRSZ_Pos) &
  400bc0:	684a      	ldr	r2, [r1, #4]
  400bc2:	ea4f 2202 	mov.w	r2, r2, lsl #8
  400bc6:	f402 7240 	and.w	r2, r2, #768	; 0x300
		return TWI_INVALID_ARGUMENT;
	}

	/* Set write mode, slave address and 3 internal address byte lengths */
	p_twi->TWI_MMR = 0;
	p_twi->TWI_MMR = TWI_MMR_DADR(p_packet->chip) |
  400bca:	4302      	orrs	r2, r0
  400bcc:	6062      	str	r2, [r4, #4]
			((p_packet->addr_length << TWI_MMR_IADRSZ_Pos) &
			TWI_MMR_IADRSZ_Msk);

	/* Set internal address for remote chip */
	p_twi->TWI_IADR = 0;
  400bce:	60e3      	str	r3, [r4, #12]
	p_twi->TWI_IADR = twi_mk_addr(p_packet->addr, p_packet->addr_length);
  400bd0:	4608      	mov	r0, r1
  400bd2:	6849      	ldr	r1, [r1, #4]
  400bd4:	f640 2351 	movw	r3, #2641	; 0xa51
  400bd8:	f2c0 0340 	movt	r3, #64	; 0x40
  400bdc:	4798      	blx	r3
  400bde:	60e0      	str	r0, [r4, #12]
  400be0:	e00b      	b.n	400bfa <twi_master_write+0x56>

	/* Send all bytes */
	while (cnt > 0) {
		status = p_twi->TWI_SR;
  400be2:	6a23      	ldr	r3, [r4, #32]
		if (status & TWI_SR_NACK) {
  400be4:	f413 7f80 	tst.w	r3, #256	; 0x100
  400be8:	d123      	bne.n	400c32 <twi_master_write+0x8e>
			return TWI_RECEIVE_NACK;
		}

		if (!(status & TWI_SR_TXRDY)) {
  400bea:	f013 0f04 	tst.w	r3, #4
  400bee:	d0f8      	beq.n	400be2 <twi_master_write+0x3e>
			continue;
		}
		p_twi->TWI_THR = *buffer++;
  400bf0:	f816 3b01 	ldrb.w	r3, [r6], #1
  400bf4:	6363      	str	r3, [r4, #52]	; 0x34
	/* Set internal address for remote chip */
	p_twi->TWI_IADR = 0;
	p_twi->TWI_IADR = twi_mk_addr(p_packet->addr, p_packet->addr_length);

	/* Send all bytes */
	while (cnt > 0) {
  400bf6:	3d01      	subs	r5, #1
  400bf8:	d007      	beq.n	400c0a <twi_master_write+0x66>
		status = p_twi->TWI_SR;
  400bfa:	6a23      	ldr	r3, [r4, #32]
		if (status & TWI_SR_NACK) {
  400bfc:	f413 7f80 	tst.w	r3, #256	; 0x100
  400c00:	d11a      	bne.n	400c38 <twi_master_write+0x94>
			return TWI_RECEIVE_NACK;
		}

		if (!(status & TWI_SR_TXRDY)) {
  400c02:	f013 0f04 	tst.w	r3, #4
  400c06:	d0ec      	beq.n	400be2 <twi_master_write+0x3e>
  400c08:	e7f2      	b.n	400bf0 <twi_master_write+0x4c>

		cnt--;
	}

	while (1) {
		status = p_twi->TWI_SR;
  400c0a:	6a23      	ldr	r3, [r4, #32]
		if (status & TWI_SR_NACK) {
  400c0c:	f413 7f80 	tst.w	r3, #256	; 0x100
  400c10:	d115      	bne.n	400c3e <twi_master_write+0x9a>
			return TWI_RECEIVE_NACK;
		}

		if (status & TWI_SR_TXRDY) {
  400c12:	f013 0f04 	tst.w	r3, #4
  400c16:	d0f8      	beq.n	400c0a <twi_master_write+0x66>
			break;
		}
	}

	p_twi->TWI_CR = TWI_CR_STOP;
  400c18:	f04f 0302 	mov.w	r3, #2
  400c1c:	6023      	str	r3, [r4, #0]

	while (!(p_twi->TWI_SR & TWI_SR_TXCOMP)) {
  400c1e:	6a23      	ldr	r3, [r4, #32]
  400c20:	f013 0f01 	tst.w	r3, #1
  400c24:	d0fb      	beq.n	400c1e <twi_master_write+0x7a>
	}

	return TWI_SUCCESS;
  400c26:	f04f 0000 	mov.w	r0, #0
  400c2a:	bd70      	pop	{r4, r5, r6, pc}
	uint32_t cnt = p_packet->length;
	uint8_t *buffer = p_packet->buffer;

	/* Check argument */
	if (cnt == 0) {
		return TWI_INVALID_ARGUMENT;
  400c2c:	f04f 0001 	mov.w	r0, #1
  400c30:	bd70      	pop	{r4, r5, r6, pc}

	/* Send all bytes */
	while (cnt > 0) {
		status = p_twi->TWI_SR;
		if (status & TWI_SR_NACK) {
			return TWI_RECEIVE_NACK;
  400c32:	f04f 0005 	mov.w	r0, #5
  400c36:	bd70      	pop	{r4, r5, r6, pc}
  400c38:	f04f 0005 	mov.w	r0, #5
  400c3c:	bd70      	pop	{r4, r5, r6, pc}
	}

	while (1) {
		status = p_twi->TWI_SR;
		if (status & TWI_SR_NACK) {
			return TWI_RECEIVE_NACK;
  400c3e:	f04f 0005 	mov.w	r0, #5

	while (!(p_twi->TWI_SR & TWI_SR_TXCOMP)) {
	}

	return TWI_SUCCESS;
}
  400c42:	bd70      	pop	{r4, r5, r6, pc}

00400c44 <twi_reset>:
 * \param p_twi Pointer to a TWI instance.
 */
void twi_reset(Twi *p_twi)
{
	/* Set SWRST bit to reset TWI peripheral */
	p_twi->TWI_CR = TWI_CR_SWRST;
  400c44:	f04f 0380 	mov.w	r3, #128	; 0x80
  400c48:	6003      	str	r3, [r0, #0]
	p_twi->TWI_RHR;
  400c4a:	6b03      	ldr	r3, [r0, #48]	; 0x30
  400c4c:	4770      	bx	lr
  400c4e:	bf00      	nop

00400c50 <twi_master_init>:
 * \param p_opt Options for initializing the TWI module (see \ref twi_options_t).
 *
 * \return TWI_SUCCESS if initialization is complete, error code otherwise.
 */
uint32_t twi_master_init(Twi *p_twi, const twi_options_t *p_opt)
{
  400c50:	b538      	push	{r3, r4, r5, lr}
  400c52:	4604      	mov	r4, r0
  400c54:	460d      	mov	r5, r1
	uint32_t status = TWI_SUCCESS;

	/* Disable TWI interrupts */
	p_twi->TWI_IDR = ~0UL;
  400c56:	f04f 33ff 	mov.w	r3, #4294967295	; 0xffffffff
  400c5a:	6283      	str	r3, [r0, #40]	; 0x28

	/* Dummy read in status register */
	p_twi->TWI_SR;
  400c5c:	6a03      	ldr	r3, [r0, #32]

	/* Reset TWI peripheral */
	twi_reset(p_twi);
  400c5e:	f640 4345 	movw	r3, #3141	; 0xc45
  400c62:	f2c0 0340 	movt	r3, #64	; 0x40
  400c66:	4798      	blx	r3

	twi_enable_master_mode(p_twi);
  400c68:	4620      	mov	r0, r4
  400c6a:	f640 2375 	movw	r3, #2677	; 0xa75
  400c6e:	f2c0 0340 	movt	r3, #64	; 0x40
  400c72:	4798      	blx	r3

	/* Select the speed */
	if (twi_set_speed(p_twi, p_opt->speed, p_opt->master_clk) == FAIL) {
  400c74:	4620      	mov	r0, r4
  400c76:	6869      	ldr	r1, [r5, #4]
  400c78:	682a      	ldr	r2, [r5, #0]
  400c7a:	f640 2389 	movw	r3, #2697	; 0xa89
  400c7e:	f2c0 0340 	movt	r3, #64	; 0x40
  400c82:	4798      	blx	r3
  400c84:	2801      	cmp	r0, #1
  400c86:	bf14      	ite	ne
  400c88:	2000      	movne	r0, #0
  400c8a:	2001      	moveq	r0, #1
		/* The desired speed setting is rejected */
		status = TWI_INVALID_ARGUMENT;
	}

	if (p_opt->smbus == 1) {
  400c8c:	7a6b      	ldrb	r3, [r5, #9]
  400c8e:	2b01      	cmp	r3, #1
		p_twi->TWI_CR = TWI_CR_QUICK;
  400c90:	bf04      	itt	eq
  400c92:	2340      	moveq	r3, #64	; 0x40
  400c94:	6023      	streq	r3, [r4, #0]
	}

	return status;
}
  400c96:	bd38      	pop	{r3, r4, r5, pc}

00400c98 <rtc_set_hour_mode>:
 * \param p_rtc Pointer to an RTC instance.
 * \param ul_mode 1 for 12-hour mode, 0 for 24-hour mode.
 */
void rtc_set_hour_mode(Rtc *p_rtc, uint32_t ul_mode)
{
	if (ul_mode) {
  400c98:	b121      	cbz	r1, 400ca4 <rtc_set_hour_mode+0xc>
		p_rtc->RTC_MR |= RTC_MR_HRMOD;
  400c9a:	6843      	ldr	r3, [r0, #4]
  400c9c:	f043 0301 	orr.w	r3, r3, #1
  400ca0:	6043      	str	r3, [r0, #4]
  400ca2:	4770      	bx	lr
	} else {
		p_rtc->RTC_MR &= (~RTC_MR_HRMOD);
  400ca4:	6843      	ldr	r3, [r0, #4]
  400ca6:	f023 0301 	bic.w	r3, r3, #1
  400caa:	6043      	str	r3, [r0, #4]
  400cac:	4770      	bx	lr
  400cae:	bf00      	nop

00400cb0 <rtc_enable_interrupt>:
 * \param p_rtc Pointer to an RTC instance.
 * \param ul_sources Interrupts to be enabled.
 */
void rtc_enable_interrupt(Rtc *p_rtc, uint32_t ul_sources)
{
	p_rtc->RTC_IER = ul_sources;
  400cb0:	6201      	str	r1, [r0, #32]
  400cb2:	4770      	bx	lr

00400cb4 <rtc_disable_interrupt>:
 * \param p_rtc Pointer to an RTC instance.
 * \param ul_sources Interrupts to be disabled.
 */
void rtc_disable_interrupt(Rtc *p_rtc, uint32_t ul_sources)
{
	p_rtc->RTC_IDR = ul_sources;
  400cb4:	6241      	str	r1, [r0, #36]	; 0x24
  400cb6:	4770      	bx	lr

00400cb8 <rtc_get_time>:
 * \param pul_minute Current minute.
 * \param pul_second Current second.
 */
void rtc_get_time(Rtc *p_rtc, uint32_t *pul_hour, uint32_t *pul_minute,
		uint32_t *pul_second)
{
  400cb8:	b430      	push	{r4, r5}
	uint32_t ul_time;
	uint32_t ul_temp;

	/* Get the current RTC time (multiple reads are necessary to insure a stable value). */
	ul_time = p_rtc->RTC_TIMR;
  400cba:	6884      	ldr	r4, [r0, #8]
	while (ul_time != p_rtc->RTC_TIMR) {
  400cbc:	6885      	ldr	r5, [r0, #8]
  400cbe:	42ac      	cmp	r4, r5
  400cc0:	d003      	beq.n	400cca <rtc_get_time+0x12>
		ul_time = p_rtc->RTC_TIMR;
  400cc2:	6884      	ldr	r4, [r0, #8]
	uint32_t ul_time;
	uint32_t ul_temp;

	/* Get the current RTC time (multiple reads are necessary to insure a stable value). */
	ul_time = p_rtc->RTC_TIMR;
	while (ul_time != p_rtc->RTC_TIMR) {
  400cc4:	6885      	ldr	r5, [r0, #8]
  400cc6:	42a5      	cmp	r5, r4
  400cc8:	d1fb      	bne.n	400cc2 <rtc_get_time+0xa>
		ul_time = p_rtc->RTC_TIMR;
	}

	/* Hour */
	if (pul_hour) {
  400cca:	b171      	cbz	r1, 400cea <rtc_get_time+0x32>
		ul_temp = (ul_time & RTC_TIMR_HOUR_Msk) >> RTC_TIMR_HOUR_Pos;
  400ccc:	f404 107c 	and.w	r0, r4, #4128768	; 0x3f0000
		*pul_hour = (ul_temp >> BCD_SHIFT) * BCD_FACTOR + (ul_temp & BCD_MASK);
  400cd0:	ea4f 5510 	mov.w	r5, r0, lsr #20
  400cd4:	eb05 0585 	add.w	r5, r5, r5, lsl #2
  400cd8:	f3c0 4003 	ubfx	r0, r0, #16, #4
  400cdc:	eb00 0045 	add.w	r0, r0, r5, lsl #1

		if ((ul_time & RTC_TIMR_AMPM) == RTC_TIMR_AMPM) {
  400ce0:	f414 0f80 	tst.w	r4, #4194304	; 0x400000
			*pul_hour += 12;
  400ce4:	bf18      	it	ne
  400ce6:	300c      	addne	r0, #12
  400ce8:	6008      	str	r0, [r1, #0]
		}
	}

	/* Minute */
	if (pul_minute) {
  400cea:	b152      	cbz	r2, 400d02 <rtc_get_time+0x4a>
		ul_temp = (ul_time & RTC_TIMR_MIN_Msk) >> RTC_TIMR_MIN_Pos;
  400cec:	f404 41fe 	and.w	r1, r4, #32512	; 0x7f00
		*pul_minute = (ul_temp >> BCD_SHIFT) * BCD_FACTOR +  (ul_temp & BCD_MASK);
  400cf0:	ea4f 3011 	mov.w	r0, r1, lsr #12
  400cf4:	eb00 0080 	add.w	r0, r0, r0, lsl #2
  400cf8:	f3c1 2103 	ubfx	r1, r1, #8, #4
  400cfc:	eb01 0140 	add.w	r1, r1, r0, lsl #1
  400d00:	6011      	str	r1, [r2, #0]
	}

	/* Second */
	if (pul_second) {
  400d02:	b143      	cbz	r3, 400d16 <rtc_get_time+0x5e>
		ul_temp = (ul_time & RTC_TIMR_SEC_Msk) >> RTC_TIMR_SEC_Pos;
		*pul_second = (ul_temp >> BCD_SHIFT) * BCD_FACTOR + (ul_temp & BCD_MASK);
  400d04:	f3c4 1202 	ubfx	r2, r4, #4, #3
  400d08:	eb02 0282 	add.w	r2, r2, r2, lsl #2
  400d0c:	f004 040f 	and.w	r4, r4, #15
  400d10:	eb04 0242 	add.w	r2, r4, r2, lsl #1
  400d14:	601a      	str	r2, [r3, #0]
	}
}
  400d16:	bc30      	pop	{r4, r5}
  400d18:	4770      	bx	lr
  400d1a:	bf00      	nop

00400d1c <rtc_set_time>:
 *
 * \return 0 for OK, else invalid setting.
 */
uint32_t rtc_set_time(Rtc *p_rtc, uint32_t ul_hour, uint32_t ul_minute,
		uint32_t ul_second)
{
  400d1c:	b4f0      	push	{r4, r5, r6, r7}
	uint32_t ul_time = 0;

	/* If 12-hour mode, set AMPM bit */
	if ((p_rtc->RTC_MR & RTC_MR_HRMOD) == RTC_MR_HRMOD) {
  400d1e:	6844      	ldr	r4, [r0, #4]
  400d20:	f014 0f01 	tst.w	r4, #1
 * \return 0 for OK, else invalid setting.
 */
uint32_t rtc_set_time(Rtc *p_rtc, uint32_t ul_hour, uint32_t ul_minute,
		uint32_t ul_second)
{
	uint32_t ul_time = 0;
  400d24:	bf08      	it	eq
  400d26:	2700      	moveq	r7, #0

	/* If 12-hour mode, set AMPM bit */
	if ((p_rtc->RTC_MR & RTC_MR_HRMOD) == RTC_MR_HRMOD) {
  400d28:	d005      	beq.n	400d36 <rtc_set_time+0x1a>
		if (ul_hour > 12) {
  400d2a:	290c      	cmp	r1, #12
			ul_hour -= 12;
  400d2c:	bf86      	itte	hi
  400d2e:	390c      	subhi	r1, #12
			ul_time |= RTC_TIMR_AMPM;
  400d30:	f44f 0780 	movhi.w	r7, #4194304	; 0x400000
 * \return 0 for OK, else invalid setting.
 */
uint32_t rtc_set_time(Rtc *p_rtc, uint32_t ul_hour, uint32_t ul_minute,
		uint32_t ul_second)
{
	uint32_t ul_time = 0;
  400d34:	2700      	movls	r7, #0
	ul_time |= ((ul_hour / BCD_FACTOR) << (RTC_TIMR_HOUR_Pos + BCD_SHIFT)) |
			((ul_hour % BCD_FACTOR) << RTC_TIMR_HOUR_Pos);

	/* Minute */
	ul_time |= ((ul_minute / BCD_FACTOR) << (RTC_TIMR_MIN_Pos + BCD_SHIFT)) |
			((ul_minute % BCD_FACTOR) << RTC_TIMR_MIN_Pos);
  400d36:	f64c 44cd 	movw	r4, #52429	; 0xcccd
  400d3a:	f6cc 44cc 	movt	r4, #52428	; 0xcccc
  400d3e:	fba4 5602 	umull	r5, r6, r4, r2
  400d42:	ea4f 06d6 	mov.w	r6, r6, lsr #3
  400d46:	eb06 0586 	add.w	r5, r6, r6, lsl #2
  400d4a:	eba2 0245 	sub.w	r2, r2, r5, lsl #1
	/* Hour */
	ul_time |= ((ul_hour / BCD_FACTOR) << (RTC_TIMR_HOUR_Pos + BCD_SHIFT)) |
			((ul_hour % BCD_FACTOR) << RTC_TIMR_HOUR_Pos);

	/* Minute */
	ul_time |= ((ul_minute / BCD_FACTOR) << (RTC_TIMR_MIN_Pos + BCD_SHIFT)) |
  400d4e:	ea4f 3606 	mov.w	r6, r6, lsl #12
			((ul_minute % BCD_FACTOR) << RTC_TIMR_MIN_Pos);

	/* Second */
	ul_time |= ((ul_second / BCD_FACTOR) << (RTC_TIMR_SEC_Pos + BCD_SHIFT)) |
  400d52:	ea46 2202 	orr.w	r2, r6, r2, lsl #8
			((ul_second % BCD_FACTOR) << RTC_TIMR_SEC_Pos);
  400d56:	fba4 6503 	umull	r6, r5, r4, r3
  400d5a:	ea4f 05d5 	mov.w	r5, r5, lsr #3
  400d5e:	eb05 0685 	add.w	r6, r5, r5, lsl #2
  400d62:	eba3 0346 	sub.w	r3, r3, r6, lsl #1
			ul_time |= RTC_TIMR_AMPM;
		}
	}

	/* Hour */
	ul_time |= ((ul_hour / BCD_FACTOR) << (RTC_TIMR_HOUR_Pos + BCD_SHIFT)) |
  400d66:	4313      	orrs	r3, r2
  400d68:	ea43 1505 	orr.w	r5, r3, r5, lsl #4
			((ul_hour % BCD_FACTOR) << RTC_TIMR_HOUR_Pos);

	/* Minute */
	ul_time |= ((ul_minute / BCD_FACTOR) << (RTC_TIMR_MIN_Pos + BCD_SHIFT)) |
  400d6c:	433d      	orrs	r5, r7
			ul_time |= RTC_TIMR_AMPM;
		}
	}

	/* Hour */
	ul_time |= ((ul_hour / BCD_FACTOR) << (RTC_TIMR_HOUR_Pos + BCD_SHIFT)) |
  400d6e:	fba4 3401 	umull	r3, r4, r4, r1
  400d72:	ea4f 04d4 	mov.w	r4, r4, lsr #3
			((ul_hour % BCD_FACTOR) << RTC_TIMR_HOUR_Pos);

	/* Minute */
	ul_time |= ((ul_minute / BCD_FACTOR) << (RTC_TIMR_MIN_Pos + BCD_SHIFT)) |
  400d76:	ea45 5504 	orr.w	r5, r5, r4, lsl #20
		}
	}

	/* Hour */
	ul_time |= ((ul_hour / BCD_FACTOR) << (RTC_TIMR_HOUR_Pos + BCD_SHIFT)) |
			((ul_hour % BCD_FACTOR) << RTC_TIMR_HOUR_Pos);
  400d7a:	eb04 0484 	add.w	r4, r4, r4, lsl #2
  400d7e:	eba1 0144 	sub.w	r1, r1, r4, lsl #1
	/* Minute */
	ul_time |= ((ul_minute / BCD_FACTOR) << (RTC_TIMR_MIN_Pos + BCD_SHIFT)) |
			((ul_minute % BCD_FACTOR) << RTC_TIMR_MIN_Pos);

	/* Second */
	ul_time |= ((ul_second / BCD_FACTOR) << (RTC_TIMR_SEC_Pos + BCD_SHIFT)) |
  400d82:	ea45 4101 	orr.w	r1, r5, r1, lsl #16
			((ul_second % BCD_FACTOR) << RTC_TIMR_SEC_Pos);

	/* Update time register. Check the spec for the flow. */
	p_rtc->RTC_CR |= RTC_CR_UPDTIM;
  400d86:	6803      	ldr	r3, [r0, #0]
  400d88:	f043 0301 	orr.w	r3, r3, #1
  400d8c:	6003      	str	r3, [r0, #0]
	while ((p_rtc->RTC_SR & RTC_SR_ACKUPD) != RTC_SR_ACKUPD);
  400d8e:	6983      	ldr	r3, [r0, #24]
  400d90:	f013 0f01 	tst.w	r3, #1
  400d94:	d0fb      	beq.n	400d8e <rtc_set_time+0x72>
	p_rtc->RTC_SCCR = RTC_SCCR_ACKCLR;
  400d96:	f04f 0301 	mov.w	r3, #1
  400d9a:	61c3      	str	r3, [r0, #28]
	p_rtc->RTC_TIMR = ul_time;
  400d9c:	6081      	str	r1, [r0, #8]
	p_rtc->RTC_CR &= (~RTC_CR_UPDTIM);
  400d9e:	6803      	ldr	r3, [r0, #0]
  400da0:	f023 0301 	bic.w	r3, r3, #1
  400da4:	6003      	str	r3, [r0, #0]
	p_rtc->RTC_SCCR |= RTC_SCCR_SECCLR;
  400da6:	69c3      	ldr	r3, [r0, #28]
  400da8:	f043 0304 	orr.w	r3, r3, #4
  400dac:	61c3      	str	r3, [r0, #28]

	return (p_rtc->RTC_VER & RTC_VER_NVTIM);
  400dae:	6ac0      	ldr	r0, [r0, #44]	; 0x2c
}
  400db0:	f000 0001 	and.w	r0, r0, #1
  400db4:	bcf0      	pop	{r4, r5, r6, r7}
  400db6:	4770      	bx	lr

00400db8 <rtc_get_date>:
 * \param pul_day Current day.
 * \param pul_week Current day in current week.
 */
void rtc_get_date(Rtc *p_rtc, uint32_t *pul_year, uint32_t *pul_month,
		uint32_t *pul_day, uint32_t *pul_week)
{
  400db8:	b4f0      	push	{r4, r5, r6, r7}
  400dba:	9e04      	ldr	r6, [sp, #16]
	uint32_t ul_date;
	uint32_t ul_cent;
	uint32_t ul_temp;

	/* Get the current date (multiple reads are necessary to insure a stable value). */
	ul_date = p_rtc->RTC_CALR;
  400dbc:	68c4      	ldr	r4, [r0, #12]
	while (ul_date != p_rtc->RTC_CALR) {
  400dbe:	68c5      	ldr	r5, [r0, #12]
  400dc0:	42ac      	cmp	r4, r5
  400dc2:	d003      	beq.n	400dcc <rtc_get_date+0x14>
		ul_date = p_rtc->RTC_CALR;
  400dc4:	68c4      	ldr	r4, [r0, #12]
	uint32_t ul_cent;
	uint32_t ul_temp;

	/* Get the current date (multiple reads are necessary to insure a stable value). */
	ul_date = p_rtc->RTC_CALR;
	while (ul_date != p_rtc->RTC_CALR) {
  400dc6:	68c5      	ldr	r5, [r0, #12]
  400dc8:	42a5      	cmp	r5, r4
  400dca:	d1fb      	bne.n	400dc4 <rtc_get_date+0xc>
		ul_date = p_rtc->RTC_CALR;
	}

	/* Retrieve year */
	if (pul_year) {
  400dcc:	b1b1      	cbz	r1, 400dfc <rtc_get_date+0x44>
		ul_temp = (ul_date & RTC_CALR_CENT_Msk) >> RTC_CALR_CENT_Pos;
		ul_cent = (ul_temp >> BCD_SHIFT) * BCD_FACTOR + (ul_temp & BCD_MASK);
		ul_temp = (ul_date & RTC_CALR_YEAR_Msk) >> RTC_CALR_YEAR_Pos;
  400dce:	f404 407f 	and.w	r0, r4, #65280	; 0xff00
		*pul_year = (ul_cent * BCD_FACTOR * BCD_FACTOR) +
				(ul_temp >> BCD_SHIFT) * BCD_FACTOR + (ul_temp & BCD_MASK);
  400dd2:	ea4f 3510 	mov.w	r5, r0, lsr #12
  400dd6:	eb05 0585 	add.w	r5, r5, r5, lsl #2
  400dda:	f3c0 2003 	ubfx	r0, r0, #8, #4
	/* Retrieve year */
	if (pul_year) {
		ul_temp = (ul_date & RTC_CALR_CENT_Msk) >> RTC_CALR_CENT_Pos;
		ul_cent = (ul_temp >> BCD_SHIFT) * BCD_FACTOR + (ul_temp & BCD_MASK);
		ul_temp = (ul_date & RTC_CALR_YEAR_Msk) >> RTC_CALR_YEAR_Pos;
		*pul_year = (ul_cent * BCD_FACTOR * BCD_FACTOR) +
  400dde:	eb00 0545 	add.w	r5, r0, r5, lsl #1
	}

	/* Retrieve year */
	if (pul_year) {
		ul_temp = (ul_date & RTC_CALR_CENT_Msk) >> RTC_CALR_CENT_Pos;
		ul_cent = (ul_temp >> BCD_SHIFT) * BCD_FACTOR + (ul_temp & BCD_MASK);
  400de2:	f3c4 1002 	ubfx	r0, r4, #4, #3
  400de6:	eb00 0080 	add.w	r0, r0, r0, lsl #2
  400dea:	f004 070f 	and.w	r7, r4, #15
  400dee:	eb07 0040 	add.w	r0, r7, r0, lsl #1
		ul_temp = (ul_date & RTC_CALR_YEAR_Msk) >> RTC_CALR_YEAR_Pos;
		*pul_year = (ul_cent * BCD_FACTOR * BCD_FACTOR) +
				(ul_temp >> BCD_SHIFT) * BCD_FACTOR + (ul_temp & BCD_MASK);
  400df2:	f04f 0764 	mov.w	r7, #100	; 0x64
  400df6:	fb07 5000 	mla	r0, r7, r0, r5
	/* Retrieve year */
	if (pul_year) {
		ul_temp = (ul_date & RTC_CALR_CENT_Msk) >> RTC_CALR_CENT_Pos;
		ul_cent = (ul_temp >> BCD_SHIFT) * BCD_FACTOR + (ul_temp & BCD_MASK);
		ul_temp = (ul_date & RTC_CALR_YEAR_Msk) >> RTC_CALR_YEAR_Pos;
		*pul_year = (ul_cent * BCD_FACTOR * BCD_FACTOR) +
  400dfa:	6008      	str	r0, [r1, #0]
				(ul_temp >> BCD_SHIFT) * BCD_FACTOR + (ul_temp & BCD_MASK);
	}

	/* Retrieve month */
	if (pul_month) {
  400dfc:	b15a      	cbz	r2, 400e16 <rtc_get_date+0x5e>
		ul_temp = (ul_date & RTC_CALR_MONTH_Msk) >> RTC_CALR_MONTH_Pos;
  400dfe:	f404 11f8 	and.w	r1, r4, #2031616	; 0x1f0000
		*pul_month = (ul_temp >> BCD_SHIFT) * BCD_FACTOR + (ul_temp & BCD_MASK);
  400e02:	ea4f 5011 	mov.w	r0, r1, lsr #20
  400e06:	ea4f 0580 	mov.w	r5, r0, lsl #2
  400e0a:	1828      	adds	r0, r5, r0
  400e0c:	f3c1 4103 	ubfx	r1, r1, #16, #4
  400e10:	eb01 0140 	add.w	r1, r1, r0, lsl #1
  400e14:	6011      	str	r1, [r2, #0]
	}

	/* Retrieve day */
	if (pul_day) {
  400e16:	b153      	cbz	r3, 400e2e <rtc_get_date+0x76>
		ul_temp = (ul_date & RTC_CALR_DATE_Msk) >> RTC_CALR_DATE_Pos;
  400e18:	f004 527c 	and.w	r2, r4, #1056964608	; 0x3f000000
		*pul_day = (ul_temp >> BCD_SHIFT) * BCD_FACTOR + (ul_temp & BCD_MASK);
  400e1c:	ea4f 7112 	mov.w	r1, r2, lsr #28
  400e20:	eb01 0181 	add.w	r1, r1, r1, lsl #2
  400e24:	f3c2 6203 	ubfx	r2, r2, #24, #4
  400e28:	eb02 0241 	add.w	r2, r2, r1, lsl #1
  400e2c:	601a      	str	r2, [r3, #0]
	}

	/* Retrieve week */
	if (pul_week) {
  400e2e:	b116      	cbz	r6, 400e36 <rtc_get_date+0x7e>
		*pul_week = ((ul_date & RTC_CALR_DAY_Msk) >> RTC_CALR_DAY_Pos);
  400e30:	f3c4 5442 	ubfx	r4, r4, #21, #3
  400e34:	6034      	str	r4, [r6, #0]
	}
}
  400e36:	bcf0      	pop	{r4, r5, r6, r7}
  400e38:	4770      	bx	lr
  400e3a:	bf00      	nop

00400e3c <rtc_set_date>:
 *
 * \return 0 for OK, else invalid setting.
 */
uint32_t rtc_set_date(Rtc *p_rtc, uint32_t ul_year, uint32_t ul_month,
		uint32_t ul_day, uint32_t ul_week)
{
  400e3c:	b4f0      	push	{r4, r5, r6, r7}
	uint32_t ul_date = 0;

	/* Cent */
	ul_date |= ((ul_year / BCD_FACTOR / BCD_FACTOR / BCD_FACTOR) <<
			(RTC_CALR_CENT_Pos + BCD_SHIFT) |
			((ul_year / BCD_FACTOR / BCD_FACTOR) % BCD_FACTOR) <<  RTC_CALR_CENT_Pos);
  400e3e:	f248 551f 	movw	r5, #34079	; 0x851f
  400e42:	f2c5 15eb 	movt	r5, #20971	; 0x51eb
  400e46:	fba5 4501 	umull	r4, r5, r5, r1
  400e4a:	ea4f 1555 	mov.w	r5, r5, lsr #5
  400e4e:	f64c 44cd 	movw	r4, #52429	; 0xcccd
  400e52:	f6cc 44cc 	movt	r4, #52428	; 0xcccc
  400e56:	fba4 7605 	umull	r7, r6, r4, r5
  400e5a:	ea4f 06d6 	mov.w	r6, r6, lsr #3
  400e5e:	eb06 0686 	add.w	r6, r6, r6, lsl #2
  400e62:	eba5 0646 	sub.w	r6, r5, r6, lsl #1
		uint32_t ul_day, uint32_t ul_week)
{
	uint32_t ul_date = 0;

	/* Cent */
	ul_date |= ((ul_year / BCD_FACTOR / BCD_FACTOR / BCD_FACTOR) <<
  400e66:	f644 55d3 	movw	r5, #19923	; 0x4dd3
  400e6a:	f2c1 0562 	movt	r5, #4194	; 0x1062
  400e6e:	fba5 7501 	umull	r7, r5, r5, r1
  400e72:	ea4f 1595 	mov.w	r5, r5, lsr #6

	/* Week */
	ul_date |= (ul_week << RTC_CALR_DAY_Pos);

	/* Day */
	ul_date |= ((ul_day / BCD_FACTOR) << (RTC_CALR_DATE_Pos + BCD_SHIFT)) |
  400e76:	ea46 1605 	orr.w	r6, r6, r5, lsl #4
			((ul_year / BCD_FACTOR / BCD_FACTOR) % BCD_FACTOR) <<  RTC_CALR_CENT_Pos);

	/* Year */
	ul_date |= (((ul_year / BCD_FACTOR) % BCD_FACTOR) <<
			(RTC_CALR_YEAR_Pos + BCD_SHIFT)) |
			((ul_year % BCD_FACTOR) << RTC_CALR_YEAR_Pos);
  400e7a:	fba4 7501 	umull	r7, r5, r4, r1
  400e7e:	ea4f 05d5 	mov.w	r5, r5, lsr #3
  400e82:	eb05 0785 	add.w	r7, r5, r5, lsl #2
  400e86:	eba1 0147 	sub.w	r1, r1, r7, lsl #1
			(RTC_CALR_CENT_Pos + BCD_SHIFT) |
			((ul_year / BCD_FACTOR / BCD_FACTOR) % BCD_FACTOR) <<  RTC_CALR_CENT_Pos);

	/* Year */
	ul_date |= (((ul_year / BCD_FACTOR) % BCD_FACTOR) <<
			(RTC_CALR_YEAR_Pos + BCD_SHIFT)) |
  400e8a:	ea46 2101 	orr.w	r1, r6, r1, lsl #8
	ul_date |= ((ul_year / BCD_FACTOR / BCD_FACTOR / BCD_FACTOR) <<
			(RTC_CALR_CENT_Pos + BCD_SHIFT) |
			((ul_year / BCD_FACTOR / BCD_FACTOR) % BCD_FACTOR) <<  RTC_CALR_CENT_Pos);

	/* Year */
	ul_date |= (((ul_year / BCD_FACTOR) % BCD_FACTOR) <<
  400e8e:	fba4 7605 	umull	r7, r6, r4, r5
  400e92:	ea4f 06d6 	mov.w	r6, r6, lsr #3
  400e96:	eb06 0686 	add.w	r6, r6, r6, lsl #2
  400e9a:	eba5 0546 	sub.w	r5, r5, r6, lsl #1
  400e9e:	ea41 3505 	orr.w	r5, r1, r5, lsl #12
			(RTC_CALR_YEAR_Pos + BCD_SHIFT)) |
			((ul_year % BCD_FACTOR) << RTC_CALR_YEAR_Pos);

	/* Month */
	ul_date |= ((ul_month / BCD_FACTOR) << (RTC_CALR_MONTH_Pos + BCD_SHIFT)) |
  400ea2:	fba4 1602 	umull	r1, r6, r4, r2
  400ea6:	ea4f 06d6 	mov.w	r6, r6, lsr #3
{
	uint32_t ul_date = 0;

	/* Cent */
	ul_date |= ((ul_year / BCD_FACTOR / BCD_FACTOR / BCD_FACTOR) <<
			(RTC_CALR_CENT_Pos + BCD_SHIFT) |
  400eaa:	ea45 5506 	orr.w	r5, r5, r6, lsl #20
			(RTC_CALR_YEAR_Pos + BCD_SHIFT)) |
			((ul_year % BCD_FACTOR) << RTC_CALR_YEAR_Pos);

	/* Month */
	ul_date |= ((ul_month / BCD_FACTOR) << (RTC_CALR_MONTH_Pos + BCD_SHIFT)) |
			((ul_month % BCD_FACTOR) << RTC_CALR_MONTH_Pos);
  400eae:	eb06 0686 	add.w	r6, r6, r6, lsl #2
  400eb2:	eba2 0246 	sub.w	r2, r2, r6, lsl #1
	ul_date |= (((ul_year / BCD_FACTOR) % BCD_FACTOR) <<
			(RTC_CALR_YEAR_Pos + BCD_SHIFT)) |
			((ul_year % BCD_FACTOR) << RTC_CALR_YEAR_Pos);

	/* Month */
	ul_date |= ((ul_month / BCD_FACTOR) << (RTC_CALR_MONTH_Pos + BCD_SHIFT)) |
  400eb6:	ea45 4202 	orr.w	r2, r5, r2, lsl #16
  400eba:	9904      	ldr	r1, [sp, #16]
  400ebc:	ea42 5141 	orr.w	r1, r2, r1, lsl #21

	/* Week */
	ul_date |= (ul_week << RTC_CALR_DAY_Pos);

	/* Day */
	ul_date |= ((ul_day / BCD_FACTOR) << (RTC_CALR_DATE_Pos + BCD_SHIFT)) |
  400ec0:	fba4 2403 	umull	r2, r4, r4, r3
  400ec4:	ea4f 04d4 	mov.w	r4, r4, lsr #3
	/* Month */
	ul_date |= ((ul_month / BCD_FACTOR) << (RTC_CALR_MONTH_Pos + BCD_SHIFT)) |
			((ul_month % BCD_FACTOR) << RTC_CALR_MONTH_Pos);

	/* Week */
	ul_date |= (ul_week << RTC_CALR_DAY_Pos);
  400ec8:	ea41 7104 	orr.w	r1, r1, r4, lsl #28

	/* Day */
	ul_date |= ((ul_day / BCD_FACTOR) << (RTC_CALR_DATE_Pos + BCD_SHIFT)) |
			((ul_day % BCD_FACTOR) << RTC_CALR_DATE_Pos);
  400ecc:	eb04 0484 	add.w	r4, r4, r4, lsl #2
  400ed0:	eba3 0344 	sub.w	r3, r3, r4, lsl #1

	/* Week */
	ul_date |= (ul_week << RTC_CALR_DAY_Pos);

	/* Day */
	ul_date |= ((ul_day / BCD_FACTOR) << (RTC_CALR_DATE_Pos + BCD_SHIFT)) |
  400ed4:	ea41 6303 	orr.w	r3, r1, r3, lsl #24
			((ul_day % BCD_FACTOR) << RTC_CALR_DATE_Pos);

	/* Update calendar register. Check the spec for the flow. */
	p_rtc->RTC_CR |= RTC_CR_UPDCAL;
  400ed8:	6802      	ldr	r2, [r0, #0]
  400eda:	f042 0202 	orr.w	r2, r2, #2
  400ede:	6002      	str	r2, [r0, #0]
	while ((p_rtc->RTC_SR & RTC_SR_ACKUPD) != RTC_SR_ACKUPD);
  400ee0:	6982      	ldr	r2, [r0, #24]
  400ee2:	f012 0f01 	tst.w	r2, #1
  400ee6:	d0fb      	beq.n	400ee0 <rtc_set_date+0xa4>

	p_rtc->RTC_SCCR = RTC_SCCR_ACKCLR;
  400ee8:	f04f 0201 	mov.w	r2, #1
  400eec:	61c2      	str	r2, [r0, #28]
	p_rtc->RTC_CALR = ul_date;
  400eee:	60c3      	str	r3, [r0, #12]
	p_rtc->RTC_CR &= (~RTC_CR_UPDCAL);
  400ef0:	6803      	ldr	r3, [r0, #0]
  400ef2:	f023 0302 	bic.w	r3, r3, #2
  400ef6:	6003      	str	r3, [r0, #0]
	/* Clear SECENV in SCCR */
	p_rtc->RTC_SCCR |= RTC_SCCR_SECCLR;
  400ef8:	69c3      	ldr	r3, [r0, #28]
  400efa:	f043 0304 	orr.w	r3, r3, #4
  400efe:	61c3      	str	r3, [r0, #28]

	return (p_rtc->RTC_VER & RTC_VER_NVCAL);
  400f00:	6ac0      	ldr	r0, [r0, #44]	; 0x2c
}
  400f02:	f000 0002 	and.w	r0, r0, #2
  400f06:	bcf0      	pop	{r4, r5, r6, r7}
  400f08:	4770      	bx	lr
  400f0a:	bf00      	nop

00400f0c <rtc_get_status>:
 *
 * \return Status of the RTC.
 */
uint32_t rtc_get_status(Rtc *p_rtc)
{
	return (p_rtc->RTC_SR);
  400f0c:	6980      	ldr	r0, [r0, #24]
}
  400f0e:	4770      	bx	lr

00400f10 <rtc_clear_status>:
 * \param p_rtc Pointer to an RTC instance.
 * \param ul_clear Some flag bits which will be cleared.
 */
void rtc_clear_status(Rtc *p_rtc, uint32_t ul_clear)
{
	p_rtc->RTC_SCCR = ul_clear;
  400f10:	61c1      	str	r1, [r0, #28]
  400f12:	4770      	bx	lr

00400f14 <rtt_init>:
 * \return 0 if successful.
 */
uint32_t rtt_init(Rtt *p_rtt, uint16_t us_prescaler)
{
#if (SAM4N || SAM4S || SAM4E || SAM4C || SAMG || SAM4CP)
	p_rtt->RTT_MR = (us_prescaler | RTT_MR_RTTRST | g_wobits_in_rtt_mr);
  400f14:	f241 33b8 	movw	r3, #5048	; 0x13b8
  400f18:	f2c2 0300 	movt	r3, #8192	; 0x2000
  400f1c:	681b      	ldr	r3, [r3, #0]
  400f1e:	f443 2380 	orr.w	r3, r3, #262144	; 0x40000
  400f22:	4319      	orrs	r1, r3
  400f24:	6001      	str	r1, [r0, #0]
#else
	p_rtt->RTT_MR = (us_prescaler | RTT_MR_RTTRST);
#endif
	return 0;
}
  400f26:	f04f 0000 	mov.w	r0, #0
  400f2a:	4770      	bx	lr

00400f2c <rtt_sel_source>:
 * \param p_rtt Pointer to an RTT instance.
 * \param is_rtc_sel RTC 1Hz Clock Selection.
 */
void rtt_sel_source(Rtt *p_rtt, bool is_rtc_sel)
{
	if(is_rtc_sel) {
  400f2c:	b159      	cbz	r1, 400f46 <rtt_sel_source+0x1a>
		g_wobits_in_rtt_mr |= RTT_MR_RTC1HZ;
  400f2e:	f241 33b8 	movw	r3, #5048	; 0x13b8
  400f32:	f2c2 0300 	movt	r3, #8192	; 0x2000
  400f36:	681a      	ldr	r2, [r3, #0]
  400f38:	f042 7280 	orr.w	r2, r2, #16777216	; 0x1000000
  400f3c:	601a      	str	r2, [r3, #0]
		p_rtt->RTT_MR |= g_wobits_in_rtt_mr;
  400f3e:	6803      	ldr	r3, [r0, #0]
  400f40:	431a      	orrs	r2, r3
  400f42:	6002      	str	r2, [r0, #0]
  400f44:	4770      	bx	lr
	} else {
		g_wobits_in_rtt_mr &= ~RTT_MR_RTC1HZ;
  400f46:	f241 33b8 	movw	r3, #5048	; 0x13b8
  400f4a:	f2c2 0300 	movt	r3, #8192	; 0x2000
  400f4e:	681a      	ldr	r2, [r3, #0]
  400f50:	f022 7280 	bic.w	r2, r2, #16777216	; 0x1000000
  400f54:	601a      	str	r2, [r3, #0]
		p_rtt->RTT_MR |= g_wobits_in_rtt_mr;
  400f56:	6803      	ldr	r3, [r0, #0]
  400f58:	431a      	orrs	r2, r3
  400f5a:	6002      	str	r2, [r0, #0]
  400f5c:	4770      	bx	lr
  400f5e:	bf00      	nop

00400f60 <rtt_enable_interrupt>:
 */
void rtt_enable_interrupt(Rtt *p_rtt, uint32_t ul_sources)
{
	uint32_t temp;

	temp = p_rtt->RTT_MR;
  400f60:	6802      	ldr	r2, [r0, #0]
	temp |= ul_sources;
  400f62:	f241 33b8 	movw	r3, #5048	; 0x13b8
  400f66:	f2c2 0300 	movt	r3, #8192	; 0x2000
  400f6a:	681b      	ldr	r3, [r3, #0]
  400f6c:	4313      	orrs	r3, r2
#if (SAM4N || SAM4S || SAM4E || SAM4C || SAMG || SAM4CP)
	temp |= g_wobits_in_rtt_mr;
  400f6e:	4319      	orrs	r1, r3
#endif
	p_rtt->RTT_MR = temp;
  400f70:	6001      	str	r1, [r0, #0]
  400f72:	4770      	bx	lr

00400f74 <rtt_read_timer_value>:
 *
 * \return The current Real-time Timer value.
 */
uint32_t rtt_read_timer_value(Rtt *p_rtt)
{
	return p_rtt->RTT_VR;
  400f74:	6880      	ldr	r0, [r0, #8]
}
  400f76:	4770      	bx	lr

00400f78 <rtt_get_status>:
 *
 * \return The Real-time Timer status.
 */
uint32_t rtt_get_status(Rtt *p_rtt)
{
	return p_rtt->RTT_SR;
  400f78:	68c0      	ldr	r0, [r0, #12]
}
  400f7a:	4770      	bx	lr

00400f7c <adc_init>:
 *
 * \return 0 on success.
 */
uint32_t adc_init(Adc *p_adc, const uint32_t ul_mck,
		const uint32_t ul_adc_clock, const enum adc_startup_time startup)
{
  400f7c:	b430      	push	{r4, r5}
	uint32_t ul_prescal;

	/*  Reset the controller. */
	p_adc->ADC_CR = ADC_CR_SWRST;
  400f7e:	f04f 0401 	mov.w	r4, #1
  400f82:	6004      	str	r4, [r0, #0]

	/* Reset Mode Register. */
	p_adc->ADC_MR = 0;
  400f84:	f04f 0400 	mov.w	r4, #0
  400f88:	6044      	str	r4, [r0, #4]

	/* Reset PDC transfer. */
	p_adc->ADC_PTCR = (ADC_PTCR_RXTDIS | ADC_PTCR_TXTDIS);
  400f8a:	f240 2502 	movw	r5, #514	; 0x202
  400f8e:	f8c0 5120 	str.w	r5, [r0, #288]	; 0x120
	p_adc->ADC_RCR = 0;
  400f92:	f8c0 4104 	str.w	r4, [r0, #260]	; 0x104
	p_adc->ADC_RNCR = 0;
  400f96:	f8c0 4114 	str.w	r4, [r0, #276]	; 0x114

	ul_prescal = ul_mck / (2 * ul_adc_clock) - 1;
	p_adc->ADC_MR |= ADC_MR_PRESCAL(ul_prescal) | startup;
  400f9a:	6845      	ldr	r5, [r0, #4]
  400f9c:	432b      	orrs	r3, r5
	/* Reset PDC transfer. */
	p_adc->ADC_PTCR = (ADC_PTCR_RXTDIS | ADC_PTCR_TXTDIS);
	p_adc->ADC_RCR = 0;
	p_adc->ADC_RNCR = 0;

	ul_prescal = ul_mck / (2 * ul_adc_clock) - 1;
  400f9e:	ea4f 0242 	mov.w	r2, r2, lsl #1
  400fa2:	fbb1 f1f2 	udiv	r1, r1, r2
  400fa6:	f101 32ff 	add.w	r2, r1, #4294967295	; 0xffffffff
	p_adc->ADC_MR |= ADC_MR_PRESCAL(ul_prescal) | startup;
  400faa:	ea4f 6202 	mov.w	r2, r2, lsl #24
  400fae:	ea43 4312 	orr.w	r3, r3, r2, lsr #16
  400fb2:	6043      	str	r3, [r0, #4]
	return 0;
}
  400fb4:	4620      	mov	r0, r4
  400fb6:	bc30      	pop	{r4, r5}
  400fb8:	4770      	bx	lr
  400fba:	bf00      	nop

00400fbc <adc_set_resolution>:
		p_adc->ADC_MR &= ~ADC_MR_LOWRES;
		p_adc->ADC_EMR |= resolution;
		break;
	}
#else
	p_adc->ADC_MR |= (resolution << 4) & ADC_MR_LOWRES;
  400fbc:	6843      	ldr	r3, [r0, #4]
  400fbe:	ea4f 1101 	mov.w	r1, r1, lsl #4
  400fc2:	f001 0110 	and.w	r1, r1, #16
  400fc6:	430b      	orrs	r3, r1
  400fc8:	6043      	str	r3, [r0, #4]
  400fca:	4770      	bx	lr

00400fcc <adc_configure_trigger>:
 *
 */
void adc_configure_trigger(Adc *p_adc, const enum adc_trigger_t trigger,
		uint8_t uc_freerun)
{
	p_adc->ADC_MR |= trigger | ((uc_freerun << 7) & ADC_MR_FREERUN);
  400fcc:	6843      	ldr	r3, [r0, #4]
  400fce:	4319      	orrs	r1, r3
  400fd0:	ea4f 12c2 	mov.w	r2, r2, lsl #7
  400fd4:	b2d3      	uxtb	r3, r2
  400fd6:	4319      	orrs	r1, r3
  400fd8:	6041      	str	r1, [r0, #4]
  400fda:	4770      	bx	lr

00400fdc <adc_configure_power_save>:
 * \param uc_fwup ADC_MR_FWUP_OFF configures sleep mode as uc_sleep setting,
 * ADC_MR_FWUP_ON keeps voltage reference ON and ADC Core OFF between conversions.
 */
void adc_configure_power_save(Adc *p_adc, const uint8_t uc_sleep, const uint8_t uc_fwup)
{
	p_adc->ADC_MR |= (((uc_sleep << 5) & ADC_MR_SLEEP) |
  400fdc:	6843      	ldr	r3, [r0, #4]
			((uc_fwup << 6) & ADC_MR_FWUP));
  400fde:	ea4f 1282 	mov.w	r2, r2, lsl #6
  400fe2:	f002 0240 	and.w	r2, r2, #64	; 0x40
 * \param uc_fwup ADC_MR_FWUP_OFF configures sleep mode as uc_sleep setting,
 * ADC_MR_FWUP_ON keeps voltage reference ON and ADC Core OFF between conversions.
 */
void adc_configure_power_save(Adc *p_adc, const uint8_t uc_sleep, const uint8_t uc_fwup)
{
	p_adc->ADC_MR |= (((uc_sleep << 5) & ADC_MR_SLEEP) |
  400fe6:	ea4f 1141 	mov.w	r1, r1, lsl #5
  400fea:	f001 0120 	and.w	r1, r1, #32
  400fee:	430a      	orrs	r2, r1
  400ff0:	4313      	orrs	r3, r2
  400ff2:	6043      	str	r3, [r0, #4]
  400ff4:	4770      	bx	lr
  400ff6:	bf00      	nop

00400ff8 <adc_configure_timing>:
 * \param uc_settling Analog settling time = (uc_settling + 1) / ADC clock.
 * \param uc_transfer Data transfer time = (uc_transfer * 2 + 3) / ADC clock.
 */
void adc_configure_timing(Adc *p_adc, const uint8_t uc_tracking,
		const enum adc_settling_time_t settling,const uint8_t uc_transfer)
{
  400ff8:	b410      	push	{r4}
	p_adc->ADC_MR |= ADC_MR_TRANSFER(uc_transfer)
  400ffa:	6844      	ldr	r4, [r0, #4]
			| settling | ADC_MR_TRACKTIM(uc_tracking);
  400ffc:	4322      	orrs	r2, r4
  400ffe:	ea4f 6101 	mov.w	r1, r1, lsl #24
  401002:	f001 6470 	and.w	r4, r1, #251658240	; 0xf000000
  401006:	4322      	orrs	r2, r4
 * \param uc_transfer Data transfer time = (uc_transfer * 2 + 3) / ADC clock.
 */
void adc_configure_timing(Adc *p_adc, const uint8_t uc_tracking,
		const enum adc_settling_time_t settling,const uint8_t uc_transfer)
{
	p_adc->ADC_MR |= ADC_MR_TRANSFER(uc_transfer)
  401008:	ea4f 7303 	mov.w	r3, r3, lsl #28
  40100c:	f003 5340 	and.w	r3, r3, #805306368	; 0x30000000
  401010:	431a      	orrs	r2, r3
  401012:	6042      	str	r2, [r0, #4]
			| settling | ADC_MR_TRACKTIM(uc_tracking);
}
  401014:	bc10      	pop	{r4}
  401016:	4770      	bx	lr

00401018 <adc_disable_anch>:
 *
 * \param p_Adc Pointer to an ADC instance.
 */
void adc_disable_anch(Adc *p_adc)
{
	p_adc->ADC_MR &= ~ADC_MR_ANACH;
  401018:	6843      	ldr	r3, [r0, #4]
  40101a:	f423 0300 	bic.w	r3, r3, #8388608	; 0x800000
  40101e:	6043      	str	r3, [r0, #4]
  401020:	4770      	bx	lr
  401022:	bf00      	nop

00401024 <adc_start>:
 * \param p_adc Pointer to an ADC instance.
 */

void adc_start(Adc *p_adc)
{
	p_adc->ADC_CR = ADC_CR_START;
  401024:	f04f 0302 	mov.w	r3, #2
  401028:	6003      	str	r3, [r0, #0]
  40102a:	4770      	bx	lr

0040102c <adc_enable_channel>:
 * \param p_adc Pointer to an ADC instance.
 * \param adc_ch ADC channel number.
 */
void adc_enable_channel(Adc *p_adc, const enum adc_channel_num_t adc_ch)
{
	p_adc->ADC_CHER = 1 << adc_ch;
  40102c:	f04f 0301 	mov.w	r3, #1
  401030:	fa03 f101 	lsl.w	r1, r3, r1
  401034:	6101      	str	r1, [r0, #16]
  401036:	4770      	bx	lr

00401038 <adc_get_latest_value>:
 *
 * \return ADC latest value.
 */
uint32_t adc_get_latest_value(const Adc *p_adc)
{
	return p_adc->ADC_LCDR;
  401038:	6a00      	ldr	r0, [r0, #32]
}
  40103a:	4770      	bx	lr

0040103c <adc_enable_tag>:
 *
 * \param p_adc Pointer to an ADC instance.
 */
void adc_enable_tag(Adc *p_adc)
{
	p_adc->ADC_EMR |= ADC_EMR_TAG;
  40103c:	6c03      	ldr	r3, [r0, #64]	; 0x40
  40103e:	f043 7380 	orr.w	r3, r3, #16777216	; 0x1000000
  401042:	6403      	str	r3, [r0, #64]	; 0x40
  401044:	4770      	bx	lr
  401046:	bf00      	nop

00401048 <adc_enable_interrupt>:
 * \param p_adc Pointer to an ADC instance.
 * \param ul_source Interrupts to be enabled.
 */
void adc_enable_interrupt(Adc *p_adc, const uint32_t ul_source)
{
	p_adc->ADC_IER = ul_source;
  401048:	6241      	str	r1, [r0, #36]	; 0x24
  40104a:	4770      	bx	lr

0040104c <adc_get_status>:
 *
 * \return ADC status structure.
 */
uint32_t adc_get_status(const Adc *p_adc)
{
	return p_adc->ADC_ISR;
  40104c:	6b00      	ldr	r0, [r0, #48]	; 0x30
}
  40104e:	4770      	bx	lr

00401050 <uart_is_tx_ready>:
 * \retval 1 Data has been transmitted.
 * \retval 0 Transmit is not ready, data pending.
 */
uint32_t uart_is_tx_ready(Uart *p_uart)
{
	return (p_uart->UART_SR & UART_SR_TXRDY) > 0;
  401050:	6940      	ldr	r0, [r0, #20]
}
  401052:	f3c0 0040 	ubfx	r0, r0, #1, #1
  401056:	4770      	bx	lr

00401058 <uart_write>:
 * \retval 1 I/O Failure, UART is not ready.
 */
uint32_t uart_write(Uart *p_uart, const uint8_t uc_data)
{
	/* Check if the transmitter is ready */
	if (!(p_uart->UART_SR & UART_SR_TXRDY))
  401058:	6943      	ldr	r3, [r0, #20]
  40105a:	f013 0f02 	tst.w	r3, #2
		return 1;

	/* Send character */
	p_uart->UART_THR = uc_data;
  40105e:	bf1a      	itte	ne
  401060:	61c1      	strne	r1, [r0, #28]
	return 0;
  401062:	2000      	movne	r0, #0
 */
uint32_t uart_write(Uart *p_uart, const uint8_t uc_data)
{
	/* Check if the transmitter is ready */
	if (!(p_uart->UART_SR & UART_SR_TXRDY))
		return 1;
  401064:	2001      	moveq	r0, #1

	/* Send character */
	p_uart->UART_THR = uc_data;
	return 0;
}
  401066:	4770      	bx	lr

00401068 <uart_read>:
 * \retval 1 I/O Failure, UART is not ready.
 */
uint32_t uart_read(Uart *p_uart, uint8_t *puc_data)
{
	/* Check if the receiver is ready */
	if ((p_uart->UART_SR & UART_SR_RXRDY) == 0)
  401068:	6943      	ldr	r3, [r0, #20]
  40106a:	f013 0f01 	tst.w	r3, #1
		return 1;

	/* Read character */
	*puc_data = (uint8_t) p_uart->UART_RHR;
  40106e:	bf1d      	ittte	ne
  401070:	6983      	ldrne	r3, [r0, #24]
  401072:	700b      	strbne	r3, [r1, #0]
	return 0;
  401074:	2000      	movne	r0, #0
 */
uint32_t uart_read(Uart *p_uart, uint8_t *puc_data)
{
	/* Check if the receiver is ready */
	if ((p_uart->UART_SR & UART_SR_RXRDY) == 0)
		return 1;
  401076:	2001      	moveq	r0, #1

	/* Read character */
	*puc_data = (uint8_t) p_uart->UART_RHR;
	return 0;
}
  401078:	4770      	bx	lr
  40107a:	bf00      	nop

0040107c <usart_enable_tx>:
 *
 * \param p_usart Pointer to a USART instance.
 */
void usart_enable_tx(Usart *p_usart)
{
	p_usart->US_CR = US_CR_TXEN;
  40107c:	f04f 0340 	mov.w	r3, #64	; 0x40
  401080:	6003      	str	r3, [r0, #0]
  401082:	4770      	bx	lr

00401084 <usart_reset_tx>:
 * \param p_usart Pointer to a USART instance.
 */
void usart_reset_tx(Usart *p_usart)
{
	/* Reset transmitter */
	p_usart->US_CR = US_CR_RSTTX | US_CR_TXDIS;
  401084:	f04f 0388 	mov.w	r3, #136	; 0x88
  401088:	6003      	str	r3, [r0, #0]
  40108a:	4770      	bx	lr

0040108c <usart_enable_rx>:
 *
 * \param p_usart Pointer to a USART instance.
 */
void usart_enable_rx(Usart *p_usart)
{
	p_usart->US_CR = US_CR_RXEN;
  40108c:	f04f 0310 	mov.w	r3, #16
  401090:	6003      	str	r3, [r0, #0]
  401092:	4770      	bx	lr

00401094 <usart_reset_rx>:
 * \param p_usart Pointer to a USART instance.
 */
void usart_reset_rx(Usart *p_usart)
{
	/* Reset Receiver */
	p_usart->US_CR = US_CR_RSTRX | US_CR_RXDIS;
  401094:	f04f 0324 	mov.w	r3, #36	; 0x24
  401098:	6003      	str	r3, [r0, #0]
  40109a:	4770      	bx	lr

0040109c <usart_reset_status>:
 *
 * \param p_usart Pointer to a USART instance.
 */
void usart_reset_status(Usart *p_usart)
{
	p_usart->US_CR = US_CR_RSTSTA;
  40109c:	f44f 7380 	mov.w	r3, #256	; 0x100
  4010a0:	6003      	str	r3, [r0, #0]
  4010a2:	4770      	bx	lr

004010a4 <usart_drive_DTR_pin_high>:
 *
 * \param p_usart Pointer to a USART instance.
 */
void usart_drive_DTR_pin_high(Usart *p_usart)
{
	p_usart->US_CR = US_CR_DTRDIS;
  4010a4:	f44f 3300 	mov.w	r3, #131072	; 0x20000
  4010a8:	6003      	str	r3, [r0, #0]
  4010aa:	4770      	bx	lr

004010ac <usart_drive_RTS_pin_high>:
 *
 * \param p_usart Pointer to a USART instance.
 */
void usart_drive_RTS_pin_high(Usart *p_usart)
{
	p_usart->US_CR = US_CR_RTSDIS;
  4010ac:	f44f 2300 	mov.w	r3, #524288	; 0x80000
  4010b0:	6003      	str	r3, [r0, #0]
  4010b2:	4770      	bx	lr

004010b4 <usart_reset>:
 * \brief Reset the USART and disable TX and RX.
 *
 * \param p_usart Pointer to a USART instance.
 */
void usart_reset(Usart *p_usart)
{
  4010b4:	b510      	push	{r4, lr}
  4010b6:	4604      	mov	r4, r0
	/* Disable the Write Protect. */
	usart_disable_writeprotect(p_usart);

	/* Reset registers that could cause unpredictable behavior after reset. */
	p_usart->US_MR = 0;
  4010b8:	f04f 0300 	mov.w	r3, #0
  4010bc:	6043      	str	r3, [r0, #4]
	p_usart->US_RTOR = 0;
  4010be:	6243      	str	r3, [r0, #36]	; 0x24
	p_usart->US_TTGR = 0;
  4010c0:	6283      	str	r3, [r0, #40]	; 0x28

	/* Disable TX and RX. */
	usart_reset_tx(p_usart);
  4010c2:	f241 0385 	movw	r3, #4229	; 0x1085
  4010c6:	f2c0 0340 	movt	r3, #64	; 0x40
  4010ca:	4798      	blx	r3
	usart_reset_rx(p_usart);
  4010cc:	4620      	mov	r0, r4
  4010ce:	f241 0395 	movw	r3, #4245	; 0x1095
  4010d2:	f2c0 0340 	movt	r3, #64	; 0x40
  4010d6:	4798      	blx	r3
	/* Reset status bits. */
	usart_reset_status(p_usart);
  4010d8:	4620      	mov	r0, r4
  4010da:	f241 039d 	movw	r3, #4253	; 0x109d
  4010de:	f2c0 0340 	movt	r3, #64	; 0x40
  4010e2:	4798      	blx	r3
	/* Turn off RTS and DTR if exist. */
	usart_drive_RTS_pin_high(p_usart);
  4010e4:	4620      	mov	r0, r4
  4010e6:	f241 03ad 	movw	r3, #4269	; 0x10ad
  4010ea:	f2c0 0340 	movt	r3, #64	; 0x40
  4010ee:	4798      	blx	r3
#if (SAM3S || SAM4S || SAM3U || SAM4L || SAM4E)
	usart_drive_DTR_pin_high(p_usart);
  4010f0:	4620      	mov	r0, r4
  4010f2:	f241 03a5 	movw	r3, #4261	; 0x10a5
  4010f6:	f2c0 0340 	movt	r3, #64	; 0x40
  4010fa:	4798      	blx	r3
  4010fc:	bd10      	pop	{r4, pc}
  4010fe:	bf00      	nop

00401100 <usart_init_rs232>:
 * \retval 0 on success.
 * \retval 1 on failure.
 */
uint32_t usart_init_rs232(Usart *p_usart,
		const sam_usart_opt_t *p_usart_opt, uint32_t ul_mck)
{
  401100:	b570      	push	{r4, r5, r6, lr}
  401102:	4605      	mov	r5, r0
  401104:	460c      	mov	r4, r1
  401106:	4616      	mov	r6, r2
	static uint32_t ul_reg_val;

	/* Reset the USART and shut down TX and RX. */
	usart_reset(p_usart);
  401108:	f241 03b5 	movw	r3, #4277	; 0x10b5
  40110c:	f2c0 0340 	movt	r3, #64	; 0x40
  401110:	4798      	blx	r3

	ul_reg_val = 0;
  401112:	f241 33bc 	movw	r3, #5052	; 0x13bc
  401116:	f2c2 0300 	movt	r3, #8192	; 0x2000
  40111a:	f04f 0100 	mov.w	r1, #0
  40111e:	6019      	str	r1, [r3, #0]
	/* Check whether the input values are legal. */
	if (!p_usart_opt || usart_set_async_baudrate(p_usart,
  401120:	b1f4      	cbz	r4, 401160 <usart_init_rs232+0x60>
  401122:	6822      	ldr	r2, [r4, #0]
	uint32_t cd_fp;
	uint32_t cd;
	uint32_t fp;

	/* Calculate the receiver sampling divide of baudrate clock. */
	if (ul_mck >= HIGH_FRQ_SAMPLE_DIV * baudrate) {
  401124:	ea4f 1302 	mov.w	r3, r2, lsl #4
  401128:	429e      	cmp	r6, r3
  40112a:	d235      	bcs.n	401198 <usart_init_rs232+0x98>
  40112c:	e021      	b.n	401172 <usart_init_rs232+0x72>
		return 1;
	}

	/* Configure the OVER bit in MR register. */
	if (over == 8) {
		p_usart->US_MR |= US_MR_OVER;
  40112e:	6869      	ldr	r1, [r5, #4]
  401130:	f441 2100 	orr.w	r1, r1, #524288	; 0x80000
  401134:	6069      	str	r1, [r5, #4]
	}

	/* Configure the baudrate generate register. */
	p_usart->US_BRGR = (cd << US_BRGR_CD_Pos) | (fp << US_BRGR_FP_Pos);
  401136:	ea42 4303 	orr.w	r3, r2, r3, lsl #16
  40113a:	622b      	str	r3, [r5, #32]
			p_usart_opt->baudrate, ul_mck)) {
		return 1;
	}

	/* Configure the USART option. */
	ul_reg_val |= p_usart_opt->char_length | p_usart_opt->parity_type |
  40113c:	68a2      	ldr	r2, [r4, #8]
  40113e:	6863      	ldr	r3, [r4, #4]
  401140:	431a      	orrs	r2, r3
  401142:	6923      	ldr	r3, [r4, #16]
  401144:	431a      	orrs	r2, r3
			p_usart_opt->channel_mode | p_usart_opt->stop_bits;
  401146:	68e1      	ldr	r1, [r4, #12]
  401148:	430a      	orrs	r2, r1
			p_usart_opt->baudrate, ul_mck)) {
		return 1;
	}

	/* Configure the USART option. */
	ul_reg_val |= p_usart_opt->char_length | p_usart_opt->parity_type |
  40114a:	f241 33bc 	movw	r3, #5052	; 0x13bc
  40114e:	f2c2 0300 	movt	r3, #8192	; 0x2000
  401152:	601a      	str	r2, [r3, #0]
			p_usart_opt->channel_mode | p_usart_opt->stop_bits;

	/* Configure the USART mode as normal mode. */
	ul_reg_val |= US_MR_USART_MODE_NORMAL;

	p_usart->US_MR |= ul_reg_val;
  401154:	686b      	ldr	r3, [r5, #4]
  401156:	431a      	orrs	r2, r3
  401158:	606a      	str	r2, [r5, #4]

	return 0;
  40115a:	f04f 0000 	mov.w	r0, #0
  40115e:	bd70      	pop	{r4, r5, r6, pc}

	ul_reg_val = 0;
	/* Check whether the input values are legal. */
	if (!p_usart_opt || usart_set_async_baudrate(p_usart,
			p_usart_opt->baudrate, ul_mck)) {
		return 1;
  401160:	f04f 0001 	mov.w	r0, #1
  401164:	bd70      	pop	{r4, r5, r6, pc}
  401166:	f04f 0001 	mov.w	r0, #1
  40116a:	bd70      	pop	{r4, r5, r6, pc}
  40116c:	f04f 0001 	mov.w	r0, #1
  401170:	bd70      	pop	{r4, r5, r6, pc}
	} else {
		over = LOW_FRQ_SAMPLE_DIV;
	}

	/* Calculate clock divider according to the fraction calculated formula. */
	cd_fp = (8 * ul_mck + (over * baudrate) / 2) / (over * baudrate);
  401172:	ea4f 02c2 	mov.w	r2, r2, lsl #3
  401176:	ea4f 0352 	mov.w	r3, r2, lsr #1
  40117a:	eb03 03c6 	add.w	r3, r3, r6, lsl #3
  40117e:	fbb3 f3f2 	udiv	r3, r3, r2
	cd = cd_fp >> 3;
  401182:	ea4f 02d3 	mov.w	r2, r3, lsr #3
	fp = cd_fp & 0x07;
  401186:	f003 0307 	and.w	r3, r3, #7
	if (cd < MIN_CD_VALUE || cd > MAX_CD_VALUE) {
  40118a:	f102 30ff 	add.w	r0, r2, #4294967295	; 0xffffffff
  40118e:	f64f 71fe 	movw	r1, #65534	; 0xfffe
  401192:	4288      	cmp	r0, r1
  401194:	d9cb      	bls.n	40112e <usart_init_rs232+0x2e>
  401196:	e7e6      	b.n	401166 <usart_init_rs232+0x66>
	} else {
		over = LOW_FRQ_SAMPLE_DIV;
	}

	/* Calculate clock divider according to the fraction calculated formula. */
	cd_fp = (8 * ul_mck + (over * baudrate) / 2) / (over * baudrate);
  401198:	ea4f 0253 	mov.w	r2, r3, lsr #1
  40119c:	eb02 06c6 	add.w	r6, r2, r6, lsl #3
  4011a0:	fbb6 f3f3 	udiv	r3, r6, r3
	cd = cd_fp >> 3;
  4011a4:	ea4f 02d3 	mov.w	r2, r3, lsr #3
	fp = cd_fp & 0x07;
  4011a8:	f003 0307 	and.w	r3, r3, #7
	if (cd < MIN_CD_VALUE || cd > MAX_CD_VALUE) {
  4011ac:	f102 30ff 	add.w	r0, r2, #4294967295	; 0xffffffff
  4011b0:	f64f 71fe 	movw	r1, #65534	; 0xfffe
  4011b4:	4288      	cmp	r0, r1
  4011b6:	d9be      	bls.n	401136 <usart_init_rs232+0x36>
  4011b8:	e7d8      	b.n	40116c <usart_init_rs232+0x6c>
  4011ba:	bf00      	nop

004011bc <usart_write>:
 * \retval 0 on success.
 * \retval 1 on failure.
 */
uint32_t usart_write(Usart *p_usart, uint32_t c)
{
	if (!(p_usart->US_CSR & US_CSR_TXRDY)) {
  4011bc:	6943      	ldr	r3, [r0, #20]
  4011be:	f013 0f02 	tst.w	r3, #2
		return 1;
	}

	p_usart->US_THR = US_THR_TXCHR(c);
  4011c2:	bf1f      	itttt	ne
  4011c4:	05c9      	lslne	r1, r1, #23
  4011c6:	0dc9      	lsrne	r1, r1, #23
  4011c8:	61c1      	strne	r1, [r0, #28]
	return 0;
  4011ca:	2000      	movne	r0, #0
 * \retval 1 on failure.
 */
uint32_t usart_write(Usart *p_usart, uint32_t c)
{
	if (!(p_usart->US_CSR & US_CSR_TXRDY)) {
		return 1;
  4011cc:	bf08      	it	eq
  4011ce:	2001      	moveq	r0, #1
	}

	p_usart->US_THR = US_THR_TXCHR(c);
	return 0;
}
  4011d0:	4770      	bx	lr
  4011d2:	bf00      	nop

004011d4 <usart_read>:
 * \retval 0 on success.
 * \retval 1 if no data is available or errors.
 */
uint32_t usart_read(Usart *p_usart, uint32_t *c)
{
	if (!(p_usart->US_CSR & US_CSR_RXRDY)) {
  4011d4:	6943      	ldr	r3, [r0, #20]
  4011d6:	f013 0f01 	tst.w	r3, #1
		return 1;
	}

	/* Read character */
	*c = p_usart->US_RHR & US_RHR_RXCHR_Msk;
  4011da:	bf1f      	itttt	ne
  4011dc:	6983      	ldrne	r3, [r0, #24]
  4011de:	05db      	lslne	r3, r3, #23
  4011e0:	0ddb      	lsrne	r3, r3, #23
  4011e2:	600b      	strne	r3, [r1, #0]

	return 0;
  4011e4:	bf14      	ite	ne
  4011e6:	2000      	movne	r0, #0
 * \retval 1 if no data is available or errors.
 */
uint32_t usart_read(Usart *p_usart, uint32_t *c)
{
	if (!(p_usart->US_CSR & US_CSR_RXRDY)) {
		return 1;
  4011e8:	2001      	moveq	r0, #1

	/* Read character */
	*c = p_usart->US_RHR & US_RHR_RXCHR_Msk;

	return 0;
}
  4011ea:	4770      	bx	lr

004011ec <efc_get_wait_state>:
 *
 * \return The number of wait states in cycle (no shift).
 */
uint32_t efc_get_wait_state(Efc *p_efc)
{
	return ((p_efc->EEFC_FMR & EEFC_FMR_FWS_Msk) >> EEFC_FMR_FWS_Pos);
  4011ec:	6800      	ldr	r0, [r0, #0]
}
  4011ee:	f3c0 2003 	ubfx	r0, r0, #8, #4
  4011f2:	4770      	bx	lr

004011f4 <efc_set_wait_state>:
 *
 * \param p_efc Pointer to an EFC instance.
 * \param ul_fws The number of wait states in cycle (no shift).
 */
void efc_set_wait_state(Efc *p_efc, uint32_t ul_fws)
{
  4011f4:	b508      	push	{r3, lr}
	uint32_t ul_fmr = p_efc->EEFC_FMR & (~EEFC_FMR_FWS_Msk);
  4011f6:	6803      	ldr	r3, [r0, #0]

	efc_write_fmr(p_efc, ul_fmr | EEFC_FMR_FWS(ul_fws));
  4011f8:	ea4f 2101 	mov.w	r1, r1, lsl #8
  4011fc:	f401 6170 	and.w	r1, r1, #3840	; 0xf00
 * \param p_efc Pointer to an EFC instance.
 * \param ul_fws The number of wait states in cycle (no shift).
 */
void efc_set_wait_state(Efc *p_efc, uint32_t ul_fws)
{
	uint32_t ul_fmr = p_efc->EEFC_FMR & (~EEFC_FMR_FWS_Msk);
  401200:	f423 6370 	bic.w	r3, r3, #3840	; 0xf00

	efc_write_fmr(p_efc, ul_fmr | EEFC_FMR_FWS(ul_fws));
  401204:	4319      	orrs	r1, r3
  401206:	f240 0371 	movw	r3, #113	; 0x71
  40120a:	f2c2 0300 	movt	r3, #8192	; 0x2000
  40120e:	4798      	blx	r3
  401210:	bd08      	pop	{r3, pc}
  401212:	bf00      	nop

00401214 <efc_init>:
 * \param ul_fws The number of wait states in cycle (no shift).
 *
 * \return 0 if successful.
 */
uint32_t efc_init(Efc *p_efc, uint32_t ul_access_mode, uint32_t ul_fws)
{
  401214:	b508      	push	{r3, lr}
#if (SAM4S || SAM4E || SAM4N || SAM4C || SAMG || SAM4CP)
	efc_write_fmr(p_efc, ul_access_mode | EEFC_FMR_FWS(ul_fws) | EEFC_FMR_CLOE);
  401216:	f041 6180 	orr.w	r1, r1, #67108864	; 0x4000000
  40121a:	ea4f 2202 	mov.w	r2, r2, lsl #8
  40121e:	f402 6270 	and.w	r2, r2, #3840	; 0xf00
  401222:	4311      	orrs	r1, r2
  401224:	f240 0371 	movw	r3, #113	; 0x71
  401228:	f2c2 0300 	movt	r3, #8192	; 0x2000
  40122c:	4798      	blx	r3
#else
	efc_write_fmr(p_efc, ul_access_mode | EEFC_FMR_FWS(ul_fws));
#endif	
	return EFC_RC_OK;
}
  40122e:	f04f 0000 	mov.w	r0, #0
  401232:	bd08      	pop	{r3, pc}

00401234 <efc_perform_command>:
 *
 * \return 0 if successful, otherwise returns an error code.
 */
uint32_t efc_perform_command(Efc *p_efc, uint32_t ul_command,
		uint32_t ul_argument)
{
  401234:	b508      	push	{r3, lr}
	/* Unique ID commands are not supported. */
	if (ul_command == EFC_FCMD_STUI || ul_command == EFC_FCMD_SPUI) {
  401236:	f1a1 030e 	sub.w	r3, r1, #14
  40123a:	2b01      	cmp	r3, #1
  40123c:	d90d      	bls.n	40125a <efc_perform_command+0x26>
	}

	/* Use RAM Function. */
	return efc_perform_fcr(p_efc,
			EEFC_FCR_FKEY_PASSWD | EEFC_FCR_FARG(ul_argument) |
			EEFC_FCR_FCMD(ul_command));
  40123e:	b2c9      	uxtb	r1, r1
		return EFC_RC_NOT_SUPPORT;
	}

	/* Use RAM Function. */
	return efc_perform_fcr(p_efc,
			EEFC_FCR_FKEY_PASSWD | EEFC_FCR_FARG(ul_argument) |
  401240:	f041 41b4 	orr.w	r1, r1, #1509949440	; 0x5a000000
  401244:	ea4f 2202 	mov.w	r2, r2, lsl #8
  401248:	f022 427f 	bic.w	r2, r2, #4278190080	; 0xff000000
	if (ul_command == EFC_FCMD_STUI || ul_command == EFC_FCMD_SPUI) {
		return EFC_RC_NOT_SUPPORT;
	}

	/* Use RAM Function. */
	return efc_perform_fcr(p_efc,
  40124c:	4311      	orrs	r1, r2
  40124e:	f240 0375 	movw	r3, #117	; 0x75
  401252:	f2c2 0300 	movt	r3, #8192	; 0x2000
  401256:	4798      	blx	r3
  401258:	bd08      	pop	{r3, pc}
uint32_t efc_perform_command(Efc *p_efc, uint32_t ul_command,
		uint32_t ul_argument)
{
	/* Unique ID commands are not supported. */
	if (ul_command == EFC_FCMD_STUI || ul_command == EFC_FCMD_SPUI) {
		return EFC_RC_NOT_SUPPORT;
  40125a:	f04f 30ff 	mov.w	r0, #4294967295	; 0xffffffff

	/* Use RAM Function. */
	return efc_perform_fcr(p_efc,
			EEFC_FCR_FKEY_PASSWD | EEFC_FCR_FARG(ul_argument) |
			EEFC_FCR_FCMD(ul_command));
}
  40125e:	bd08      	pop	{r3, pc}

00401260 <translate_address>:
 * \param pus_page The first page accessed.
 * \param pus_offset Byte offset in the first page.
 */
static void translate_address(Efc **pp_efc, uint32_t ul_addr,
		uint16_t *pus_page, uint16_t *pus_offset)
{
  401260:	b470      	push	{r4, r5, r6}
#else
	Assert(ul_addr >= IFLASH_ADDR);
	Assert(ul_addr <= (IFLASH_ADDR + IFLASH_SIZE));

	p_efc = EFC;
	us_page = (ul_addr - IFLASH_ADDR) / IFLASH_PAGE_SIZE;
  401262:	f5a1 0480 	sub.w	r4, r1, #4194304	; 0x400000
  401266:	f3c4 254f 	ubfx	r5, r4, #9, #16
	us_offset = (ul_addr - IFLASH_ADDR) % IFLASH_PAGE_SIZE;
  40126a:	ea4f 51c1 	mov.w	r1, r1, lsl #23
  40126e:	ea4f 51d1 	mov.w	r1, r1, lsr #23
#endif

	/* Store values */
	if (pp_efc) {
  401272:	4606      	mov	r6, r0
  401274:	b120      	cbz	r0, 401280 <translate_address+0x20>
		*pp_efc = p_efc;
  401276:	f44f 6420 	mov.w	r4, #2560	; 0xa00
  40127a:	f2c4 040e 	movt	r4, #16398	; 0x400e
  40127e:	6004      	str	r4, [r0, #0]
	}

	if (pus_page) {
  401280:	b102      	cbz	r2, 401284 <translate_address+0x24>
		*pus_page = us_page;
  401282:	8015      	strh	r5, [r2, #0]
	}

	if (pus_offset) {
  401284:	b103      	cbz	r3, 401288 <translate_address+0x28>
		*pus_offset = us_offset;
  401286:	8019      	strh	r1, [r3, #0]
	}
}
  401288:	bc70      	pop	{r4, r5, r6}
  40128a:	4770      	bx	lr

0040128c <compute_lock_range>:
 * \param pul_actual_start Actual start address of lock range.
 * \param pul_actual_end Actual end address of lock range.
 */
static void compute_lock_range(uint32_t ul_start, uint32_t ul_end,
		uint32_t *pul_actual_start, uint32_t *pul_actual_end)
{
  40128c:	b410      	push	{r4}
	uint32_t ul_actual_start, ul_actual_end;

	ul_actual_start = ul_start - (ul_start % IFLASH_LOCK_REGION_SIZE);
  40128e:	f420 50ff 	bic.w	r0, r0, #8160	; 0x1fe0
  401292:	f020 001f 	bic.w	r0, r0, #31
	ul_actual_end = ul_end - (ul_end % IFLASH_LOCK_REGION_SIZE) +
  401296:	ea6f 3151 	mvn.w	r1, r1, lsr #13
  40129a:	ea6f 3141 	mvn.w	r1, r1, lsl #13
			IFLASH_LOCK_REGION_SIZE - 1;

	if (pul_actual_start) {
  40129e:	4614      	mov	r4, r2
  4012a0:	b102      	cbz	r2, 4012a4 <compute_lock_range+0x18>
		*pul_actual_start = ul_actual_start;
  4012a2:	6010      	str	r0, [r2, #0]
	}

	if (pul_actual_end) {
  4012a4:	b103      	cbz	r3, 4012a8 <compute_lock_range+0x1c>
		*pul_actual_end = ul_actual_end;
  4012a6:	6019      	str	r1, [r3, #0]
	}
}
  4012a8:	bc10      	pop	{r4}
  4012aa:	4770      	bx	lr

004012ac <flash_init>:
 * \param ul_fws The number of wait states in cycle (no shift).
 *
 * \return 0 if successful; otherwise returns an error code.
 */
uint32_t flash_init(uint32_t ul_mode, uint32_t ul_fws)
{
  4012ac:	b508      	push	{r3, lr}
  4012ae:	4603      	mov	r3, r0
  4012b0:	460a      	mov	r2, r1
	efc_init(EFC, ul_mode, ul_fws);
  4012b2:	f44f 6020 	mov.w	r0, #2560	; 0xa00
  4012b6:	f2c4 000e 	movt	r0, #16398	; 0x400e
  4012ba:	4619      	mov	r1, r3
  4012bc:	f241 2315 	movw	r3, #4629	; 0x1215
  4012c0:	f2c0 0340 	movt	r3, #64	; 0x40
  4012c4:	4798      	blx	r3
#ifdef EFC1
	efc_init(EFC1, ul_mode, ul_fws);
#endif

	return FLASH_RC_OK;
}
  4012c6:	f04f 0000 	mov.w	r0, #0
  4012ca:	bd08      	pop	{r3, pc}

004012cc <flash_erase_page>:
 * \param ul_address Flash page start address.
 *
 * \return 0 if successful; otherwise returns an error code.
 */
uint32_t flash_erase_page(uint32_t ul_address, uint8_t uc_page_num)
{
  4012cc:	b530      	push	{r4, r5, lr}
  4012ce:	b083      	sub	sp, #12
  4012d0:	4603      	mov	r3, r0
  4012d2:	460c      	mov	r4, r1
	Efc *p_efc;
	uint16_t us_page;

	if (uc_page_num >= IFLASH_ERASE_PAGES_INVALID) {
  4012d4:	2903      	cmp	r1, #3
		return FLASH_RC_INVALID;
  4012d6:	bf88      	it	hi
  4012d8:	2011      	movhi	r0, #17
uint32_t flash_erase_page(uint32_t ul_address, uint8_t uc_page_num)
{
	Efc *p_efc;
	uint16_t us_page;

	if (uc_page_num >= IFLASH_ERASE_PAGES_INVALID) {
  4012da:	d821      	bhi.n	401320 <flash_erase_page+0x54>
		return FLASH_RC_INVALID;
	}

	if (ul_address & (IFLASH_PAGE_SIZE - 1)) {
  4012dc:	ea4f 52c3 	mov.w	r2, r3, lsl #23
  4012e0:	ea4f 52d2 	mov.w	r2, r2, lsr #23
		return FLASH_RC_INVALID;
  4012e4:	f04f 0011 	mov.w	r0, #17

	if (uc_page_num >= IFLASH_ERASE_PAGES_INVALID) {
		return FLASH_RC_INVALID;
	}

	if (ul_address & (IFLASH_PAGE_SIZE - 1)) {
  4012e8:	b9d2      	cbnz	r2, 401320 <flash_erase_page+0x54>
		return FLASH_RC_INVALID;
	}

	translate_address(&p_efc, ul_address, &us_page, NULL);
  4012ea:	a801      	add	r0, sp, #4
  4012ec:	4619      	mov	r1, r3
  4012ee:	f10d 0202 	add.w	r2, sp, #2
  4012f2:	f04f 0300 	mov.w	r3, #0
  4012f6:	f241 2561 	movw	r5, #4705	; 0x1261
  4012fa:	f2c0 0540 	movt	r5, #64	; 0x40
  4012fe:	47a8      	blx	r5

	if (EFC_RC_OK != efc_perform_command(p_efc, EFC_FCMD_EPA,
					(us_page | uc_page_num))) {
  401300:	f8bd 2002 	ldrh.w	r2, [sp, #2]
		return FLASH_RC_INVALID;
	}

	translate_address(&p_efc, ul_address, &us_page, NULL);

	if (EFC_RC_OK != efc_perform_command(p_efc, EFC_FCMD_EPA,
  401304:	9801      	ldr	r0, [sp, #4]
  401306:	f04f 0107 	mov.w	r1, #7
  40130a:	4322      	orrs	r2, r4
  40130c:	f241 2335 	movw	r3, #4661	; 0x1235
  401310:	f2c0 0340 	movt	r3, #64	; 0x40
  401314:	4798      	blx	r3
					(us_page | uc_page_num))) {
		return FLASH_RC_ERROR;
  401316:	2800      	cmp	r0, #0
  401318:	bf14      	ite	ne
  40131a:	2010      	movne	r0, #16
  40131c:	2000      	moveq	r0, #0
  40131e:	e7ff      	b.n	401320 <flash_erase_page+0x54>
	}

	return FLASH_RC_OK;
}
  401320:	b003      	add	sp, #12
  401322:	bd30      	pop	{r4, r5, pc}

00401324 <flash_write>:
 *
 * \return 0 if successful, otherwise returns an error code.
 */
uint32_t flash_write(uint32_t ul_address, const void *p_buffer,
		uint32_t ul_size, uint32_t ul_erase_flag)
{
  401324:	e92d 4ff0 	stmdb	sp!, {r4, r5, r6, r7, r8, r9, sl, fp, lr}
  401328:	b087      	sub	sp, #28
  40132a:	4604      	mov	r4, r0
  40132c:	468b      	mov	fp, r1
  40132e:	4690      	mov	r8, r2
  401330:	9301      	str	r3, [sp, #4]
	uint32_t ul_error;
	uint32_t ul_idx;
	uint32_t *p_aligned_dest;
	uint8_t *puc_page_buffer = (uint8_t *) gs_ul_page_buffer;

	translate_address(&p_efc, ul_address, &us_page, &us_offset);
  401332:	a805      	add	r0, sp, #20
  401334:	4621      	mov	r1, r4
  401336:	f10d 0212 	add.w	r2, sp, #18
  40133a:	ab04      	add	r3, sp, #16
  40133c:	f241 2461 	movw	r4, #4705	; 0x1261
  401340:	f2c0 0440 	movt	r4, #64	; 0x40
  401344:	47a0      	blx	r4

	/* According to the errata, set the wait state value to 6. */
	ul_fws_temp = efc_get_wait_state(p_efc);
  401346:	9805      	ldr	r0, [sp, #20]
  401348:	f241 13ed 	movw	r3, #4589	; 0x11ed
  40134c:	f2c0 0340 	movt	r3, #64	; 0x40
  401350:	4798      	blx	r3
  401352:	9003      	str	r0, [sp, #12]
	efc_set_wait_state(p_efc, 6);
  401354:	9805      	ldr	r0, [sp, #20]
  401356:	f04f 0106 	mov.w	r1, #6
  40135a:	f241 13f5 	movw	r3, #4597	; 0x11f5
  40135e:	f2c0 0340 	movt	r3, #64	; 0x40
  401362:	4798      	blx	r3

	/* Write all pages */
	while (ul_size > 0) {
  401364:	f1b8 0f00 	cmp.w	r8, #0
  401368:	d053      	beq.n	401412 <flash_write+0xee>
	uint32_t ul_page_addr;
	uint16_t us_padding;
	uint32_t ul_error;
	uint32_t ul_idx;
	uint32_t *p_aligned_dest;
	uint8_t *puc_page_buffer = (uint8_t *) gs_ul_page_buffer;
  40136a:	f241 37c0 	movw	r7, #5056	; 0x13c0
  40136e:	f2c2 0700 	movt	r7, #8192	; 0x2000
				ul_size);
		compute_address(p_efc, us_page, 0, &ul_page_addr);
		us_padding = IFLASH_PAGE_SIZE - us_offset - writeSize;

		/* Pre-buffer data */
		memcpy(puc_page_buffer, (void *)ul_page_addr, us_offset);
  401372:	f245 59ad 	movw	r9, #21933	; 0x55ad
  401376:	f2c0 0940 	movt	r9, #64	; 0x40

		if (ul_erase_flag) {
			ul_error = efc_perform_command(p_efc, EFC_FCMD_EWP,
					us_page);
		} else {
			ul_error = efc_perform_command(p_efc, EFC_FCMD_WP,
  40137a:	f241 2335 	movw	r3, #4661	; 0x1235
  40137e:	f2c0 0340 	movt	r3, #64	; 0x40
  401382:	9302      	str	r3, [sp, #8]
	efc_set_wait_state(p_efc, 6);

	/* Write all pages */
	while (ul_size > 0) {
		/* Copy data in temporary buffer to avoid alignment problems. */
		writeSize = Min((uint32_t) IFLASH_PAGE_SIZE - us_offset,
  401384:	f8bd 6010 	ldrh.w	r6, [sp, #16]
  401388:	f5c6 7a00 	rsb	sl, r6, #512	; 0x200
  40138c:	45d0      	cmp	r8, sl
  40138e:	bf34      	ite	cc
  401390:	4644      	movcc	r4, r8
  401392:	4654      	movcs	r4, sl
/* One bank flash */
#else
	/* avoid Cppcheck Warning */
	UNUSED(p_efc);
	/* Compute address */
	ul_addr = IFLASH_ADDR + us_page * IFLASH_PAGE_SIZE + us_offset;
  401394:	f8bd 5012 	ldrh.w	r5, [sp, #18]
  401398:	f505 5500 	add.w	r5, r5, #8192	; 0x2000
  40139c:	ea4f 2545 	mov.w	r5, r5, lsl #9
				ul_size);
		compute_address(p_efc, us_page, 0, &ul_page_addr);
		us_padding = IFLASH_PAGE_SIZE - us_offset - writeSize;

		/* Pre-buffer data */
		memcpy(puc_page_buffer, (void *)ul_page_addr, us_offset);
  4013a0:	4638      	mov	r0, r7
  4013a2:	4629      	mov	r1, r5
  4013a4:	4632      	mov	r2, r6
  4013a6:	47c8      	blx	r9

		/* Buffer data */
		memcpy(puc_page_buffer + us_offset, p_buffer, writeSize);
  4013a8:	19b8      	adds	r0, r7, r6
  4013aa:	4659      	mov	r1, fp
  4013ac:	4622      	mov	r2, r4
  4013ae:	47c8      	blx	r9

		/* Post-buffer data */
		memcpy(puc_page_buffer + us_offset + writeSize,
  4013b0:	19a0      	adds	r0, r4, r6
	while (ul_size > 0) {
		/* Copy data in temporary buffer to avoid alignment problems. */
		writeSize = Min((uint32_t) IFLASH_PAGE_SIZE - us_offset,
				ul_size);
		compute_address(p_efc, us_page, 0, &ul_page_addr);
		us_padding = IFLASH_PAGE_SIZE - us_offset - writeSize;
  4013b2:	ebc4 020a 	rsb	r2, r4, sl
		/* Buffer data */
		memcpy(puc_page_buffer + us_offset, p_buffer, writeSize);

		/* Post-buffer data */
		memcpy(puc_page_buffer + us_offset + writeSize,
				(void *)(ul_page_addr + us_offset + writeSize),
  4013b6:	19a9      	adds	r1, r5, r6

		/* Buffer data */
		memcpy(puc_page_buffer + us_offset, p_buffer, writeSize);

		/* Post-buffer data */
		memcpy(puc_page_buffer + us_offset + writeSize,
  4013b8:	1838      	adds	r0, r7, r0
  4013ba:	1909      	adds	r1, r1, r4
  4013bc:	b292      	uxth	r2, r2
  4013be:	47c8      	blx	r9

		/* Write page.
		 * Writing 8-bit and 16-bit data is not allowed and may lead to
		 * unpredictable data corruption.
		 */
		p_aligned_dest = (uint32_t *) ul_page_addr;
  4013c0:	462b      	mov	r3, r5
 * \param ul_size Size of data buffer in bytes.
 * \param ul_erase_flag Flag to set if erase first.
 *
 * \return 0 if successful, otherwise returns an error code.
 */
uint32_t flash_write(uint32_t ul_address, const void *p_buffer,
  4013c2:	f505 7100 	add.w	r1, r5, #512	; 0x200
  4013c6:	1b7d      	subs	r5, r7, r5
		 * unpredictable data corruption.
		 */
		p_aligned_dest = (uint32_t *) ul_page_addr;
		for (ul_idx = 0; ul_idx < (IFLASH_PAGE_SIZE / sizeof(uint32_t));
				++ul_idx) {
			*p_aligned_dest++ = gs_ul_page_buffer[ul_idx];
  4013c8:	595a      	ldr	r2, [r3, r5]
  4013ca:	f843 2b04 	str.w	r2, [r3], #4
		/* Write page.
		 * Writing 8-bit and 16-bit data is not allowed and may lead to
		 * unpredictable data corruption.
		 */
		p_aligned_dest = (uint32_t *) ul_page_addr;
		for (ul_idx = 0; ul_idx < (IFLASH_PAGE_SIZE / sizeof(uint32_t));
  4013ce:	428b      	cmp	r3, r1
  4013d0:	d1fa      	bne.n	4013c8 <flash_write+0xa4>
				++ul_idx) {
			*p_aligned_dest++ = gs_ul_page_buffer[ul_idx];
		}

		if (ul_erase_flag) {
  4013d2:	9b01      	ldr	r3, [sp, #4]
  4013d4:	b13b      	cbz	r3, 4013e6 <flash_write+0xc2>
			ul_error = efc_perform_command(p_efc, EFC_FCMD_EWP,
  4013d6:	9805      	ldr	r0, [sp, #20]
  4013d8:	f04f 0103 	mov.w	r1, #3
  4013dc:	f8bd 2012 	ldrh.w	r2, [sp, #18]
  4013e0:	9b02      	ldr	r3, [sp, #8]
  4013e2:	4798      	blx	r3
  4013e4:	e006      	b.n	4013f4 <flash_write+0xd0>
					us_page);
		} else {
			ul_error = efc_perform_command(p_efc, EFC_FCMD_WP,
  4013e6:	9805      	ldr	r0, [sp, #20]
  4013e8:	f04f 0101 	mov.w	r1, #1
  4013ec:	f8bd 2012 	ldrh.w	r2, [sp, #18]
  4013f0:	9b02      	ldr	r3, [sp, #8]
  4013f2:	4798      	blx	r3
					us_page);
		}

		if (ul_error) {
  4013f4:	b9b0      	cbnz	r0, 401424 <flash_write+0x100>
			return ul_error;
		}

		/* Progression */
		p_buffer = (void *)((uint32_t) p_buffer + writeSize);
  4013f6:	44a3      	add	fp, r4
		ul_size -= writeSize;
		us_page++;
  4013f8:	f8bd 3012 	ldrh.w	r3, [sp, #18]
  4013fc:	f103 0301 	add.w	r3, r3, #1
  401400:	f8ad 3012 	strh.w	r3, [sp, #18]
		us_offset = 0;
  401404:	f04f 0300 	mov.w	r3, #0
  401408:	f8ad 3010 	strh.w	r3, [sp, #16]
	/* According to the errata, set the wait state value to 6. */
	ul_fws_temp = efc_get_wait_state(p_efc);
	efc_set_wait_state(p_efc, 6);

	/* Write all pages */
	while (ul_size > 0) {
  40140c:	ebb8 0804 	subs.w	r8, r8, r4
  401410:	d1b8      	bne.n	401384 <flash_write+0x60>
		us_page++;
		us_offset = 0;
	}

	/* According to the errata, restore the wait state value. */
	efc_set_wait_state(p_efc, ul_fws_temp);
  401412:	9805      	ldr	r0, [sp, #20]
  401414:	9903      	ldr	r1, [sp, #12]
  401416:	f241 13f5 	movw	r3, #4597	; 0x11f5
  40141a:	f2c0 0340 	movt	r3, #64	; 0x40
  40141e:	4798      	blx	r3

	return FLASH_RC_OK;
  401420:	f04f 0000 	mov.w	r0, #0
}
  401424:	b007      	add	sp, #28
  401426:	e8bd 8ff0 	ldmia.w	sp!, {r4, r5, r6, r7, r8, r9, sl, fp, pc}
  40142a:	bf00      	nop

0040142c <flash_unlock>:
 *
 * \return 0 if successful, otherwise returns an error code.
 */
uint32_t flash_unlock(uint32_t ul_start, uint32_t ul_end,
		uint32_t *pul_actual_start, uint32_t *pul_actual_end)
{
  40142c:	b570      	push	{r4, r5, r6, lr}
  40142e:	b084      	sub	sp, #16
  401430:	4616      	mov	r6, r2
  401432:	461d      	mov	r5, r3
	uint32_t ul_error;
	uint16_t us_num_pages_in_region =
			IFLASH_LOCK_REGION_SIZE / IFLASH_PAGE_SIZE;

	/* Compute actual unlock range and store it */
	compute_lock_range(ul_start, ul_end, &ul_actual_start, &ul_actual_end);
  401434:	aa02      	add	r2, sp, #8
  401436:	ab01      	add	r3, sp, #4
  401438:	f241 248d 	movw	r4, #4749	; 0x128d
  40143c:	f2c0 0440 	movt	r4, #64	; 0x40
  401440:	47a0      	blx	r4
	if (pul_actual_start != NULL) {
  401442:	b10e      	cbz	r6, 401448 <flash_unlock+0x1c>
		*pul_actual_start = ul_actual_start;
  401444:	9b02      	ldr	r3, [sp, #8]
  401446:	6033      	str	r3, [r6, #0]
	}
	if (pul_actual_end != NULL) {
  401448:	b10d      	cbz	r5, 40144e <flash_unlock+0x22>
		*pul_actual_end = ul_actual_end;
  40144a:	9b01      	ldr	r3, [sp, #4]
  40144c:	602b      	str	r3, [r5, #0]
	}

	/* Compute page numbers */
	translate_address(&p_efc, ul_actual_start, &us_start_page, 0);
  40144e:	a803      	add	r0, sp, #12
  401450:	9902      	ldr	r1, [sp, #8]
  401452:	f10d 0202 	add.w	r2, sp, #2
  401456:	f04f 0300 	mov.w	r3, #0
  40145a:	f241 2461 	movw	r4, #4705	; 0x1261
  40145e:	f2c0 0440 	movt	r4, #64	; 0x40
  401462:	47a0      	blx	r4
	translate_address(0, ul_actual_end, &us_end_page, 0);
  401464:	f04f 0000 	mov.w	r0, #0
  401468:	9901      	ldr	r1, [sp, #4]
  40146a:	466a      	mov	r2, sp
  40146c:	4603      	mov	r3, r0
  40146e:	47a0      	blx	r4

	/* Unlock all pages */
	while (us_start_page < us_end_page) {
  401470:	f8bd 2002 	ldrh.w	r2, [sp, #2]
  401474:	f8bd 3000 	ldrh.w	r3, [sp]
  401478:	4293      	cmp	r3, r2
  40147a:	d916      	bls.n	4014aa <flash_unlock+0x7e>
		ul_error = efc_perform_command(p_efc, EFC_FCMD_CLB,
  40147c:	f04f 0609 	mov.w	r6, #9
  401480:	f241 2535 	movw	r5, #4661	; 0x1235
  401484:	f2c0 0540 	movt	r5, #64	; 0x40
  401488:	9803      	ldr	r0, [sp, #12]
  40148a:	4631      	mov	r1, r6
  40148c:	47a8      	blx	r5
				us_start_page);
		if (ul_error) {
  40148e:	4604      	mov	r4, r0
  401490:	b968      	cbnz	r0, 4014ae <flash_unlock+0x82>
			return ul_error;
		}
		us_start_page += us_num_pages_in_region;
  401492:	f8bd 2002 	ldrh.w	r2, [sp, #2]
  401496:	f102 0210 	add.w	r2, r2, #16
  40149a:	b292      	uxth	r2, r2
  40149c:	f8ad 2002 	strh.w	r2, [sp, #2]
	/* Compute page numbers */
	translate_address(&p_efc, ul_actual_start, &us_start_page, 0);
	translate_address(0, ul_actual_end, &us_end_page, 0);

	/* Unlock all pages */
	while (us_start_page < us_end_page) {
  4014a0:	f8bd 3000 	ldrh.w	r3, [sp]
  4014a4:	4293      	cmp	r3, r2
  4014a6:	d8ef      	bhi.n	401488 <flash_unlock+0x5c>
  4014a8:	e001      	b.n	4014ae <flash_unlock+0x82>
			return ul_error;
		}
		us_start_page += us_num_pages_in_region;
	}

	return FLASH_RC_OK;
  4014aa:	f04f 0400 	mov.w	r4, #0
}
  4014ae:	4620      	mov	r0, r4
  4014b0:	b004      	add	sp, #16
  4014b2:	bd70      	pop	{r4, r5, r6, pc}

004014b4 <flash_read_unique_id>:
 * \param ul_size Data buffer size in DWORD.
 *
 * \return 0 if successful; otherwise returns an error code.
 */
uint32_t flash_read_unique_id(uint32_t *pul_data, uint32_t ul_size)
{
  4014b4:	b570      	push	{r4, r5, r6, lr}
  4014b6:	b086      	sub	sp, #24
  4014b8:	4605      	mov	r5, r0
  4014ba:	460e      	mov	r6, r1
	uint32_t uid_buf[4];
	uint32_t ul_idx;

	if (FLASH_RC_OK != efc_perform_read_sequence(EFC, EFC_FCMD_STUI,
  4014bc:	f04f 0304 	mov.w	r3, #4
  4014c0:	9300      	str	r3, [sp, #0]
  4014c2:	f44f 6020 	mov.w	r0, #2560	; 0xa00
  4014c6:	f2c4 000e 	movt	r0, #16398	; 0x400e
  4014ca:	f04f 010e 	mov.w	r1, #14
  4014ce:	f04f 020f 	mov.w	r2, #15
  4014d2:	ab02      	add	r3, sp, #8
  4014d4:	f240 0401 	movw	r4, #1
  4014d8:	f2c2 0400 	movt	r4, #8192	; 0x2000
  4014dc:	47a0      	blx	r4
  4014de:	b998      	cbnz	r0, 401508 <flash_read_unique_id+0x54>
  4014e0:	2e04      	cmp	r6, #4
  4014e2:	bf28      	it	cs
  4014e4:	2604      	movcs	r6, #4

	for (ul_idx = 0; ul_idx < ul_size; ul_idx++) {
		pul_data[ul_idx] = uid_buf[ul_idx];
	}

	return FLASH_RC_OK;
  4014e6:	f04f 0000 	mov.w	r0, #0
	if (ul_size > 4) {
		/* Only 4 dword to store unique ID */
		ul_size = 4;
	}

	for (ul_idx = 0; ul_idx < ul_size; ul_idx++) {
  4014ea:	b186      	cbz	r6, 40150e <flash_read_unique_id+0x5a>
 * \param pul_data Pointer to a data buffer to store 128-bit unique ID.
 * \param ul_size Data buffer size in DWORD.
 *
 * \return 0 if successful; otherwise returns an error code.
 */
uint32_t flash_read_unique_id(uint32_t *pul_data, uint32_t ul_size)
  4014ec:	ea4f 0186 	mov.w	r1, r6, lsl #2
  4014f0:	f04f 0300 	mov.w	r3, #0
		/* Only 4 dword to store unique ID */
		ul_size = 4;
	}

	for (ul_idx = 0; ul_idx < ul_size; ul_idx++) {
		pul_data[ul_idx] = uid_buf[ul_idx];
  4014f4:	aa02      	add	r2, sp, #8
  4014f6:	589a      	ldr	r2, [r3, r2]
  4014f8:	50ea      	str	r2, [r5, r3]
  4014fa:	f103 0304 	add.w	r3, r3, #4
	if (ul_size > 4) {
		/* Only 4 dword to store unique ID */
		ul_size = 4;
	}

	for (ul_idx = 0; ul_idx < ul_size; ul_idx++) {
  4014fe:	428b      	cmp	r3, r1
  401500:	d1f8      	bne.n	4014f4 <flash_read_unique_id+0x40>
		pul_data[ul_idx] = uid_buf[ul_idx];
	}

	return FLASH_RC_OK;
  401502:	f04f 0000 	mov.w	r0, #0
  401506:	e002      	b.n	40150e <flash_read_unique_id+0x5a>
	uint32_t uid_buf[4];
	uint32_t ul_idx;

	if (FLASH_RC_OK != efc_perform_read_sequence(EFC, EFC_FCMD_STUI,
			EFC_FCMD_SPUI, uid_buf, 4)) {
		return FLASH_RC_ERROR;
  401508:	f04f 0010 	mov.w	r0, #16
  40150c:	e7ff      	b.n	40150e <flash_read_unique_id+0x5a>
	for (ul_idx = 0; ul_idx < ul_size; ul_idx++) {
		pul_data[ul_idx] = uid_buf[ul_idx];
	}

	return FLASH_RC_OK;
}
  40150e:	b006      	add	sp, #24
  401510:	bd70      	pop	{r4, r5, r6, pc}
  401512:	bf00      	nop

00401514 <Dummy_Handler>:

/**
 * \brief Default interrupt handler for unused IRQs.
 */
void Dummy_Handler(void)
{
  401514:	e7fe      	b.n	401514 <Dummy_Handler>
  401516:	bf00      	nop

00401518 <Reset_Handler>:
/**
 * \brief This is the code that gets called on processor reset.
 * To initialize the device, and call the main() routine.
 */
void Reset_Handler(void)
{
  401518:	b510      	push	{r4, lr}

	/* Initialize the relocate segment */
	pSrc = &_etext;
	pDest = &_srelocate;

	if (pSrc > pDest) {
  40151a:	4b2f      	ldr	r3, [pc, #188]	; (4015d8 <Reset_Handler+0xc0>)
  40151c:	4a2f      	ldr	r2, [pc, #188]	; (4015dc <Reset_Handler+0xc4>)
  40151e:	429a      	cmp	r2, r3
  401520:	d91c      	bls.n	40155c <Reset_Handler+0x44>
		for (; pDest < &_erelocate;) {
  401522:	4b2f      	ldr	r3, [pc, #188]	; (4015e0 <Reset_Handler+0xc8>)
  401524:	4a2c      	ldr	r2, [pc, #176]	; (4015d8 <Reset_Handler+0xc0>)
  401526:	429a      	cmp	r2, r3
  401528:	d22c      	bcs.n	401584 <Reset_Handler+0x6c>

/**
 * \brief This is the code that gets called on processor reset.
 * To initialize the device, and call the main() routine.
 */
void Reset_Handler(void)
  40152a:	f102 0304 	add.w	r3, r2, #4
  40152e:	4c2d      	ldr	r4, [pc, #180]	; (4015e4 <Reset_Handler+0xcc>)
  401530:	1ae4      	subs	r4, r4, r3
  401532:	f024 0403 	bic.w	r4, r4, #3
  401536:	f104 0404 	add.w	r4, r4, #4
  40153a:	f04f 0300 	mov.w	r3, #0
	pSrc = &_etext;
	pDest = &_srelocate;

	if (pSrc > pDest) {
		for (; pDest < &_erelocate;) {
			*pDest++ = *pSrc++;
  40153e:	f240 0000 	movw	r0, #0
  401542:	f2c2 0000 	movt	r0, #8192	; 0x2000
  401546:	f641 5174 	movw	r1, #7540	; 0x1d74
  40154a:	f2c0 0141 	movt	r1, #65	; 0x41
  40154e:	585a      	ldr	r2, [r3, r1]
  401550:	501a      	str	r2, [r3, r0]
  401552:	f103 0304 	add.w	r3, r3, #4
	/* Initialize the relocate segment */
	pSrc = &_etext;
	pDest = &_srelocate;

	if (pSrc > pDest) {
		for (; pDest < &_erelocate;) {
  401556:	42a3      	cmp	r3, r4
  401558:	d1f9      	bne.n	40154e <Reset_Handler+0x36>
  40155a:	e013      	b.n	401584 <Reset_Handler+0x6c>
			*pDest++ = *pSrc++;
		}
	} else if (pSrc < pDest) {
  40155c:	4b1e      	ldr	r3, [pc, #120]	; (4015d8 <Reset_Handler+0xc0>)
  40155e:	4a1f      	ldr	r2, [pc, #124]	; (4015dc <Reset_Handler+0xc4>)
  401560:	429a      	cmp	r2, r3
  401562:	d20f      	bcs.n	401584 <Reset_Handler+0x6c>
		uint32_t nb_bytes = (uint32_t)&_erelocate - (uint32_t)&_srelocate;
  401564:	f241 3320 	movw	r3, #4896	; 0x1320
  401568:	f2c2 0300 	movt	r3, #8192	; 0x2000
  40156c:	f240 0200 	movw	r2, #0
  401570:	f2c2 0200 	movt	r2, #8192	; 0x2000
		pSrc = (uint32_t*)((uint32_t)pSrc + nb_bytes) - 1;
  401574:	481c      	ldr	r0, [pc, #112]	; (4015e8 <Reset_Handler+0xd0>)
		pDest = (uint32_t*)((uint32_t)pDest + nb_bytes) - 1;
		for (;nb_bytes;nb_bytes -= 4) {
  401576:	1a9a      	subs	r2, r3, r2
  401578:	d004      	beq.n	401584 <Reset_Handler+0x6c>
			*pDest-- = *pSrc--;
  40157a:	5881      	ldr	r1, [r0, r2]
  40157c:	f843 1d04 	str.w	r1, [r3, #-4]!
		}
	} else if (pSrc < pDest) {
		uint32_t nb_bytes = (uint32_t)&_erelocate - (uint32_t)&_srelocate;
		pSrc = (uint32_t*)((uint32_t)pSrc + nb_bytes) - 1;
		pDest = (uint32_t*)((uint32_t)pDest + nb_bytes) - 1;
		for (;nb_bytes;nb_bytes -= 4) {
  401580:	3a04      	subs	r2, #4
  401582:	d1fa      	bne.n	40157a <Reset_Handler+0x62>

    No Operation does nothing. This instruction can be used for code alignment purposes.
 */
__attribute__( ( always_inline ) ) static __INLINE void __NOP(void)
{
  __ASM volatile ("nop");
  401584:	bf00      	nop
		}
	}
	__NOP();

	/* Clear the zero segment */
	for (pDest = &_szero; pDest < &_ezero;) {
  401586:	4b19      	ldr	r3, [pc, #100]	; (4015ec <Reset_Handler+0xd4>)
  401588:	4a19      	ldr	r2, [pc, #100]	; (4015f0 <Reset_Handler+0xd8>)
  40158a:	429a      	cmp	r2, r3
  40158c:	d210      	bcs.n	4015b0 <Reset_Handler+0x98>
  40158e:	f1a2 0304 	sub.w	r3, r2, #4

/**
 * \brief This is the code that gets called on processor reset.
 * To initialize the device, and call the main() routine.
 */
void Reset_Handler(void)
  401592:	4918      	ldr	r1, [pc, #96]	; (4015f4 <Reset_Handler+0xdc>)
  401594:	1ac9      	subs	r1, r1, r3
  401596:	f021 0103 	bic.w	r1, r1, #3
  40159a:	f241 3220 	movw	r2, #4896	; 0x1320
  40159e:	f2c2 0200 	movt	r2, #8192	; 0x2000
  4015a2:	188a      	adds	r2, r1, r2
	}
	__NOP();

	/* Clear the zero segment */
	for (pDest = &_szero; pDest < &_ezero;) {
		*pDest++ = 0;
  4015a4:	f04f 0100 	mov.w	r1, #0
  4015a8:	f843 1f04 	str.w	r1, [r3, #4]!
		}
	}
	__NOP();

	/* Clear the zero segment */
	for (pDest = &_szero; pDest < &_ezero;) {
  4015ac:	4293      	cmp	r3, r2
  4015ae:	d1fb      	bne.n	4015a8 <Reset_Handler+0x90>
		*pDest++ = 0;
	}

	/* Set the vector table base address */
	pSrc = (uint32_t *) & _sfixed;
	SCB->VTOR = ((uint32_t) pSrc);
  4015b0:	f240 0300 	movw	r3, #0
  4015b4:	f2c0 0340 	movt	r3, #64	; 0x40
  4015b8:	f44f 426d 	mov.w	r2, #60672	; 0xed00
  4015bc:	f2ce 0200 	movt	r2, #57344	; 0xe000
  4015c0:	6093      	str	r3, [r2, #8]

	/* Initialize the C library */
	__libc_init_array();
  4015c2:	f245 5355 	movw	r3, #21845	; 0x5555
  4015c6:	f2c0 0340 	movt	r3, #64	; 0x40
  4015ca:	4798      	blx	r3

	/* Branch to main function */
	main();
  4015cc:	f242 537d 	movw	r3, #9597	; 0x257d
  4015d0:	f2c0 0340 	movt	r3, #64	; 0x40
  4015d4:	4798      	blx	r3
  4015d6:	e7fe      	b.n	4015d6 <Reset_Handler+0xbe>
  4015d8:	20000000 	.word	0x20000000
  4015dc:	00411d74 	.word	0x00411d74
  4015e0:	20001320 	.word	0x20001320
  4015e4:	20001323 	.word	0x20001323
  4015e8:	00411d70 	.word	0x00411d70
  4015ec:	200070a0 	.word	0x200070a0
  4015f0:	20001320 	.word	0x20001320
  4015f4:	2000709b 	.word	0x2000709b

004015f8 <SystemCoreClockUpdate>:
 * \brief Get Core Clock Frequency.
 */
void SystemCoreClockUpdate( void )
{
	/* Determine clock frequency according to clock register values */
	switch ( PMC->PMC_MCKR & (uint32_t) PMC_MCKR_CSS_Msk ) {
  4015f8:	f44f 6380 	mov.w	r3, #1024	; 0x400
  4015fc:	f2c4 030e 	movt	r3, #16398	; 0x400e
  401600:	6b1b      	ldr	r3, [r3, #48]	; 0x30
  401602:	f003 0303 	and.w	r3, r3, #3
  401606:	2b03      	cmp	r3, #3
  401608:	f200 80a9 	bhi.w	40175e <SystemCoreClockUpdate+0x166>
  40160c:	e8df f003 	tbb	[pc, r3]
  401610:	4f4f1402 	.word	0x4f4f1402
	case PMC_MCKR_CSS_SLOW_CLK: /* Slow clock */
			if ( SUPC->SUPC_SR & SUPC_SR_OSCSEL ) {
  401614:	f241 4310 	movw	r3, #5136	; 0x1410
  401618:	f2c4 030e 	movt	r3, #16398	; 0x400e
  40161c:	695b      	ldr	r3, [r3, #20]
  40161e:	f013 0f80 	tst.w	r3, #128	; 0x80
				SystemCoreClock = CHIP_FREQ_XTAL_32K;
  401622:	f240 03a0 	movw	r3, #160	; 0xa0
  401626:	f2c2 0300 	movt	r3, #8192	; 0x2000
  40162a:	bf14      	ite	ne
  40162c:	f44f 4200 	movne.w	r2, #32768	; 0x8000
			} else {
				SystemCoreClock = CHIP_FREQ_SLCK_RC;
  401630:	f44f 42fa 	moveq.w	r2, #32000	; 0x7d00
  401634:	601a      	str	r2, [r3, #0]
  401636:	e092      	b.n	40175e <SystemCoreClockUpdate+0x166>
			}
		break;
		
	case PMC_MCKR_CSS_MAIN_CLK: /* Main clock */
		if ( PMC->CKGR_MOR & CKGR_MOR_MOSCSEL ) {
  401638:	f44f 6380 	mov.w	r3, #1024	; 0x400
  40163c:	f2c4 030e 	movt	r3, #16398	; 0x400e
  401640:	6a1b      	ldr	r3, [r3, #32]
  401642:	f013 7f80 	tst.w	r3, #16777216	; 0x1000000
  401646:	d009      	beq.n	40165c <SystemCoreClockUpdate+0x64>
			SystemCoreClock = CHIP_FREQ_XTAL;
  401648:	f240 03a0 	movw	r3, #160	; 0xa0
  40164c:	f2c2 0300 	movt	r3, #8192	; 0x2000
  401650:	f44f 52d8 	mov.w	r2, #6912	; 0x1b00
  401654:	f2c0 02b7 	movt	r2, #183	; 0xb7
  401658:	601a      	str	r2, [r3, #0]
  40165a:	e080      	b.n	40175e <SystemCoreClockUpdate+0x166>
		} else {
			SystemCoreClock = CHIP_FREQ_MAINCK_RC_4MHZ;
  40165c:	f240 03a0 	movw	r3, #160	; 0xa0
  401660:	f2c2 0300 	movt	r3, #8192	; 0x2000
  401664:	f44f 6210 	mov.w	r2, #2304	; 0x900
  401668:	f2c0 023d 	movt	r2, #61	; 0x3d
  40166c:	601a      	str	r2, [r3, #0]
			
			switch ( PMC->CKGR_MOR & CKGR_MOR_MOSCRCF_Msk ) {
  40166e:	f44f 6380 	mov.w	r3, #1024	; 0x400
  401672:	f2c4 030e 	movt	r3, #16398	; 0x400e
  401676:	6a1b      	ldr	r3, [r3, #32]
  401678:	f003 0370 	and.w	r3, r3, #112	; 0x70
  40167c:	2b10      	cmp	r3, #16
  40167e:	d002      	beq.n	401686 <SystemCoreClockUpdate+0x8e>
  401680:	2b20      	cmp	r3, #32
  401682:	d16c      	bne.n	40175e <SystemCoreClockUpdate+0x166>
  401684:	e009      	b.n	40169a <SystemCoreClockUpdate+0xa2>
			case CKGR_MOR_MOSCRCF_4_MHz:
				SystemCoreClock = CHIP_FREQ_MAINCK_RC_4MHZ;
			break;
			
			case CKGR_MOR_MOSCRCF_8_MHz:
				SystemCoreClock = CHIP_FREQ_MAINCK_RC_8MHZ;
  401686:	f240 03a0 	movw	r3, #160	; 0xa0
  40168a:	f2c2 0300 	movt	r3, #8192	; 0x2000
  40168e:	f44f 5290 	mov.w	r2, #4608	; 0x1200
  401692:	f2c0 027a 	movt	r2, #122	; 0x7a
  401696:	601a      	str	r2, [r3, #0]
			break;
  401698:	e061      	b.n	40175e <SystemCoreClockUpdate+0x166>
			
			case CKGR_MOR_MOSCRCF_12_MHz:
				SystemCoreClock = CHIP_FREQ_MAINCK_RC_12MHZ;
  40169a:	f240 03a0 	movw	r3, #160	; 0xa0
  40169e:	f2c2 0300 	movt	r3, #8192	; 0x2000
  4016a2:	f44f 52d8 	mov.w	r2, #6912	; 0x1b00
  4016a6:	f2c0 02b7 	movt	r2, #183	; 0xb7
  4016aa:	601a      	str	r2, [r3, #0]
			break;
  4016ac:	e057      	b.n	40175e <SystemCoreClockUpdate+0x166>
		}
		break;
		
	case PMC_MCKR_CSS_PLLA_CLK:	/* PLLA clock */
	case PMC_MCKR_CSS_PLLB_CLK:	/* PLLB clock */
			if ( PMC->CKGR_MOR & CKGR_MOR_MOSCSEL ) {
  4016ae:	f44f 6380 	mov.w	r3, #1024	; 0x400
  4016b2:	f2c4 030e 	movt	r3, #16398	; 0x400e
  4016b6:	6a1b      	ldr	r3, [r3, #32]
  4016b8:	f013 7f80 	tst.w	r3, #16777216	; 0x1000000
  4016bc:	d009      	beq.n	4016d2 <SystemCoreClockUpdate+0xda>
				SystemCoreClock = CHIP_FREQ_XTAL;
  4016be:	f240 03a0 	movw	r3, #160	; 0xa0
  4016c2:	f2c2 0300 	movt	r3, #8192	; 0x2000
  4016c6:	f44f 52d8 	mov.w	r2, #6912	; 0x1b00
  4016ca:	f2c0 02b7 	movt	r2, #183	; 0xb7
  4016ce:	601a      	str	r2, [r3, #0]
  4016d0:	e027      	b.n	401722 <SystemCoreClockUpdate+0x12a>
			} else {
				SystemCoreClock = CHIP_FREQ_MAINCK_RC_4MHZ;
  4016d2:	f240 03a0 	movw	r3, #160	; 0xa0
  4016d6:	f2c2 0300 	movt	r3, #8192	; 0x2000
  4016da:	f44f 6210 	mov.w	r2, #2304	; 0x900
  4016de:	f2c0 023d 	movt	r2, #61	; 0x3d
  4016e2:	601a      	str	r2, [r3, #0]
				
				switch ( PMC->CKGR_MOR & CKGR_MOR_MOSCRCF_Msk ) {
  4016e4:	f44f 6380 	mov.w	r3, #1024	; 0x400
  4016e8:	f2c4 030e 	movt	r3, #16398	; 0x400e
  4016ec:	6a1b      	ldr	r3, [r3, #32]
  4016ee:	f003 0370 	and.w	r3, r3, #112	; 0x70
  4016f2:	2b10      	cmp	r3, #16
  4016f4:	d002      	beq.n	4016fc <SystemCoreClockUpdate+0x104>
  4016f6:	2b20      	cmp	r3, #32
  4016f8:	d113      	bne.n	401722 <SystemCoreClockUpdate+0x12a>
  4016fa:	e009      	b.n	401710 <SystemCoreClockUpdate+0x118>
				case CKGR_MOR_MOSCRCF_4_MHz:
					SystemCoreClock = CHIP_FREQ_MAINCK_RC_4MHZ;
					break;
				
				case CKGR_MOR_MOSCRCF_8_MHz:
					SystemCoreClock = CHIP_FREQ_MAINCK_RC_8MHZ;
  4016fc:	f240 03a0 	movw	r3, #160	; 0xa0
  401700:	f2c2 0300 	movt	r3, #8192	; 0x2000
  401704:	f44f 5290 	mov.w	r2, #4608	; 0x1200
  401708:	f2c0 027a 	movt	r2, #122	; 0x7a
  40170c:	601a      	str	r2, [r3, #0]
					break;
  40170e:	e008      	b.n	401722 <SystemCoreClockUpdate+0x12a>
				
				case CKGR_MOR_MOSCRCF_12_MHz:
					SystemCoreClock = CHIP_FREQ_MAINCK_RC_12MHZ;
  401710:	f240 03a0 	movw	r3, #160	; 0xa0
  401714:	f2c2 0300 	movt	r3, #8192	; 0x2000
  401718:	f44f 52d8 	mov.w	r2, #6912	; 0x1b00
  40171c:	f2c0 02b7 	movt	r2, #183	; 0xb7
  401720:	601a      	str	r2, [r3, #0]
				default:
					break;
				}
			}
			
			if ( (uint32_t)(PMC->PMC_MCKR & (uint32_t) PMC_MCKR_CSS_Msk) ==
  401722:	f44f 6380 	mov.w	r3, #1024	; 0x400
  401726:	f2c4 030e 	movt	r3, #16398	; 0x400e
  40172a:	6b1b      	ldr	r3, [r3, #48]	; 0x30
  40172c:	f003 0303 	and.w	r3, r3, #3
  401730:	2b02      	cmp	r3, #2
					PMC_MCKR_CSS_PLLA_CLK ) {
				SystemCoreClock *= ((((PMC->CKGR_PLLAR) & CKGR_PLLAR_MULA_Msk)
  401732:	f44f 6380 	mov.w	r3, #1024	; 0x400
  401736:	f2c4 030e 	movt	r3, #16398	; 0x400e
  40173a:	bf07      	ittee	eq
  40173c:	6a98      	ldreq	r0, [r3, #40]	; 0x28
						>> CKGR_PLLAR_MULA_Pos) + 1U);
				SystemCoreClock /= ((((PMC->CKGR_PLLAR) & CKGR_PLLAR_DIVA_Msk)
  40173e:	6a99      	ldreq	r1, [r3, #40]	; 0x28
						>> CKGR_PLLAR_DIVA_Pos));
			} else {
				SystemCoreClock *= ((((PMC->CKGR_PLLBR) & CKGR_PLLBR_MULB_Msk)
  401740:	6ad8      	ldrne	r0, [r3, #44]	; 0x2c
						>> CKGR_PLLBR_MULB_Pos) + 1U);
				SystemCoreClock /= ((((PMC->CKGR_PLLBR) & CKGR_PLLBR_DIVB_Msk)
  401742:	6ad9      	ldrne	r1, [r3, #44]	; 0x2c
  401744:	f240 03a0 	movw	r3, #160	; 0xa0
  401748:	f2c2 0300 	movt	r3, #8192	; 0x2000
						>> CKGR_PLLAR_MULA_Pos) + 1U);
				SystemCoreClock /= ((((PMC->CKGR_PLLAR) & CKGR_PLLAR_DIVA_Msk)
						>> CKGR_PLLAR_DIVA_Pos));
			} else {
				SystemCoreClock *= ((((PMC->CKGR_PLLBR) & CKGR_PLLBR_MULB_Msk)
						>> CKGR_PLLBR_MULB_Pos) + 1U);
  40174c:	f3c0 400a 	ubfx	r0, r0, #16, #11
				SystemCoreClock *= ((((PMC->CKGR_PLLAR) & CKGR_PLLAR_MULA_Msk)
						>> CKGR_PLLAR_MULA_Pos) + 1U);
				SystemCoreClock /= ((((PMC->CKGR_PLLAR) & CKGR_PLLAR_DIVA_Msk)
						>> CKGR_PLLAR_DIVA_Pos));
			} else {
				SystemCoreClock *= ((((PMC->CKGR_PLLBR) & CKGR_PLLBR_MULB_Msk)
  401750:	681a      	ldr	r2, [r3, #0]
  401752:	fb00 2202 	mla	r2, r0, r2, r2
						>> CKGR_PLLBR_MULB_Pos) + 1U);
				SystemCoreClock /= ((((PMC->CKGR_PLLBR) & CKGR_PLLBR_DIVB_Msk)
						>> CKGR_PLLBR_DIVB_Pos));
  401756:	b2c9      	uxtb	r1, r1
				SystemCoreClock /= ((((PMC->CKGR_PLLAR) & CKGR_PLLAR_DIVA_Msk)
						>> CKGR_PLLAR_DIVA_Pos));
			} else {
				SystemCoreClock *= ((((PMC->CKGR_PLLBR) & CKGR_PLLBR_MULB_Msk)
						>> CKGR_PLLBR_MULB_Pos) + 1U);
				SystemCoreClock /= ((((PMC->CKGR_PLLBR) & CKGR_PLLBR_DIVB_Msk)
  401758:	fbb2 f2f1 	udiv	r2, r2, r1
  40175c:	601a      	str	r2, [r3, #0]
		
	default:
		break;
	}

	if ( (PMC->PMC_MCKR & PMC_MCKR_PRES_Msk) == PMC_MCKR_PRES_CLK_3 ) {
  40175e:	f44f 6380 	mov.w	r3, #1024	; 0x400
  401762:	f2c4 030e 	movt	r3, #16398	; 0x400e
  401766:	6b1b      	ldr	r3, [r3, #48]	; 0x30
  401768:	f003 0370 	and.w	r3, r3, #112	; 0x70
  40176c:	2b70      	cmp	r3, #112	; 0x70
  40176e:	d10e      	bne.n	40178e <SystemCoreClockUpdate+0x196>
		SystemCoreClock /= 3U;
  401770:	f240 03a0 	movw	r3, #160	; 0xa0
  401774:	f2c2 0300 	movt	r3, #8192	; 0x2000
  401778:	6819      	ldr	r1, [r3, #0]
  40177a:	f64a 22ab 	movw	r2, #43691	; 0xaaab
  40177e:	f6ca 22aa 	movt	r2, #43690	; 0xaaaa
  401782:	fba2 0201 	umull	r0, r2, r2, r1
  401786:	ea4f 0252 	mov.w	r2, r2, lsr #1
  40178a:	601a      	str	r2, [r3, #0]
  40178c:	4770      	bx	lr
	} else {
		SystemCoreClock >>=
			((PMC->PMC_MCKR & PMC_MCKR_PRES_Msk) >> PMC_MCKR_PRES_Pos);
  40178e:	f44f 6380 	mov.w	r3, #1024	; 0x400
  401792:	f2c4 030e 	movt	r3, #16398	; 0x400e
  401796:	6b19      	ldr	r1, [r3, #48]	; 0x30
	}

	if ( (PMC->PMC_MCKR & PMC_MCKR_PRES_Msk) == PMC_MCKR_PRES_CLK_3 ) {
		SystemCoreClock /= 3U;
	} else {
		SystemCoreClock >>=
  401798:	f240 03a0 	movw	r3, #160	; 0xa0
  40179c:	f2c2 0300 	movt	r3, #8192	; 0x2000
			((PMC->PMC_MCKR & PMC_MCKR_PRES_Msk) >> PMC_MCKR_PRES_Pos);
  4017a0:	f3c1 1102 	ubfx	r1, r1, #4, #3
	}

	if ( (PMC->PMC_MCKR & PMC_MCKR_PRES_Msk) == PMC_MCKR_PRES_CLK_3 ) {
		SystemCoreClock /= 3U;
	} else {
		SystemCoreClock >>=
  4017a4:	681a      	ldr	r2, [r3, #0]
  4017a6:	fa22 f201 	lsr.w	r2, r2, r1
  4017aa:	601a      	str	r2, [r3, #0]
  4017ac:	4770      	bx	lr
  4017ae:	bf00      	nop

004017b0 <_sbrk>:
extern caddr_t _sbrk(int incr)
{
	static unsigned char *heap = NULL;
	unsigned char *prev_heap;

	if (heap == NULL) {
  4017b0:	f241 53c0 	movw	r3, #5568	; 0x15c0
  4017b4:	f2c2 0300 	movt	r3, #8192	; 0x2000
  4017b8:	681b      	ldr	r3, [r3, #0]
  4017ba:	b943      	cbnz	r3, 4017ce <_sbrk+0x1e>
		heap = (unsigned char *)&_end;
  4017bc:	f241 53c0 	movw	r3, #5568	; 0x15c0
  4017c0:	f2c2 0300 	movt	r3, #8192	; 0x2000
  4017c4:	f24a 02a0 	movw	r2, #41120	; 0xa0a0
  4017c8:	f2c2 0200 	movt	r2, #8192	; 0x2000
  4017cc:	601a      	str	r2, [r3, #0]
	}
	prev_heap = heap;
  4017ce:	f241 53c0 	movw	r3, #5568	; 0x15c0
  4017d2:	f2c2 0300 	movt	r3, #8192	; 0x2000
  4017d6:	681a      	ldr	r2, [r3, #0]

	heap += incr;
  4017d8:	1810      	adds	r0, r2, r0
  4017da:	6018      	str	r0, [r3, #0]

	return (caddr_t) prev_heap;
}
  4017dc:	4610      	mov	r0, r2
  4017de:	4770      	bx	lr

004017e0 <_close>:
}

extern int _close(int file)
{
	return -1;
}
  4017e0:	f04f 30ff 	mov.w	r0, #4294967295	; 0xffffffff
  4017e4:	4770      	bx	lr
  4017e6:	bf00      	nop

004017e8 <_fstat>:

extern int _fstat(int file, struct stat *st)
{
	st->st_mode = S_IFCHR;
  4017e8:	f44f 5300 	mov.w	r3, #8192	; 0x2000
  4017ec:	604b      	str	r3, [r1, #4]

	return 0;
}
  4017ee:	f04f 0000 	mov.w	r0, #0
  4017f2:	4770      	bx	lr

004017f4 <_isatty>:

extern int _isatty(int file)
{
	return 1;
}
  4017f4:	f04f 0001 	mov.w	r0, #1
  4017f8:	4770      	bx	lr
  4017fa:	bf00      	nop

004017fc <_lseek>:

extern int _lseek(int file, int ptr, int dir)
{
	return 0;
}
  4017fc:	f04f 0000 	mov.w	r0, #0
  401800:	4770      	bx	lr
  401802:	bf00      	nop

00401804 <_read>:

extern int _read(int file, char *ptr, int len)
{
  401804:	e92d 41f0 	stmdb	sp!, {r4, r5, r6, r7, r8, lr}
  401808:	b082      	sub	sp, #8
  40180a:	4688      	mov	r8, r1
	size_t nChars = 0;
	uint8_t c = 0;
  40180c:	f04f 0300 	mov.w	r3, #0
  401810:	f88d 3007 	strb.w	r3, [sp, #7]

	for (; len > 0; --len) {
  401814:	2a00      	cmp	r2, #0
  401816:	dd19      	ble.n	40184c <_read+0x48>
extern int _lseek(int file, int ptr, int dir)
{
	return 0;
}

extern int _read(int file, char *ptr, int len)
  401818:	4617      	mov	r7, r2
{
	size_t nChars = 0;
  40181a:	461e      	mov	r6, r3
	uint8_t c = 0;

	for (; len > 0; --len) {
		while (uart_read(CONSOLE_UART, &c));
  40181c:	f44f 4480 	mov.w	r4, #16384	; 0x4000
  401820:	f2c4 0402 	movt	r4, #16386	; 0x4002
  401824:	f241 0569 	movw	r5, #4201	; 0x1069
  401828:	f2c0 0540 	movt	r5, #64	; 0x40
  40182c:	4620      	mov	r0, r4
  40182e:	f10d 0107 	add.w	r1, sp, #7
  401832:	47a8      	blx	r5
  401834:	2800      	cmp	r0, #0
  401836:	d1f9      	bne.n	40182c <_read+0x28>

		if (c == 0) {
  401838:	f89d 3007 	ldrb.w	r3, [sp, #7]
  40183c:	b143      	cbz	r3, 401850 <_read+0x4c>
			break;
		}
		*ptr++ = c;
  40183e:	f808 3006 	strb.w	r3, [r8, r6]
		++nChars;
  401842:	f106 0601 	add.w	r6, r6, #1
extern int _read(int file, char *ptr, int len)
{
	size_t nChars = 0;
	uint8_t c = 0;

	for (; len > 0; --len) {
  401846:	42be      	cmp	r6, r7
  401848:	d1f0      	bne.n	40182c <_read+0x28>
  40184a:	e001      	b.n	401850 <_read+0x4c>
	return 0;
}

extern int _read(int file, char *ptr, int len)
{
	size_t nChars = 0;
  40184c:	f04f 0600 	mov.w	r6, #0
		*ptr++ = c;
		++nChars;
	}

	return nChars;
}
  401850:	4630      	mov	r0, r6
  401852:	b002      	add	sp, #8
  401854:	e8bd 81f0 	ldmia.w	sp!, {r4, r5, r6, r7, r8, pc}

00401858 <_write>:

extern int _write(int file, char *ptr, int len)
{
  401858:	e92d 43f8 	stmdb	sp!, {r3, r4, r5, r6, r7, r8, r9, lr}
  40185c:	460e      	mov	r6, r1
	int iIndex;

	for (iIndex = 0; iIndex < len; iIndex++, ptr++) {
  40185e:	f1b2 0900 	subs.w	r9, r2, #0
  401862:	dd1a      	ble.n	40189a <_write+0x42>
	}

	return nChars;
}

extern int _write(int file, char *ptr, int len)
  401864:	eb01 0809 	add.w	r8, r1, r9
{
	int iIndex;

	for (iIndex = 0; iIndex < len; iIndex++, ptr++) {
		while (!uart_is_tx_ready(CONSOLE_UART));
  401868:	f44f 4480 	mov.w	r4, #16384	; 0x4000
  40186c:	f2c4 0402 	movt	r4, #16386	; 0x4002
  401870:	f241 0551 	movw	r5, #4177	; 0x1051
  401874:	f2c0 0540 	movt	r5, #64	; 0x40
		uart_write(CONSOLE_UART, *ptr);
  401878:	f241 0759 	movw	r7, #4185	; 0x1059
  40187c:	f2c0 0740 	movt	r7, #64	; 0x40
extern int _write(int file, char *ptr, int len)
{
	int iIndex;

	for (iIndex = 0; iIndex < len; iIndex++, ptr++) {
		while (!uart_is_tx_ready(CONSOLE_UART));
  401880:	4620      	mov	r0, r4
  401882:	47a8      	blx	r5
  401884:	2800      	cmp	r0, #0
  401886:	d0fb      	beq.n	401880 <_write+0x28>
		uart_write(CONSOLE_UART, *ptr);
  401888:	4620      	mov	r0, r4
  40188a:	f816 1b01 	ldrb.w	r1, [r6], #1
  40188e:	47b8      	blx	r7

extern int _write(int file, char *ptr, int len)
{
	int iIndex;

	for (iIndex = 0; iIndex < len; iIndex++, ptr++) {
  401890:	4546      	cmp	r6, r8
  401892:	d1f5      	bne.n	401880 <_write+0x28>
  401894:	4648      	mov	r0, r9
  401896:	e8bd 83f8 	ldmia.w	sp!, {r3, r4, r5, r6, r7, r8, r9, pc}
  40189a:	f04f 0000 	mov.w	r0, #0
		while (!uart_is_tx_ready(CONSOLE_UART));
		uart_write(CONSOLE_UART, *ptr);
	}

	return iIndex;
}
  40189e:	e8bd 83f8 	ldmia.w	sp!, {r3, r4, r5, r6, r7, r8, r9, pc}
  4018a2:	bf00      	nop

004018a4 <Button1_Handler>:

static int rdyn_tick = 0;


static void Button1_Handler(uint32_t id, uint32_t mask)
{
  4018a4:	b508      	push	{r3, lr}
    if (PIN_PUSHBUTTON_1_ID == id && PIN_PUSHBUTTON_1_MASK == mask)
  4018a6:	2901      	cmp	r1, #1
  4018a8:	bf08      	it	eq
  4018aa:	280b      	cmpeq	r0, #11
  4018ac:	d106      	bne.n	4018bc <Button1_Handler+0x18>
    {
        pio_set_pin_high(PULSE_GPIO);
  4018ae:	f04f 001b 	mov.w	r0, #27
  4018b2:	f240 338d 	movw	r3, #909	; 0x38d
  4018b6:	f2c0 0340 	movt	r3, #64	; 0x40
  4018ba:	4798      	blx	r3
  4018bc:	bd08      	pop	{r3, pc}
  4018be:	bf00      	nop

004018c0 <usart_serial_getchar>:
 * \param p_usart   Base address of the USART instance.
 * \param data   Data to read
 *
 */
static inline void usart_serial_getchar(usart_if p_usart, uint8_t *data)
{
  4018c0:	b5f0      	push	{r4, r5, r6, r7, lr}
  4018c2:	b083      	sub	sp, #12
  4018c4:	4604      	mov	r4, r0
  4018c6:	460d      	mov	r5, r1
	uint32_t val = 0;
  4018c8:	f04f 0300 	mov.w	r3, #0
  4018cc:	9301      	str	r3, [sp, #4]
	if (UART == (Uart*)p_usart) {
		while (uart_read((Uart*)p_usart, data));
	}
#else
# ifdef UART0
	if (UART0 == (Uart*)p_usart) {
  4018ce:	f44f 63c0 	mov.w	r3, #1536	; 0x600
  4018d2:	f2c4 030e 	movt	r3, #16398	; 0x400e
  4018d6:	4298      	cmp	r0, r3
  4018d8:	d10d      	bne.n	4018f6 <usart_serial_getchar+0x36>
		while (uart_read((Uart*)p_usart, data));
  4018da:	f44f 66c0 	mov.w	r6, #1536	; 0x600
  4018de:	f2c4 060e 	movt	r6, #16398	; 0x400e
  4018e2:	f241 0769 	movw	r7, #4201	; 0x1069
  4018e6:	f2c0 0740 	movt	r7, #64	; 0x40
  4018ea:	4630      	mov	r0, r6
  4018ec:	4629      	mov	r1, r5
  4018ee:	47b8      	blx	r7
  4018f0:	2800      	cmp	r0, #0
  4018f2:	d1fa      	bne.n	4018ea <usart_serial_getchar+0x2a>
  4018f4:	e029      	b.n	40194a <usart_serial_getchar+0x8a>
	}
# endif
# ifdef UART1
	if (UART1 == (Uart*)p_usart) {
  4018f6:	f44f 6300 	mov.w	r3, #2048	; 0x800
  4018fa:	f2c4 030e 	movt	r3, #16398	; 0x400e
  4018fe:	4298      	cmp	r0, r3
  401900:	d10d      	bne.n	40191e <usart_serial_getchar+0x5e>
		while (uart_read((Uart*)p_usart, data));
  401902:	f44f 6400 	mov.w	r4, #2048	; 0x800
  401906:	f2c4 040e 	movt	r4, #16398	; 0x400e
  40190a:	f241 0669 	movw	r6, #4201	; 0x1069
  40190e:	f2c0 0640 	movt	r6, #64	; 0x40
  401912:	4620      	mov	r0, r4
  401914:	4629      	mov	r1, r5
  401916:	47b0      	blx	r6
  401918:	2800      	cmp	r0, #0
  40191a:	d1fa      	bne.n	401912 <usart_serial_getchar+0x52>
  40191c:	e02a      	b.n	401974 <usart_serial_getchar+0xb4>
		while (usart_read(p_usart, &val));
		*data = (uint8_t)(val & 0xFF);
	}
#else
# ifdef USART0
	if (USART0 == p_usart) {
  40191e:	f44f 4380 	mov.w	r3, #16384	; 0x4000
  401922:	f2c4 0302 	movt	r3, #16386	; 0x4002
  401926:	4298      	cmp	r0, r3
  401928:	d10f      	bne.n	40194a <usart_serial_getchar+0x8a>
		while (usart_read(p_usart, &val));
  40192a:	f44f 4480 	mov.w	r4, #16384	; 0x4000
  40192e:	f2c4 0402 	movt	r4, #16386	; 0x4002
  401932:	f241 16d5 	movw	r6, #4565	; 0x11d5
  401936:	f2c0 0640 	movt	r6, #64	; 0x40
  40193a:	4620      	mov	r0, r4
  40193c:	a901      	add	r1, sp, #4
  40193e:	47b0      	blx	r6
  401940:	2800      	cmp	r0, #0
  401942:	d1fa      	bne.n	40193a <usart_serial_getchar+0x7a>
		*data = (uint8_t)(val & 0xFF);
  401944:	9b01      	ldr	r3, [sp, #4]
  401946:	702b      	strb	r3, [r5, #0]
  401948:	e014      	b.n	401974 <usart_serial_getchar+0xb4>
	}
# endif
# ifdef USART1
	if (USART1 == p_usart) {
  40194a:	f44f 4300 	mov.w	r3, #32768	; 0x8000
  40194e:	f2c4 0302 	movt	r3, #16386	; 0x4002
  401952:	429c      	cmp	r4, r3
  401954:	d10e      	bne.n	401974 <usart_serial_getchar+0xb4>
		while (usart_read(p_usart, &val));
  401956:	f44f 4400 	mov.w	r4, #32768	; 0x8000
  40195a:	f2c4 0402 	movt	r4, #16386	; 0x4002
  40195e:	f241 16d5 	movw	r6, #4565	; 0x11d5
  401962:	f2c0 0640 	movt	r6, #64	; 0x40
  401966:	4620      	mov	r0, r4
  401968:	a901      	add	r1, sp, #4
  40196a:	47b0      	blx	r6
  40196c:	2800      	cmp	r0, #0
  40196e:	d1fa      	bne.n	401966 <usart_serial_getchar+0xa6>
		*data = (uint8_t)(val & 0xFF);
  401970:	9b01      	ldr	r3, [sp, #4]
  401972:	702b      	strb	r3, [r5, #0]
		*data = (uint8_t)(val & 0xFF);
	}
# endif
#endif /* ifdef USART */

}
  401974:	b003      	add	sp, #12
  401976:	bdf0      	pop	{r4, r5, r6, r7, pc}

00401978 <usart_serial_putchar>:
 *   \retval 1  The character was written.
 *   \retval 0  The function timed out before the USART transmitter became
 * ready to send.
 */
static inline int usart_serial_putchar(usart_if p_usart, const uint8_t c)
{
  401978:	b570      	push	{r4, r5, r6, lr}
  40197a:	460c      	mov	r4, r1
		while (uart_write((Uart*)p_usart, c)!=0);
		return 1;
	}
#else
# ifdef UART0
	if (UART0 == (Uart*)p_usart) {
  40197c:	f44f 63c0 	mov.w	r3, #1536	; 0x600
  401980:	f2c4 030e 	movt	r3, #16398	; 0x400e
  401984:	4298      	cmp	r0, r3
  401986:	d10f      	bne.n	4019a8 <usart_serial_putchar+0x30>
		while (uart_write((Uart*)p_usart, c)!=0);
  401988:	f44f 65c0 	mov.w	r5, #1536	; 0x600
  40198c:	f2c4 050e 	movt	r5, #16398	; 0x400e
  401990:	f241 0659 	movw	r6, #4185	; 0x1059
  401994:	f2c0 0640 	movt	r6, #64	; 0x40
  401998:	4628      	mov	r0, r5
  40199a:	4621      	mov	r1, r4
  40199c:	47b0      	blx	r6
  40199e:	2800      	cmp	r0, #0
  4019a0:	d1fa      	bne.n	401998 <usart_serial_putchar+0x20>
		return 1;
  4019a2:	f04f 0001 	mov.w	r0, #1
  4019a6:	bd70      	pop	{r4, r5, r6, pc}
	}
# endif
# ifdef UART1
	if (UART1 == (Uart*)p_usart) {
  4019a8:	f44f 6300 	mov.w	r3, #2048	; 0x800
  4019ac:	f2c4 030e 	movt	r3, #16398	; 0x400e
  4019b0:	4298      	cmp	r0, r3
  4019b2:	d10f      	bne.n	4019d4 <usart_serial_putchar+0x5c>
		while (uart_write((Uart*)p_usart, c)!=0);
  4019b4:	f44f 6500 	mov.w	r5, #2048	; 0x800
  4019b8:	f2c4 050e 	movt	r5, #16398	; 0x400e
  4019bc:	f241 0659 	movw	r6, #4185	; 0x1059
  4019c0:	f2c0 0640 	movt	r6, #64	; 0x40
  4019c4:	4628      	mov	r0, r5
  4019c6:	4621      	mov	r1, r4
  4019c8:	47b0      	blx	r6
  4019ca:	2800      	cmp	r0, #0
  4019cc:	d1fa      	bne.n	4019c4 <usart_serial_putchar+0x4c>
		return 1;
  4019ce:	f04f 0001 	mov.w	r0, #1
  4019d2:	bd70      	pop	{r4, r5, r6, pc}
		while (usart_write(p_usart, c)!=0);
		return 1;
	}
#else
# ifdef USART0
	if (USART0 == p_usart) {
  4019d4:	f44f 4380 	mov.w	r3, #16384	; 0x4000
  4019d8:	f2c4 0302 	movt	r3, #16386	; 0x4002
  4019dc:	4298      	cmp	r0, r3
  4019de:	d10f      	bne.n	401a00 <usart_serial_putchar+0x88>
		while (usart_write(p_usart, c)!=0);
  4019e0:	f44f 4580 	mov.w	r5, #16384	; 0x4000
  4019e4:	f2c4 0502 	movt	r5, #16386	; 0x4002
  4019e8:	f241 16bd 	movw	r6, #4541	; 0x11bd
  4019ec:	f2c0 0640 	movt	r6, #64	; 0x40
  4019f0:	4628      	mov	r0, r5
  4019f2:	4621      	mov	r1, r4
  4019f4:	47b0      	blx	r6
  4019f6:	2800      	cmp	r0, #0
  4019f8:	d1fa      	bne.n	4019f0 <usart_serial_putchar+0x78>
		return 1;
  4019fa:	f04f 0001 	mov.w	r0, #1
  4019fe:	bd70      	pop	{r4, r5, r6, pc}
	}
# endif
# ifdef USART1
	if (USART1 == p_usart) {
  401a00:	f44f 4300 	mov.w	r3, #32768	; 0x8000
  401a04:	f2c4 0302 	movt	r3, #16386	; 0x4002
  401a08:	4298      	cmp	r0, r3
  401a0a:	d10f      	bne.n	401a2c <usart_serial_putchar+0xb4>
		while (usart_write(p_usart, c)!=0);
  401a0c:	f44f 4500 	mov.w	r5, #32768	; 0x8000
  401a10:	f2c4 0502 	movt	r5, #16386	; 0x4002
  401a14:	f241 16bd 	movw	r6, #4541	; 0x11bd
  401a18:	f2c0 0640 	movt	r6, #64	; 0x40
  401a1c:	4628      	mov	r0, r5
  401a1e:	4621      	mov	r1, r4
  401a20:	47b0      	blx	r6
  401a22:	2800      	cmp	r0, #0
  401a24:	d1fa      	bne.n	401a1c <usart_serial_putchar+0xa4>
		return 1;
  401a26:	f04f 0001 	mov.w	r0, #1
  401a2a:	bd70      	pop	{r4, r5, r6, pc}
		return 1;
	}
# endif
#endif /* ifdef USART */

	return 0;
  401a2c:	f04f 0000 	mov.w	r0, #0
}
  401a30:	bd70      	pop	{r4, r5, r6, pc}
  401a32:	bf00      	nop

00401a34 <Button2_Handler>:
}

uint8_t display_debug = 0;

static void Button2_Handler(uint32_t id, uint32_t mask)
{
  401a34:	b510      	push	{r4, lr}
    if (PIN_PUSHBUTTON_2_ID == id && PIN_PUSHBUTTON_2_MASK == mask)
  401a36:	2902      	cmp	r1, #2
  401a38:	bf08      	it	eq
  401a3a:	280b      	cmpeq	r0, #11
  401a3c:	d120      	bne.n	401a80 <Button2_Handler+0x4c>
    {
        pio_set_pin_low(PULSE_GPIO);
  401a3e:	f04f 001b 	mov.w	r0, #27
  401a42:	f240 33ad 	movw	r3, #941	; 0x3ad
  401a46:	f2c0 0340 	movt	r3, #64	; 0x40
  401a4a:	4798      	blx	r3

        display_debug = !display_debug;
  401a4c:	f241 53f4 	movw	r3, #5620	; 0x15f4
  401a50:	f2c2 0300 	movt	r3, #8192	; 0x2000
  401a54:	781a      	ldrb	r2, [r3, #0]
  401a56:	f1d2 0201 	rsbs	r2, r2, #1
  401a5a:	bf38      	it	cc
  401a5c:	2200      	movcc	r2, #0
  401a5e:	b2d1      	uxtb	r1, r2
  401a60:	701a      	strb	r2, [r3, #0]

        if (!display_debug)
  401a62:	b969      	cbnz	r1, 401a80 <Button2_Handler+0x4c>
        {
            screen_delete_lines(10, 50);
  401a64:	f04f 000a 	mov.w	r0, #10
  401a68:	f04f 0132 	mov.w	r1, #50	; 0x32
  401a6c:	f643 2495 	movw	r4, #14997	; 0x3a95
  401a70:	f2c0 0440 	movt	r4, #64	; 0x40
  401a74:	47a0      	blx	r4
            screen_delete_lines(112, 16);
  401a76:	f04f 0070 	mov.w	r0, #112	; 0x70
  401a7a:	f04f 0110 	mov.w	r1, #16
  401a7e:	47a0      	blx	r4
  401a80:	bd10      	pop	{r4, pc}
  401a82:	bf00      	nop

00401a84 <RDYN_Handler>:
        pio_set_pin_high(PULSE_GPIO);
    }
}

static void RDYN_Handler(uint32_t id, uint32_t mask)
{
  401a84:	b538      	push	{r3, r4, r5, lr}
  401a86:	4604      	mov	r4, r0
  401a88:	460d      	mov	r5, r1
    pmc_switch_mck_to_mainck(SYSCLK_PRES_1);
  401a8a:	f04f 0000 	mov.w	r0, #0
  401a8e:	f240 63ed 	movw	r3, #1773	; 0x6ed
  401a92:	f2c0 0340 	movt	r3, #64	; 0x40
  401a96:	4798      	blx	r3
    
    if (PIN_RDYN_ID == id && PIN_RDYN_MASK == mask) {
  401a98:	f1b5 7f00 	cmp.w	r5, #33554432	; 0x2000000
  401a9c:	bf08      	it	eq
  401a9e:	2c0b      	cmpeq	r4, #11
  401aa0:	d116      	bne.n	401ad0 <RDYN_Handler+0x4c>
        rdyn_tick++;
  401aa2:	f241 53f0 	movw	r3, #5616	; 0x15f0
  401aa6:	f2c2 0300 	movt	r3, #8192	; 0x2000
  401aaa:	681a      	ldr	r2, [r3, #0]
  401aac:	f102 0201 	add.w	r2, r2, #1
  401ab0:	601a      	str	r2, [r3, #0]

        BLE_SPI_lock = 1;
  401ab2:	f241 54d8 	movw	r4, #5592	; 0x15d8
  401ab6:	f2c2 0400 	movt	r4, #8192	; 0x2000
  401aba:	f04f 0301 	mov.w	r3, #1
  401abe:	7023      	strb	r3, [r4, #0]
        m_rdy_line_handle();
  401ac0:	f243 33fd 	movw	r3, #13309	; 0x33fd
  401ac4:	f2c0 0340 	movt	r3, #64	; 0x40
  401ac8:	4798      	blx	r3
        BLE_SPI_lock = 0;
  401aca:	f04f 0300 	mov.w	r3, #0
  401ace:	7023      	strb	r3, [r4, #0]
  401ad0:	bd38      	pop	{r3, r4, r5, pc}
  401ad2:	bf00      	nop

00401ad4 <do_buzz>:

#define BUZZ_200ms 4

void do_buzz()
{
    g_buzz = BUZZ_200ms;
  401ad4:	f241 53c8 	movw	r3, #5576	; 0x15c8
  401ad8:	f2c2 0300 	movt	r3, #8192	; 0x2000
  401adc:	f04f 0204 	mov.w	r2, #4
  401ae0:	601a      	str	r2, [r3, #0]
  401ae2:	4770      	bx	lr

00401ae4 <goto_sleep>:
int n_enter_sleep = 0;
int doing_ADC = 0;


void goto_sleep()
{
  401ae4:	b508      	push	{r3, lr}
    n_enter_sleep++;
  401ae6:	f241 53c4 	movw	r3, #5572	; 0x15c4
  401aea:	f2c2 0300 	movt	r3, #8192	; 0x2000
  401aee:	681a      	ldr	r2, [r3, #0]
  401af0:	f102 0201 	add.w	r2, r2, #1
  401af4:	601a      	str	r2, [r3, #0]
    
    if (!doing_ADC && g_ticks > 10)
  401af6:	f241 53d4 	movw	r3, #5588	; 0x15d4
  401afa:	f2c2 0300 	movt	r3, #8192	; 0x2000
  401afe:	681b      	ldr	r3, [r3, #0]
  401b00:	b96b      	cbnz	r3, 401b1e <goto_sleep+0x3a>
  401b02:	f241 6300 	movw	r3, #5632	; 0x1600
  401b06:	f2c2 0300 	movt	r3, #8192	; 0x2000
  401b0a:	681b      	ldr	r3, [r3, #0]
  401b0c:	2b0a      	cmp	r3, #10
  401b0e:	dd06      	ble.n	401b1e <goto_sleep+0x3a>
        pmc_switch_mck_to_mainck(SYSCLK_PRES_64);
  401b10:	f04f 0060 	mov.w	r0, #96	; 0x60
  401b14:	f240 63ed 	movw	r3, #1773	; 0x6ed
  401b18:	f2c0 0340 	movt	r3, #64	; 0x40
  401b1c:	4798      	blx	r3
          
    pmc_enable_sleepmode(0);
  401b1e:	f04f 0000 	mov.w	r0, #0
  401b22:	f640 03f5 	movw	r3, #2293	; 0x8f5
  401b26:	f2c0 0340 	movt	r3, #64	; 0x40
  401b2a:	4798      	blx	r3
    pmc_switch_mck_to_mainck(SYSCLK_PRES_1);
  401b2c:	f04f 0000 	mov.w	r0, #0
  401b30:	f240 63ed 	movw	r3, #1773	; 0x6ed
  401b34:	f2c0 0340 	movt	r3, #64	; 0x40
  401b38:	4798      	blx	r3
  401b3a:	bd08      	pop	{r3, pc}

00401b3c <attach_ble_interrupt>:
}

int ble_interrupt_attached = 0;

void attach_ble_interrupt()
{
  401b3c:	b530      	push	{r4, r5, lr}
  401b3e:	b083      	sub	sp, #12
    ble_interrupt_attached = 1;
  401b40:	f241 53dc 	movw	r3, #5596	; 0x15dc
  401b44:	f2c2 0300 	movt	r3, #8192	; 0x2000
  401b48:	f04f 0201 	mov.w	r2, #1
  401b4c:	601a      	str	r2, [r3, #0]
    
    /* Configure RDYN */
    pmc_enable_periph_clk(PIN_RDYN_ID);
  401b4e:	f04f 000b 	mov.w	r0, #11
  401b52:	f640 0371 	movw	r3, #2161	; 0x871
  401b56:	f2c0 0340 	movt	r3, #64	; 0x40
  401b5a:	4798      	blx	r3

    /* Interrupt on low level */
    pio_handler_set(PIN_RDYN_PIO, PIN_RDYN_ID, PIN_RDYN_MASK, PIN_RDYN_ATTR, RDYN_Handler);
  401b5c:	f44f 6460 	mov.w	r4, #3584	; 0xe00
  401b60:	f2c4 040e 	movt	r4, #16398	; 0x400e
  401b64:	f641 2385 	movw	r3, #6789	; 0x1a85
  401b68:	f2c0 0340 	movt	r3, #64	; 0x40
  401b6c:	9300      	str	r3, [sp, #0]
  401b6e:	4620      	mov	r0, r4
  401b70:	f04f 010b 	mov.w	r1, #11
  401b74:	f04f 7200 	mov.w	r2, #33554432	; 0x2000000
  401b78:	f04f 0311 	mov.w	r3, #17
  401b7c:	f240 55bd 	movw	r5, #1469	; 0x5bd
  401b80:	f2c0 0540 	movt	r5, #64	; 0x40
  401b84:	47a8      	blx	r5
  401b86:	f44f 4361 	mov.w	r3, #57600	; 0xe100
  401b8a:	f2ce 0300 	movt	r3, #57344	; 0xe000
  401b8e:	f44f 6200 	mov.w	r2, #2048	; 0x800
  401b92:	601a      	str	r2, [r3, #0]
    NVIC_EnableIRQ((IRQn_Type) PIN_RDYN_ID);
    pio_handler_set_priority(PIN_RDYN_PIO, (IRQn_Type) PIN_RDYN_ID, IRQ_PRIOR_PIO);
  401b94:	4620      	mov	r0, r4
  401b96:	f04f 010b 	mov.w	r1, #11
  401b9a:	f04f 0200 	mov.w	r2, #0
  401b9e:	f240 6345 	movw	r3, #1605	; 0x645
  401ba2:	f2c0 0340 	movt	r3, #64	; 0x40
  401ba6:	4798      	blx	r3
    pio_enable_interrupt(PIN_RDYN_PIO, PIN_RDYN_MASK);
  401ba8:	4620      	mov	r0, r4
  401baa:	f04f 7100 	mov.w	r1, #33554432	; 0x2000000
  401bae:	f240 23c9 	movw	r3, #713	; 0x2c9
  401bb2:	f2c0 0340 	movt	r3, #64	; 0x40
  401bb6:	4798      	blx	r3
}
  401bb8:	b003      	add	sp, #12
  401bba:	bd30      	pop	{r4, r5, pc}

00401bbc <RTC_init>:
                             (IRQn_Type) PIN_PUSHBUTTON_2_ID, IRQ_PRIOR_PIO);
    pio_enable_interrupt(PIN_PUSHBUTTON_2_PIO, PIN_PUSHBUTTON_2_MASK);
}

void RTC_init(void)
{
  401bbc:	b510      	push	{r4, lr}

        pmc_switch_sclk_to_32kxtal(PMC_OSC_XTAL);       /* Enable 32kHz external crystal */
  401bbe:	f04f 0000 	mov.w	r0, #0
  401bc2:	f240 7375 	movw	r3, #1909	; 0x775
  401bc6:	f2c0 0340 	movt	r3, #64	; 0x40
  401bca:	4798      	blx	r3
        while (!pmc_osc_is_ready_32kxtal());            /* Wait for 32K oscillator ready */
  401bcc:	f240 74a1 	movw	r4, #1953	; 0x7a1
  401bd0:	f2c0 0440 	movt	r4, #64	; 0x40
  401bd4:	47a0      	blx	r4
  401bd6:	2800      	cmp	r0, #0
  401bd8:	d0fc      	beq.n	401bd4 <RTC_init+0x18>

        rtc_set_hour_mode(RTC, 0);                                      /* Default RTC configuration, 24-hour mode */
  401bda:	f44f 54a3 	mov.w	r4, #5216	; 0x1460
  401bde:	f2c4 040e 	movt	r4, #16398	; 0x400e
  401be2:	4620      	mov	r0, r4
  401be4:	f04f 0100 	mov.w	r1, #0
  401be8:	f640 4399 	movw	r3, #3225	; 0xc99
  401bec:	f2c0 0340 	movt	r3, #64	; 0x40
  401bf0:	4798      	blx	r3

    \param [in]      IRQn  Number of the external interrupt to disable
 */
static __INLINE void NVIC_DisableIRQ(IRQn_Type IRQn)
{
  NVIC->ICER[((uint32_t)(IRQn) >> 5)] = (1 << ((uint32_t)(IRQn) & 0x1F)); /* disable interrupt */
  401bf2:	f44f 4361 	mov.w	r3, #57600	; 0xe100
  401bf6:	f2ce 0300 	movt	r3, #57344	; 0xe000
  401bfa:	f04f 0204 	mov.w	r2, #4
  401bfe:	f8c3 2080 	str.w	r2, [r3, #128]	; 0x80

    \param [in]      IRQn  Number of the interrupt for clear pending
 */
static __INLINE void NVIC_ClearPendingIRQ(IRQn_Type IRQn)
{
  NVIC->ICPR[((uint32_t)(IRQn) >> 5)] = (1 << ((uint32_t)(IRQn) & 0x1F)); /* Clear pending interrupt */
  401c02:	f8c3 2180 	str.w	r2, [r3, #384]	; 0x180
static __INLINE void NVIC_SetPriority(IRQn_Type IRQn, uint32_t priority)
{
  if(IRQn < 0) {
    SCB->SHP[((uint32_t)(IRQn) & 0xF)-4] = ((priority << (8 - __NVIC_PRIO_BITS)) & 0xff); } /* set Priority for Cortex-M  System Interrupts */
  else {
    NVIC->IP[(uint32_t)(IRQn)] = ((priority << (8 - __NVIC_PRIO_BITS)) & 0xff);    }        /* set Priority for device specific Interrupts  */
  401c06:	f04f 0130 	mov.w	r1, #48	; 0x30
  401c0a:	f883 1302 	strb.w	r1, [r3, #770]	; 0x302
    \param [in]      IRQn  Number of the external interrupt to enable
 */
static __INLINE void NVIC_EnableIRQ(IRQn_Type IRQn)
{
/*  NVIC->ISER[((uint32_t)(IRQn) >> 5)] = (1 << ((uint32_t)(IRQn) & 0x1F));  enable interrupt */
  NVIC->ISER[(uint32_t)((int32_t)IRQn) >> 5] = (uint32_t)(1 << ((uint32_t)((int32_t)IRQn) & (uint32_t)0x1F)); /* enable interrupt */
  401c0e:	601a      	str	r2, [r3, #0]
        NVIC_DisableIRQ(RTC_IRQn);
        NVIC_ClearPendingIRQ(RTC_IRQn);
        NVIC_SetPriority(RTC_IRQn, 3);
        NVIC_EnableIRQ(RTC_IRQn);

        rtc_enable_interrupt(RTC, RTC_IER_SECEN | RTC_IER_ALREN); /* Interrupts for seconds and alerts */
  401c10:	4620      	mov	r0, r4
  401c12:	f04f 0106 	mov.w	r1, #6
  401c16:	f640 43b1 	movw	r3, #3249	; 0xcb1
  401c1a:	f2c0 0340 	movt	r3, #64	; 0x40
  401c1e:	4798      	blx	r3
  401c20:	bd10      	pop	{r4, pc}
  401c22:	bf00      	nop

00401c24 <_itoa>:

const static char *day_of_week[] = {"NA", "Mon", "Tue", "Wed", "Thu", "Fri", "Sat", "Sun"};
const static char *month_name[] = {"NA", "Jan", "Feb", "Mar", "Apr", "May", "Jun", "Jul", "Aug", "Sep", "Oct", "Nov", "Dec"};

int _itoa(uint32_t x, char *s, int n)
{
  401c24:	b470      	push	{r4, r5, r6}
    int i;

    for (i = n; i > 0; i--)
  401c26:	2a00      	cmp	r2, #0
  401c28:	dd14      	ble.n	401c54 <_itoa+0x30>


const static char *day_of_week[] = {"NA", "Mon", "Tue", "Wed", "Thu", "Fri", "Sat", "Sun"};
const static char *month_name[] = {"NA", "Jan", "Feb", "Mar", "Apr", "May", "Jun", "Jul", "Aug", "Sep", "Oct", "Nov", "Dec"};

int _itoa(uint32_t x, char *s, int n)
  401c2a:	1889      	adds	r1, r1, r2
{
    int i;

    for (i = n; i > 0; i--)
  401c2c:	4614      	mov	r4, r2
    {
        *(s+i-1) = (x % 10) + '0';
  401c2e:	f64c 46cd 	movw	r6, #52429	; 0xcccd
  401c32:	f6cc 46cc 	movt	r6, #52428	; 0xcccc
  401c36:	fba6 5300 	umull	r5, r3, r6, r0
  401c3a:	ea4f 03d3 	mov.w	r3, r3, lsr #3
  401c3e:	eb03 0583 	add.w	r5, r3, r3, lsl #2
  401c42:	eba0 0545 	sub.w	r5, r0, r5, lsl #1
  401c46:	f105 0530 	add.w	r5, r5, #48	; 0x30
  401c4a:	f801 5d01 	strb.w	r5, [r1, #-1]!
        x = x / 10;
  401c4e:	4618      	mov	r0, r3

int _itoa(uint32_t x, char *s, int n)
{
    int i;

    for (i = n; i > 0; i--)
  401c50:	3c01      	subs	r4, #1
  401c52:	d1f0      	bne.n	401c36 <_itoa+0x12>
        *(s+i-1) = (x % 10) + '0';
        x = x / 10;
    }

    return n;
}
  401c54:	4610      	mov	r0, r2
  401c56:	bc70      	pop	{r4, r5, r6}
  401c58:	4770      	bx	lr
  401c5a:	bf00      	nop

00401c5c <_itoa2>:

int _itoa2(int x, char *s, int n)
{
  401c5c:	b4f0      	push	{r4, r5, r6, r7}
  401c5e:	4603      	mov	r3, r0
    int i;

    for (i = n; i > 0; i--)
  401c60:	1e10      	subs	r0, r2, #0
  401c62:	dd16      	ble.n	401c92 <_itoa2+0x36>
    }

    return n;
}

int _itoa2(int x, char *s, int n)
  401c64:	180e      	adds	r6, r1, r0
{
    int i;

    for (i = n; i > 0; i--)
  401c66:	4605      	mov	r5, r0
    {
        *(s+i-1) = (x % 10) + '0';
  401c68:	f246 6c67 	movw	ip, #26215	; 0x6667
  401c6c:	f2c6 6c66 	movt	ip, #26214	; 0x6666
  401c70:	fb8c 2703 	smull	r2, r7, ip, r3
  401c74:	ea4f 74e3 	mov.w	r4, r3, asr #31
  401c78:	ebc4 04a7 	rsb	r4, r4, r7, asr #2
  401c7c:	eb04 0784 	add.w	r7, r4, r4, lsl #2
  401c80:	eba3 0347 	sub.w	r3, r3, r7, lsl #1
  401c84:	f103 0330 	add.w	r3, r3, #48	; 0x30
  401c88:	f806 3d01 	strb.w	r3, [r6, #-1]!
        x = x / 10;
  401c8c:	4623      	mov	r3, r4

int _itoa2(int x, char *s, int n)
{
    int i;

    for (i = n; i > 0; i--)
  401c8e:	3d01      	subs	r5, #1
  401c90:	d1ee      	bne.n	401c70 <_itoa2+0x14>
    {
        *(s+i-1) = (x % 10) + '0';
        x = x / 10;
    }

    while (*s == '0')
  401c92:	780b      	ldrb	r3, [r1, #0]
  401c94:	2b30      	cmp	r3, #48	; 0x30
  401c96:	d108      	bne.n	401caa <_itoa2+0x4e>
    }

    return n;
}

int _itoa2(int x, char *s, int n)
  401c98:	f101 31ff 	add.w	r1, r1, #4294967295	; 0xffffffff
        *(s+i-1) = (x % 10) + '0';
        x = x / 10;
    }

    while (*s == '0')
        *s++ = ' ';
  401c9c:	f04f 0220 	mov.w	r2, #32
  401ca0:	f801 2f01 	strb.w	r2, [r1, #1]!
    {
        *(s+i-1) = (x % 10) + '0';
        x = x / 10;
    }

    while (*s == '0')
  401ca4:	784b      	ldrb	r3, [r1, #1]
  401ca6:	2b30      	cmp	r3, #48	; 0x30
  401ca8:	d0fa      	beq.n	401ca0 <_itoa2+0x44>
        *s++ = ' ';
    
    return n;
}
  401caa:	bcf0      	pop	{r4, r5, r6, r7}
  401cac:	4770      	bx	lr
  401cae:	bf00      	nop

00401cb0 <_stoa>:

int _stoa(const char *x, char *s, int n)
{
  401cb0:	b430      	push	{r4, r5}
    int i;

    for (i = n; i > 0; i--)
  401cb2:	2a00      	cmp	r2, #0
  401cb4:	dd08      	ble.n	401cc8 <_stoa+0x18>
        *s++ = ' ';
    
    return n;
}

int _stoa(const char *x, char *s, int n)
  401cb6:	f100 33ff 	add.w	r3, r0, #4294967295	; 0xffffffff
  401cba:	188d      	adds	r5, r1, r2
{
    int i;

    for (i = n; i > 0; i--)
        *s++ = *x++;
  401cbc:	f813 4f01 	ldrb.w	r4, [r3, #1]!
  401cc0:	f801 4b01 	strb.w	r4, [r1], #1

int _stoa(const char *x, char *s, int n)
{
    int i;

    for (i = n; i > 0; i--)
  401cc4:	42a9      	cmp	r1, r5
  401cc6:	d1f9      	bne.n	401cbc <_stoa+0xc>
        *s++ = *x++;

    return n;

}
  401cc8:	4610      	mov	r0, r2
  401cca:	bc30      	pop	{r4, r5}
  401ccc:	4770      	bx	lr
  401cce:	bf00      	nop

00401cd0 <get_v_batt>:
int v_batt_m[10];
int n_v_batt = 0;
int i_v_batt = 0;

int get_v_batt(int v_batt)
{
  401cd0:	b410      	push	{r4}
    int i, sum = 0;
    
    v_batt_m[i_v_batt] = v_batt;
  401cd2:	f241 53cc 	movw	r3, #5580	; 0x15cc
  401cd6:	f2c2 0300 	movt	r3, #8192	; 0x2000
  401cda:	681a      	ldr	r2, [r3, #0]
  401cdc:	f644 031c 	movw	r3, #18460	; 0x481c
  401ce0:	f2c2 0300 	movt	r3, #8192	; 0x2000
  401ce4:	f843 0022 	str.w	r0, [r3, r2, lsl #2]

    if (++i_v_batt >= 10)
  401ce8:	f102 0201 	add.w	r2, r2, #1
  401cec:	2a09      	cmp	r2, #9
  401cee:	f241 53cc 	movw	r3, #5580	; 0x15cc
  401cf2:	f2c2 0300 	movt	r3, #8192	; 0x2000
        i_v_batt = 0;
  401cf6:	bfc8      	it	gt
  401cf8:	2200      	movgt	r2, #0
  401cfa:	601a      	str	r2, [r3, #0]

    if (++n_v_batt >= 10)
  401cfc:	f241 53ec 	movw	r3, #5612	; 0x15ec
  401d00:	f2c2 0300 	movt	r3, #8192	; 0x2000
  401d04:	6818      	ldr	r0, [r3, #0]
  401d06:	f100 0001 	add.w	r0, r0, #1
  401d0a:	6018      	str	r0, [r3, #0]
  401d0c:	2809      	cmp	r0, #9
  401d0e:	dd0b      	ble.n	401d28 <get_v_batt+0x58>
        n_v_batt = 10;
  401d10:	f241 53ec 	movw	r3, #5612	; 0x15ec
  401d14:	f2c2 0300 	movt	r3, #8192	; 0x2000
  401d18:	f04f 000a 	mov.w	r0, #10
  401d1c:	6018      	str	r0, [r3, #0]
  401d1e:	490a      	ldr	r1, [pc, #40]	; (401d48 <get_v_batt+0x78>)

    for (i = 0; i < n_v_batt; i++)
  401d20:	f04f 0200 	mov.w	r2, #0
  401d24:	4613      	mov	r3, r2
  401d26:	e004      	b.n	401d32 <get_v_batt+0x62>
  401d28:	2800      	cmp	r0, #0
int n_v_batt = 0;
int i_v_batt = 0;

int get_v_batt(int v_batt)
{
    int i, sum = 0;
  401d2a:	bfd8      	it	le
  401d2c:	2200      	movle	r2, #0
        i_v_batt = 0;

    if (++n_v_batt >= 10)
        n_v_batt = 10;

    for (i = 0; i < n_v_batt; i++)
  401d2e:	dd07      	ble.n	401d40 <get_v_batt+0x70>
  401d30:	e7f5      	b.n	401d1e <get_v_batt+0x4e>
        sum += v_batt_m[i];
  401d32:	f851 4f04 	ldr.w	r4, [r1, #4]!
  401d36:	1912      	adds	r2, r2, r4
        i_v_batt = 0;

    if (++n_v_batt >= 10)
        n_v_batt = 10;

    for (i = 0; i < n_v_batt; i++)
  401d38:	f103 0301 	add.w	r3, r3, #1
  401d3c:	4283      	cmp	r3, r0
  401d3e:	dbf8      	blt.n	401d32 <get_v_batt+0x62>
        sum += v_batt_m[i];

    return sum / n_v_batt;
}
  401d40:	fb92 f0f0 	sdiv	r0, r2, r0
  401d44:	bc10      	pop	{r4}
  401d46:	4770      	bx	lr
  401d48:	20004818 	.word	0x20004818

00401d4c <adc_sw_trigger>:

int g_temp = 0;
int g_sign = 0;

void adc_sw_trigger()
{
  401d4c:	b508      	push	{r3, lr}
    doing_ADC = 1;
  401d4e:	f241 53d4 	movw	r3, #5588	; 0x15d4
  401d52:	f2c2 0300 	movt	r3, #8192	; 0x2000
  401d56:	f04f 0201 	mov.w	r2, #1
  401d5a:	601a      	str	r2, [r3, #0]
    adc_start(ADC);
  401d5c:	f44f 4000 	mov.w	r0, #32768	; 0x8000
  401d60:	f2c4 0003 	movt	r0, #16387	; 0x4003
  401d64:	f241 0325 	movw	r3, #4133	; 0x1025
  401d68:	f2c0 0340 	movt	r3, #64	; 0x40
  401d6c:	4798      	blx	r3
  401d6e:	bd08      	pop	{r3, pc}

00401d70 <RTC_Handler>:
extern int max_grafic;

extern int g_nSteps;

void RTC_Handler(void)
{
  401d70:	b5f0      	push	{r4, r5, r6, r7, lr}
  401d72:	f2ad 4d2c 	subw	sp, sp, #1068	; 0x42c
    uint32_t ul_status = rtc_get_status(RTC);
  401d76:	f44f 50a3 	mov.w	r0, #5216	; 0x1460
  401d7a:	f2c4 000e 	movt	r0, #16398	; 0x400e
  401d7e:	f640 730d 	movw	r3, #3853	; 0xf0d
  401d82:	f2c0 0340 	movt	r3, #64	; 0x40
  401d86:	4798      	blx	r3
    uint32_t ul_year, ul_month, ul_day, ul_week;
    char buf[1024];

    int v_batt, v_light;

    if ((ul_status & RTC_SR_SEC) == RTC_SR_SEC) {                   /* Second increment interrupt */
  401d88:	f010 0f04 	tst.w	r0, #4
  401d8c:	f000 8206 	beq.w	40219c <RTC_Handler+0x42c>
        rtc_disable_interrupt(RTC, RTC_IDR_SECDIS);                     /* Disable RTC interrupt */
  401d90:	f44f 50a3 	mov.w	r0, #5216	; 0x1460
  401d94:	f2c4 000e 	movt	r0, #16398	; 0x400e
  401d98:	f04f 0104 	mov.w	r1, #4
  401d9c:	f640 43b5 	movw	r3, #3253	; 0xcb5
  401da0:	f2c0 0340 	movt	r3, #64	; 0x40
  401da4:	4798      	blx	r3

        g_ticks++;
  401da6:	f241 6300 	movw	r3, #5632	; 0x1600
  401daa:	f2c2 0300 	movt	r3, #8192	; 0x2000
  401dae:	681a      	ldr	r2, [r3, #0]
  401db0:	f102 0201 	add.w	r2, r2, #1
  401db4:	601a      	str	r2, [r3, #0]

        if (g_ticks == 3)
  401db6:	2a03      	cmp	r2, #3
  401db8:	d112      	bne.n	401de0 <RTC_Handler+0x70>
        {
            /* Turn LEDs off after a few seconds.  */
            pio_set_pin_low(PULSE_GPIO);
  401dba:	f04f 001b 	mov.w	r0, #27
  401dbe:	f240 33ad 	movw	r3, #941	; 0x3ad
  401dc2:	f2c0 0340 	movt	r3, #64	; 0x40
  401dc6:	4798      	blx	r3

            MPU9150_setup();
  401dc8:	f643 53dd 	movw	r3, #15837	; 0x3ddd
  401dcc:	f2c0 0340 	movt	r3, #64	; 0x40
  401dd0:	4798      	blx	r3
            MPU9150_started = 1;
  401dd2:	f241 53d0 	movw	r3, #5584	; 0x15d0
  401dd6:	f2c2 0300 	movt	r3, #8192	; 0x2000
  401dda:	f04f 0201 	mov.w	r2, #1
  401dde:	601a      	str	r2, [r3, #0]
        }

        rtc_get_time(RTC,&ul_hour, &ul_min, &ul_sec);
  401de0:	f44f 54a3 	mov.w	r4, #5216	; 0x1460
  401de4:	f2c4 040e 	movt	r4, #16398	; 0x400e
  401de8:	4620      	mov	r0, r4
  401dea:	f20d 411c 	addw	r1, sp, #1052	; 0x41c
  401dee:	f50d 6284 	add.w	r2, sp, #1056	; 0x420
  401df2:	f20d 4324 	addw	r3, sp, #1060	; 0x424
  401df6:	f640 45b9 	movw	r5, #3257	; 0xcb9
  401dfa:	f2c0 0540 	movt	r5, #64	; 0x40
  401dfe:	47a8      	blx	r5
        rtc_get_date(RTC,&ul_year, &ul_month, &ul_day, &ul_week);
  401e00:	f20d 430c 	addw	r3, sp, #1036	; 0x40c
  401e04:	9300      	str	r3, [sp, #0]
  401e06:	4620      	mov	r0, r4
  401e08:	f50d 6183 	add.w	r1, sp, #1048	; 0x418
  401e0c:	f20d 4214 	addw	r2, sp, #1044	; 0x414
  401e10:	f50d 6382 	add.w	r3, sp, #1040	; 0x410
  401e14:	f640 54b9 	movw	r4, #3513	; 0xdb9
  401e18:	f2c0 0440 	movt	r4, #64	; 0x40
  401e1c:	47a0      	blx	r4

        if (!display_debug)
  401e1e:	f241 53f4 	movw	r3, #5620	; 0x15f4
  401e22:	f2c2 0300 	movt	r3, #8192	; 0x2000
  401e26:	781b      	ldrb	r3, [r3, #0]
  401e28:	2b00      	cmp	r3, #0
  401e2a:	d15a      	bne.n	401ee2 <RTC_Handler+0x172>
        {
            strcpy(buf, "XX:XX");
  401e2c:	ac03      	add	r4, sp, #12
  401e2e:	f64a 13c0 	movw	r3, #43456	; 0xa9c0
  401e32:	f2c0 0340 	movt	r3, #64	; 0x40
  401e36:	e893 0003 	ldmia.w	r3, {r0, r1}
  401e3a:	9003      	str	r0, [sp, #12]
  401e3c:	f8ad 1010 	strh.w	r1, [sp, #16]
            _itoa(ul_hour, buf, 2);
  401e40:	f8dd 041c 	ldr.w	r0, [sp, #1052]	; 0x41c
  401e44:	4621      	mov	r1, r4
  401e46:	f04f 0202 	mov.w	r2, #2
  401e4a:	f641 4525 	movw	r5, #7205	; 0x1c25
  401e4e:	f2c0 0540 	movt	r5, #64	; 0x40
  401e52:	47a8      	blx	r5
            _itoa(ul_min, buf + 3, 2);
  401e54:	f8dd 0420 	ldr.w	r0, [sp, #1056]	; 0x420
  401e58:	f10d 010f 	add.w	r1, sp, #15
  401e5c:	f04f 0202 	mov.w	r2, #2
  401e60:	47a8      	blx	r5
            screen_put_bigtext_at(buf, -1, 10, THIN42);
  401e62:	4620      	mov	r0, r4
  401e64:	f04f 31ff 	mov.w	r1, #4294967295	; 0xffffffff
  401e68:	f04f 020a 	mov.w	r2, #10
  401e6c:	f04f 0302 	mov.w	r3, #2
  401e70:	f243 76dd 	movw	r6, #14301	; 0x37dd
  401e74:	f2c0 0640 	movt	r6, #64	; 0x40
  401e78:	47b0      	blx	r6
        
            strcpy(buf, "XXX, XXX XX");   
  401e7a:	f64a 13c8 	movw	r3, #43464	; 0xa9c8
  401e7e:	f2c0 0340 	movt	r3, #64	; 0x40
  401e82:	e893 0007 	ldmia.w	r3, {r0, r1, r2}
  401e86:	e884 0007 	stmia.w	r4, {r0, r1, r2}
            _stoa(day_of_week[ul_week], buf, 3);
  401e8a:	f64a 1364 	movw	r3, #43364	; 0xa964
  401e8e:	f2c0 0340 	movt	r3, #64	; 0x40
  401e92:	f8dd 240c 	ldr.w	r2, [sp, #1036]	; 0x40c
  401e96:	f853 0022 	ldr.w	r0, [r3, r2, lsl #2]
  401e9a:	4621      	mov	r1, r4
  401e9c:	f04f 0203 	mov.w	r2, #3
  401ea0:	f641 47b1 	movw	r7, #7345	; 0x1cb1
  401ea4:	f2c0 0740 	movt	r7, #64	; 0x40
  401ea8:	47b8      	blx	r7
            _stoa(month_name[ul_month], buf + 5, 3);
  401eaa:	f64a 1384 	movw	r3, #43396	; 0xa984
  401eae:	f2c0 0340 	movt	r3, #64	; 0x40
  401eb2:	f8dd 2414 	ldr.w	r2, [sp, #1044]	; 0x414
  401eb6:	f853 0022 	ldr.w	r0, [r3, r2, lsl #2]
  401eba:	f10d 0111 	add.w	r1, sp, #17
  401ebe:	f04f 0203 	mov.w	r2, #3
  401ec2:	47b8      	blx	r7
            _itoa(ul_day, buf + 9, 2);
  401ec4:	f8dd 0410 	ldr.w	r0, [sp, #1040]	; 0x410
  401ec8:	f10d 0115 	add.w	r1, sp, #21
  401ecc:	f04f 0202 	mov.w	r2, #2
  401ed0:	47a8      	blx	r5
            screen_put_bigtext_at(buf, -1, 44, HELV16);
  401ed2:	4620      	mov	r0, r4
  401ed4:	f04f 31ff 	mov.w	r1, #4294967295	; 0xffffffff
  401ed8:	f04f 022c 	mov.w	r2, #44	; 0x2c
  401edc:	f04f 0300 	mov.w	r3, #0
  401ee0:	47b0      	blx	r6
        }
        
        strcpy(buf, "XX\200");
  401ee2:	f645 0358 	movw	r3, #22616	; 0x5858
  401ee6:	f2c0 0380 	movt	r3, #128	; 0x80
  401eea:	9303      	str	r3, [sp, #12]
        _itoa(g_temp, buf, 2);
  401eec:	f241 53fc 	movw	r3, #5628	; 0x15fc
  401ef0:	f2c2 0300 	movt	r3, #8192	; 0x2000
  401ef4:	6818      	ldr	r0, [r3, #0]
  401ef6:	a903      	add	r1, sp, #12
  401ef8:	f04f 0202 	mov.w	r2, #2
  401efc:	f641 4325 	movw	r3, #7205	; 0x1c25
  401f00:	f2c0 0340 	movt	r3, #64	; 0x40
  401f04:	4798      	blx	r3
        screen_put_bigtext_at(buf, 30, 60, HELV32);
  401f06:	a803      	add	r0, sp, #12
  401f08:	f04f 011e 	mov.w	r1, #30
  401f0c:	f04f 023c 	mov.w	r2, #60	; 0x3c
  401f10:	f04f 0301 	mov.w	r3, #1
  401f14:	f243 74dd 	movw	r4, #14301	; 0x37dd
  401f18:	f2c0 0440 	movt	r4, #64	; 0x40
  401f1c:	47a0      	blx	r4
        strcpy(buf, "\200");
  401f1e:	f04f 0380 	mov.w	r3, #128	; 0x80
  401f22:	f8ad 300c 	strh.w	r3, [sp, #12]
        buf[0] = g_sign & 0x80 ? g_sign : 0x80;
  401f26:	f241 53e4 	movw	r3, #5604	; 0x15e4
  401f2a:	f2c2 0300 	movt	r3, #8192	; 0x2000
  401f2e:	681b      	ldr	r3, [r3, #0]
  401f30:	f013 0f80 	tst.w	r3, #128	; 0x80
  401f34:	bf14      	ite	ne
  401f36:	b2db      	uxtbne	r3, r3
  401f38:	2380      	moveq	r3, #128	; 0x80
  401f3a:	f88d 300c 	strb.w	r3, [sp, #12]
        screen_put_bigtext_at(buf, 70, 62, WEATHER);
  401f3e:	a803      	add	r0, sp, #12
  401f40:	f04f 0146 	mov.w	r1, #70	; 0x46
  401f44:	f04f 023e 	mov.w	r2, #62	; 0x3e
  401f48:	f04f 0303 	mov.w	r3, #3
  401f4c:	f243 74dd 	movw	r4, #14301	; 0x37dd
  401f50:	f2c0 0440 	movt	r4, #64	; 0x40
  401f54:	47a0      	blx	r4

        if (notification_type[0])
  401f56:	f646 7320 	movw	r3, #28448	; 0x6f20
  401f5a:	f2c2 0300 	movt	r3, #8192	; 0x2000
  401f5e:	781b      	ldrb	r3, [r3, #0]
  401f60:	b17b      	cbz	r3, 401f82 <RTC_Handler+0x212>
            screen_put_bigtext_at(notification_type, 8, 90, HELV16);
  401f62:	f646 7020 	movw	r0, #28448	; 0x6f20
  401f66:	f2c2 0000 	movt	r0, #8192	; 0x2000
  401f6a:	f04f 0108 	mov.w	r1, #8
  401f6e:	f04f 025a 	mov.w	r2, #90	; 0x5a
  401f72:	f04f 0300 	mov.w	r3, #0
  401f76:	f243 74dd 	movw	r4, #14301	; 0x37dd
  401f7a:	f2c0 0440 	movt	r4, #64	; 0x40
  401f7e:	47a0      	blx	r4
  401f80:	e008      	b.n	401f94 <RTC_Handler+0x224>
        else 
            screen_delete_lines(90, 16);
  401f82:	f04f 005a 	mov.w	r0, #90	; 0x5a
  401f86:	f04f 0110 	mov.w	r1, #16
  401f8a:	f643 2395 	movw	r3, #14997	; 0x3a95
  401f8e:	f2c0 0340 	movt	r3, #64	; 0x40
  401f92:	4798      	blx	r3
        
        if (notification_details[0])
  401f94:	f646 6320 	movw	r3, #28192	; 0x6e20
  401f98:	f2c2 0300 	movt	r3, #8192	; 0x2000
  401f9c:	781b      	ldrb	r3, [r3, #0]
  401f9e:	b17b      	cbz	r3, 401fc0 <RTC_Handler+0x250>
            screen_put_bigtext_at(notification_details, 8, 105, HELV16);
  401fa0:	f646 6020 	movw	r0, #28192	; 0x6e20
  401fa4:	f2c2 0000 	movt	r0, #8192	; 0x2000
  401fa8:	f04f 0108 	mov.w	r1, #8
  401fac:	f04f 0269 	mov.w	r2, #105	; 0x69
  401fb0:	f04f 0300 	mov.w	r3, #0
  401fb4:	f243 74dd 	movw	r4, #14301	; 0x37dd
  401fb8:	f2c0 0440 	movt	r4, #64	; 0x40
  401fbc:	47a0      	blx	r4
  401fbe:	e008      	b.n	401fd2 <RTC_Handler+0x262>
        else
            screen_delete_lines(105, 16);
  401fc0:	f04f 0069 	mov.w	r0, #105	; 0x69
  401fc4:	f04f 0110 	mov.w	r1, #16
  401fc8:	f643 2395 	movw	r3, #14997	; 0x3a95
  401fcc:	f2c0 0340 	movt	r3, #64	; 0x40
  401fd0:	4798      	blx	r3

        strcpy(buf, "XXXXX");
  401fd2:	f64a 13d4 	movw	r3, #43476	; 0xa9d4
  401fd6:	f2c0 0340 	movt	r3, #64	; 0x40
  401fda:	e893 0003 	ldmia.w	r3, {r0, r1}
  401fde:	9003      	str	r0, [sp, #12]
  401fe0:	f8ad 1010 	strh.w	r1, [sp, #16]
        _itoa2(g_nSteps, buf, 5);
  401fe4:	f640 2358 	movw	r3, #2648	; 0xa58
  401fe8:	f2c2 0300 	movt	r3, #8192	; 0x2000
  401fec:	6818      	ldr	r0, [r3, #0]
  401fee:	a903      	add	r1, sp, #12
  401ff0:	f04f 0205 	mov.w	r2, #5
  401ff4:	f641 435d 	movw	r3, #7261	; 0x1c5d
  401ff8:	f2c0 0340 	movt	r3, #64	; 0x40
  401ffc:	4798      	blx	r3
        screen_put_bigtext_at(buf, -2, 90, HELV16);
  401ffe:	a803      	add	r0, sp, #12
  402000:	f06f 0101 	mvn.w	r1, #1
  402004:	f04f 025a 	mov.w	r2, #90	; 0x5a
  402008:	f04f 0300 	mov.w	r3, #0
  40200c:	f243 74dd 	movw	r4, #14301	; 0x37dd
  402010:	f2c0 0440 	movt	r4, #64	; 0x40
  402014:	47a0      	blx	r4
/*         strcpy(buf, "HZ:XXXXXXXXXXXX"); */
/*         _itoa(accl[2], buf + 3, 12); */
/* //        _itoa(sysclk_get_cpu_hz(), buf + 3, 12); */
/*         screen_put_text_at(buf, 13, 0); */
        
        v_batt = (adc_ch[4] * 18810) >> 12;
  402016:	f244 739c 	movw	r3, #18332	; 0x479c
  40201a:	f2c2 0300 	movt	r3, #8192	; 0x2000
